{
  "_format": "hh-sol-artifact-1",
  "contractName": "MockChainLending",
  "sourceName": "contracts/MockChainLending.sol",
  "abi": [
    {
      "inputs": [
        {
          "internalType": "string",
          "name": "_chainName",
          "type": "string"
        },
        {
          "internalType": "address",
          "name": "_dikeAddress",
          "type": "address"
        }
      ],
      "stateMutability": "nonpayable",
      "type": "constructor"
    },
    {
      "anonymous": false,
      "inputs": [
        {
          "indexed": true,
          "internalType": "address",
          "name": "user",
          "type": "address"
        },
        {
          "indexed": false,
          "internalType": "uint256",
          "name": "amount",
          "type": "uint256"
        },
        {
          "indexed": false,
          "internalType": "uint256",
          "name": "ratioApplied",
          "type": "uint256"
        },
        {
          "indexed": false,
          "internalType": "bool",
          "name": "dikeUsed",
          "type": "bool"
        }
      ],
      "name": "Borrow",
      "type": "event"
    },
    {
      "anonymous": false,
      "inputs": [
        {
          "indexed": false,
          "internalType": "bool",
          "name": "enabled",
          "type": "bool"
        }
      ],
      "name": "DIKEToggled",
      "type": "event"
    },
    {
      "anonymous": false,
      "inputs": [
        {
          "indexed": true,
          "internalType": "address",
          "name": "user",
          "type": "address"
        },
        {
          "indexed": false,
          "internalType": "uint256",
          "name": "amount",
          "type": "uint256"
        }
      ],
      "name": "Repay",
      "type": "event"
    },
    {
      "inputs": [],
      "name": "BASE_RATIO",
      "outputs": [
        {
          "internalType": "uint256",
          "name": "",
          "type": "uint256"
        }
      ],
      "stateMutability": "view",
      "type": "function"
    },
    {
      "inputs": [],
      "name": "PREFERRED_RATIO",
      "outputs": [
        {
          "internalType": "uint256",
          "name": "",
          "type": "uint256"
        }
      ],
      "stateMutability": "view",
      "type": "function"
    },
    {
      "inputs": [
        {
          "internalType": "address",
          "name": "",
          "type": "address"
        }
      ],
      "name": "activeLoan",
      "outputs": [
        {
          "internalType": "uint256",
          "name": "",
          "type": "uint256"
        }
      ],
      "stateMutability": "view",
      "type": "function"
    },
    {
      "inputs": [
        {
          "internalType": "uint256",
          "name": "amount",
          "type": "uint256"
        }
      ],
      "name": "borrow",
      "outputs": [],
      "stateMutability": "payable",
      "type": "function"
    },
    {
      "inputs": [],
      "name": "chainName",
      "outputs": [
        {
          "internalType": "string",
          "name": "",
          "type": "string"
        }
      ],
      "stateMutability": "view",
      "type": "function"
    },
    {
      "inputs": [],
      "name": "dike",
      "outputs": [
        {
          "internalType": "contract IDIKE",
          "name": "",
          "type": "address"
        }
      ],
      "stateMutability": "view",
      "type": "function"
    },
    {
      "inputs": [
        {
          "internalType": "address",
          "name": "user",
          "type": "address"
        },
        {
          "internalType": "uint256",
          "name": "amount",
          "type": "uint256"
        }
      ],
      "name": "getRequiredCollateral",
      "outputs": [
        {
          "internalType": "uint256",
          "name": "",
          "type": "uint256"
        }
      ],
      "stateMutability": "view",
      "type": "function"
    },
    {
      "inputs": [
        {
          "internalType": "address",
          "name": "user",
          "type": "address"
        }
      ],
      "name": "getRequiredRatioFor",
      "outputs": [
        {
          "internalType": "uint256",
          "name": "",
          "type": "uint256"
        }
      ],
      "stateMutability": "view",
      "type": "function"
    },
    {
      "inputs": [
        {
          "internalType": "address",
          "name": "",
          "type": "address"
        }
      ],
      "name": "localBorrowed",
      "outputs": [
        {
          "internalType": "uint256",
          "name": "",
          "type": "uint256"
        }
      ],
      "stateMutability": "view",
      "type": "function"
    },
    {
      "inputs": [
        {
          "internalType": "address",
          "name": "",
          "type": "address"
        }
      ],
      "name": "localRepaid",
      "outputs": [
        {
          "internalType": "uint256",
          "name": "",
          "type": "uint256"
        }
      ],
      "stateMutability": "view",
      "type": "function"
    },
    {
      "inputs": [],
      "name": "owner",
      "outputs": [
        {
          "internalType": "address",
          "name": "",
          "type": "address"
        }
      ],
      "stateMutability": "view",
      "type": "function"
    },
    {
      "inputs": [
        {
          "internalType": "uint256",
          "name": "amount",
          "type": "uint256"
        }
      ],
      "name": "repay",
      "outputs": [],
      "stateMutability": "nonpayable",
      "type": "function"
    },
    {
      "inputs": [
        {
          "internalType": "bool",
          "name": "enabled",
          "type": "bool"
        }
      ],
      "name": "toggleDIKE",
      "outputs": [],
      "stateMutability": "nonpayable",
      "type": "function"
    },
    {
      "inputs": [],
      "name": "useDIKE",
      "outputs": [
        {
          "internalType": "bool",
          "name": "",
          "type": "bool"
        }
      ],
      "stateMutability": "view",
      "type": "function"
    },
    {
      "stateMutability": "payable",
      "type": "receive"
    }
  ],
  "bytecode": "0x60806040523480156200001157600080fd5b5060405162000dd738038062000dd78339810160408190526200003491620000bc565b600080546001600160a01b03191633179055600162000054838262000233565b506001600160a01b038116156200008157600280546001600160a01b0319166001600160a01b0383161790555b5050620002ff565b634e487b7160e01b600052604160045260246000fd5b80516001600160a01b0381168114620000b757600080fd5b919050565b60008060408385031215620000d057600080fd5b82516001600160401b0380821115620000e857600080fd5b818501915085601f830112620000fd57600080fd5b81518181111562000112576200011262000089565b604051601f8201601f19908116603f011681019083821181831017156200013d576200013d62000089565b816040528281526020935088848487010111156200015a57600080fd5b600091505b828210156200017e57848201840151818301850152908301906200015f565b6000848483010152809650505050620001998186016200009f565b925050509250929050565b600181811c90821680620001b957607f821691505b602082108103620001da57634e487b7160e01b600052602260045260246000fd5b50919050565b601f8211156200022e57600081815260208120601f850160051c81016020861015620002095750805b601f850160051c820191505b818110156200022a5782815560010162000215565b5050505b505050565b81516001600160401b038111156200024f576200024f62000089565b6200026781620002608454620001a4565b84620001e0565b602080601f8311600181146200029f5760008415620002865750858301515b600019600386901b1c1916600185901b1785556200022a565b600085815260208120601f198616915b82811015620002d057888601518255948401946001909101908401620002af565b5085821015620002ef5787850151600019600388901b60f8161c191681555b5050505050600190811b01905550565b610ac8806200030f6000396000f3fe6080604052600436106100e15760003560e01c8063bf1417421161007f578063dd1dc32511610059578063dd1dc32514610262578063de8de85314610277578063ed81cf32146102a4578063f565540e146102c457600080fd5b8063bf141742146101fe578063c5ebeaec1461022f578063cb14c8851461024257600080fd5b806330980c05116100bb57806330980c051461016f578063371fd8e6146101845780638da5cb5b146101a65780638e0272cb146101de57600080fd5b8063179b6934146100ed5780631c93b03a146101205780632aafa16c1461014257600080fd5b366100e857005b600080fd5b3480156100f957600080fd5b5061010d6101083660046108cd565b6102f1565b6040519081526020015b60405180910390f35b34801561012c57600080fd5b5061013561031b565b60405161011791906108f7565b34801561014e57600080fd5b5061010d61015d366004610945565b60056020526000908152604090205481565b34801561017b57600080fd5b5061010d607881565b34801561019057600080fd5b506101a461019f366004610960565b6103a9565b005b3480156101b257600080fd5b506000546101c6906001600160a01b031681565b6040516001600160a01b039091168152602001610117565b3480156101ea57600080fd5b5061010d6101f9366004610945565b61051b565b34801561020a57600080fd5b5060025461021f90600160a01b900460ff1681565b6040519015158152602001610117565b6101a461023d366004610960565b610526565b34801561024e57600080fd5b506002546101c6906001600160a01b031681565b34801561026e57600080fd5b5061010d609681565b34801561028357600080fd5b5061010d610292366004610945565b60036020526000908152604090205481565b3480156102b057600080fd5b506101a46102bf366004610979565b6106f0565b3480156102d057600080fd5b5061010d6102df366004610945565b60046020526000908152604090205481565b600060646102fe846107dc565b61030890846109b8565b61031291906109cf565b90505b92915050565b60018054610328906109f1565b80601f0160208091040260200160405190810160405280929190818152602001828054610354906109f1565b80156103a15780601f10610376576101008083540402835291602001916103a1565b820191906000526020600020905b81548152906001019060200180831161038457829003601f168201915b505050505081565b336000908152600560205260409020546103fb5760405162461bcd60e51b815260206004820152600e60248201526d27379030b1ba34bb32903637b0b760911b60448201526064015b60405180910390fd5b3360009081526005602052604081205490818311610419578261041b565b815b3360009081526004602052604081208054929350839290919061043f908490610a2b565b909155505033600090815260056020526040812055600254600160a01b900460ff16801561047757506002546001600160a01b031615155b156104e157600254604051634000ec7160e11b8152336004820152602481018390526001600160a01b0390911690638001d8e290604401600060405180830381600087803b1580156104c857600080fd5b505af11580156104dc573d6000803e3d6000fd5b505050505b60405181815233907f5c16de4f8b59bd9caf0f49a545f25819a895ed223294290b408242e72a5942319060200160405180910390a2505050565b6000610315826107dc565b6000811161056b5760405162461bcd60e51b81526020600482015260126024820152710416d6f756e74206d757374206265203e20360741b60448201526064016103f2565b33600090815260056020526040902054156105c85760405162461bcd60e51b815260206004820152601960248201527f5265706179206578697374696e67206c6f616e2066697273740000000000000060448201526064016103f2565b60006105d3336107dc565b336000908152600360205260408120805492935084929091906105f7908490610a2b565b9091555050336000908152600560205260409020829055600254600160a01b900460ff16801561063157506002546001600160a01b031615155b1561069b5760025460405163baae45e160e01b8152336004820152602481018490526001600160a01b039091169063baae45e190604401600060405180830381600087803b15801561068257600080fd5b505af1158015610696573d6000803e3d6000fd5b505050505b6002546040805184815260208101849052600160a01b90920460ff1615159082015233907fdfab65eb42d201012949b64171c4cadb5bd01876f4331d83d083392208a25fd39060600160405180910390a25050565b6000546001600160a01b031633146107365760405162461bcd60e51b81526020600482015260096024820152682737ba1037bbb732b960b91b60448201526064016103f2565b6002546001600160a01b03166107845760405162461bcd60e51b8152602060048201526013602482015272111252d1481b9bdd0818dbdb999a59dd5c9959606a1b60448201526064016103f2565b60028054821515600160a01b0260ff60a01b199091161790556040517f12336b38416013ae6287c5c4daf50cfe48ca34607c50a4f20e96e9b3b6e7c888906107d190831515815260200190565b60405180910390a150565b600254600090600160a01b900460ff16158061080157506002546001600160a01b0316155b1561080e57506096919050565b60025460405163a016120b60e01b81526001600160a01b038481166004830152600092839291169063a016120b9060240160e060405180830381865afa15801561085c573d6000803e3d6000fd5b505050506040513d601f19601f820116820180604052508101906108809190610a3e565b50505093509350505060058110158015610898575081155b156108a7575060789392505050565b5060969392505050565b80356001600160a01b03811681146108c857600080fd5b919050565b600080604083850312156108e057600080fd5b6108e9836108b1565b946020939093013593505050565b600060208083528351808285015260005b8181101561092457858101830151858201604001528201610908565b506000604082860101526040601f19601f8301168501019250505092915050565b60006020828403121561095757600080fd5b610312826108b1565b60006020828403121561097257600080fd5b5035919050565b60006020828403121561098b57600080fd5b8135801515811461099b57600080fd5b9392505050565b634e487b7160e01b600052601160045260246000fd5b8082028115828204841417610315576103156109a2565b6000826109ec57634e487b7160e01b600052601260045260246000fd5b500490565b600181811c90821680610a0557607f821691505b602082108103610a2557634e487b7160e01b600052602260045260246000fd5b50919050565b80820180821115610315576103156109a2565b600080600080600080600060e0888a031215610a5957600080fd5b5050855160208701516040880151606089015160808a015160a08b015160c0909b0151949c939b5091999098509096509450909250905056fea2646970667358221220fe5608fa019c39bb01211a60ef8e32f449901d9e6c65f60a587cde999b21549864736f6c63430008140033",
  "linkReferences": {},
  "deployedLinkReferences": {}
}