{"contracts/DIKERegistry.sol":{"DIKERegistry":{"abi":[{"inputs":[{"internalType":"address","name":"initialOwner","type":"address"}],"stateMutability":"nonpayable","type":"constructor"},{"inputs":[{"internalType":"address","name":"sender","type":"address"},{"internalType":"uint256","name":"tokenId","type":"uint256"},{"internalType":"address","name":"owner","type":"address"}],"name":"ERC721IncorrectOwner","type":"error"},{"inputs":[{"internalType":"address","name":"operator","type":"address"},{"internalType":"uint256","name":"tokenId","type":"uint256"}],"name":"ERC721InsufficientApproval","type":"error"},{"inputs":[{"internalType":"address","name":"approver","type":"address"}],"name":"ERC721InvalidApprover","type":"error"},{"inputs":[{"internalType":"address","name":"operator","type":"address"}],"name":"ERC721InvalidOperator","type":"error"},{"inputs":[{"internalType":"address","name":"owner","type":"address"}],"name":"ERC721InvalidOwner","type":"error"},{"inputs":[{"internalType":"address","name":"receiver","type":"address"}],"name":"ERC721InvalidReceiver","type":"error"},{"inputs":[{"internalType":"address","name":"sender","type":"address"}],"name":"ERC721InvalidSender","type":"error"},{"inputs":[{"internalType":"uint256","name":"tokenId","type":"uint256"}],"name":"ERC721NonexistentToken","type":"error"},{"inputs":[{"internalType":"address","name":"owner","type":"address"}],"name":"OwnableInvalidOwner","type":"error"},{"inputs":[{"internalType":"address","name":"account","type":"address"}],"name":"OwnableUnauthorizedAccount","type":"error"},{"inputs":[{"internalType":"uint256","name":"value","type":"uint256"},{"internalType":"uint256","name":"length","type":"uint256"}],"name":"StringsInsufficientHexLength","type":"error"},{"anonymous":false,"inputs":[{"indexed":true,"internalType":"address","name":"owner","type":"address"},{"indexed":true,"internalType":"address","name":"approved","type":"address"},{"indexed":true,"internalType":"uint256","name":"tokenId","type":"uint256"}],"name":"Approval","type":"event"},{"anonymous":false,"inputs":[{"indexed":true,"internalType":"address","name":"owner","type":"address"},{"indexed":true,"internalType":"address","name":"operator","type":"address"},{"indexed":false,"internalType":"bool","name":"approved","type":"bool"}],"name":"ApprovalForAll","type":"event"},{"anonymous":false,"inputs":[{"indexed":true,"internalType":"uint256","name":"eventId","type":"uint256"},{"indexed":true,"internalType":"address","name":"subject","type":"address"},{"indexed":false,"internalType":"enum DIKERegistry.EventType","name":"eventType","type":"uint8"},{"indexed":false,"internalType":"uint256","name":"amount","type":"uint256"}],"name":"CreditEventRecorded","type":"event"},{"anonymous":false,"inputs":[{"indexed":true,"internalType":"address","name":"previousOwner","type":"address"},{"indexed":true,"internalType":"address","name":"newOwner","type":"address"}],"name":"OwnershipTransferred","type":"event"},{"anonymous":false,"inputs":[{"indexed":true,"internalType":"address","name":"from","type":"address"},{"indexed":true,"internalType":"address","name":"to","type":"address"},{"indexed":true,"internalType":"uint256","name":"tokenId","type":"uint256"}],"name":"Transfer","type":"event"},{"inputs":[{"internalType":"address","name":"to","type":"address"},{"internalType":"uint256","name":"tokenId","type":"uint256"}],"name":"approve","outputs":[],"stateMutability":"nonpayable","type":"function"},{"inputs":[{"internalType":"address","name":"owner","type":"address"}],"name":"balanceOf","outputs":[{"internalType":"uint256","name":"","type":"uint256"}],"stateMutability":"view","type":"function"},{"inputs":[{"internalType":"uint256","name":"","type":"uint256"}],"name":"creditEvents","outputs":[{"internalType":"address","name":"subject","type":"address"},{"internalType":"uint256","name":"amount","type":"uint256"},{"internalType":"uint256","name":"timestamp","type":"uint256"},{"internalType":"enum DIKERegistry.EventType","name":"eventType","type":"uint8"},{"internalType":"bytes32","name":"referenceHash","type":"bytes32"}],"stateMutability":"view","type":"function"},{"inputs":[{"internalType":"uint256","name":"tokenId","type":"uint256"}],"name":"getApproved","outputs":[{"internalType":"address","name":"","type":"address"}],"stateMutability":"view","type":"function"},{"inputs":[{"internalType":"uint256","name":"eventId","type":"uint256"}],"name":"getCreditEvent","outputs":[{"components":[{"internalType":"address","name":"subject","type":"address"},{"internalType":"uint256","name":"amount","type":"uint256"},{"internalType":"uint256","name":"timestamp","type":"uint256"},{"internalType":"enum DIKERegistry.EventType","name":"eventType","type":"uint8"},{"internalType":"bytes32","name":"referenceHash","type":"bytes32"}],"internalType":"struct DIKERegistry.CreditEvent","name":"","type":"tuple"}],"stateMutability":"view","type":"function"},{"inputs":[{"internalType":"address","name":"user","type":"address"}],"name":"getCreditSummary","outputs":[{"internalType":"uint256","name":"totalBorrowed","type":"uint256"},{"internalType":"uint256","name":"totalRepaid","type":"uint256"},{"internalType":"uint256","name":"defaults","type":"uint256"},{"internalType":"uint256","name":"onTimeRepayments","type":"uint256"},{"internalType":"uint256","name":"lateRepayments","type":"uint256"},{"internalType":"uint256","name":"totalEvents","type":"uint256"},{"internalType":"uint256","name":"onTimeRatio","type":"uint256"},{"internalType":"uint256","name":"defaultRate","type":"uint256"}],"stateMutability":"view","type":"function"},{"inputs":[{"internalType":"address","name":"user","type":"address"}],"name":"getOutstandingDebt","outputs":[{"internalType":"uint256","name":"","type":"uint256"}],"stateMutability":"view","type":"function"},{"inputs":[],"name":"getSystemMetrics","outputs":[{"internalType":"uint256","name":"borrowed","type":"uint256"},{"internalType":"uint256","name":"repaid","type":"uint256"},{"internalType":"uint256","name":"defaults","type":"uint256"}],"stateMutability":"view","type":"function"},{"inputs":[{"internalType":"address","name":"user","type":"address"}],"name":"getUserEvents","outputs":[{"internalType":"uint256[]","name":"","type":"uint256[]"}],"stateMutability":"view","type":"function"},{"inputs":[{"internalType":"address","name":"owner","type":"address"},{"internalType":"address","name":"operator","type":"address"}],"name":"isApprovedForAll","outputs":[{"internalType":"bool","name":"","type":"bool"}],"stateMutability":"view","type":"function"},{"inputs":[],"name":"name","outputs":[{"internalType":"string","name":"","type":"string"}],"stateMutability":"view","type":"function"},{"inputs":[],"name":"nextEventId","outputs":[{"internalType":"uint256","name":"","type":"uint256"}],"stateMutability":"view","type":"function"},{"inputs":[],"name":"owner","outputs":[{"internalType":"address","name":"","type":"address"}],"stateMutability":"view","type":"function"},{"inputs":[{"internalType":"uint256","name":"tokenId","type":"uint256"}],"name":"ownerOf","outputs":[{"internalType":"address","name":"","type":"address"}],"stateMutability":"view","type":"function"},{"inputs":[{"internalType":"address","name":"subject","type":"address"},{"internalType":"uint256","name":"amount","type":"uint256"},{"internalType":"enum DIKERegistry.EventType","name":"eventType","type":"uint8"},{"internalType":"bytes32","name":"referenceHash","type":"bytes32"}],"name":"recordEvent","outputs":[],"stateMutability":"nonpayable","type":"function"},{"inputs":[],"name":"renounceOwnership","outputs":[],"stateMutability":"nonpayable","type":"function"},{"inputs":[{"internalType":"address","name":"from","type":"address"},{"internalType":"address","name":"to","type":"address"},{"internalType":"uint256","name":"tokenId","type":"uint256"}],"name":"safeTransferFrom","outputs":[],"stateMutability":"nonpayable","type":"function"},{"inputs":[{"internalType":"address","name":"from","type":"address"},{"internalType":"address","name":"to","type":"address"},{"internalType":"uint256","name":"tokenId","type":"uint256"},{"internalType":"bytes","name":"data","type":"bytes"}],"name":"safeTransferFrom","outputs":[],"stateMutability":"nonpayable","type":"function"},{"inputs":[{"internalType":"address","name":"operator","type":"address"},{"internalType":"bool","name":"approved","type":"bool"}],"name":"setApprovalForAll","outputs":[],"stateMutability":"nonpayable","type":"function"},{"inputs":[{"internalType":"bytes4","name":"interfaceId","type":"bytes4"}],"name":"supportsInterface","outputs":[{"internalType":"bool","name":"","type":"bool"}],"stateMutability":"view","type":"function"},{"inputs":[],"name":"symbol","outputs":[{"internalType":"string","name":"","type":"string"}],"stateMutability":"view","type":"function"},{"inputs":[{"internalType":"uint256","name":"tokenId","type":"uint256"}],"name":"tokenURI","outputs":[{"internalType":"string","name":"","type":"string"}],"stateMutability":"view","type":"function"},{"inputs":[],"name":"totalSystemBorrowed","outputs":[{"internalType":"uint256","name":"","type":"uint256"}],"stateMutability":"view","type":"function"},{"inputs":[],"name":"totalSystemDefaults","outputs":[{"internalType":"uint256","name":"","type":"uint256"}],"stateMutability":"view","type":"function"},{"inputs":[],"name":"totalSystemRepaid","outputs":[{"internalType":"uint256","name":"","type":"uint256"}],"stateMutability":"view","type":"function"},{"inputs":[{"internalType":"address","name":"from","type":"address"},{"internalType":"address","name":"to","type":"address"},{"internalType":"uint256","name":"tokenId","type":"uint256"}],"name":"transferFrom","outputs":[],"stateMutability":"nonpayable","type":"function"},{"inputs":[{"internalType":"address","name":"newOwner","type":"address"}],"name":"transferOwnership","outputs":[],"stateMutability":"nonpayable","type":"function"},{"inputs":[{"internalType":"bytes32","name":"","type":"bytes32"}],"name":"usedReferences","outputs":[{"internalType":"bool","name":"","type":"bool"}],"stateMutability":"view","type":"function"},{"inputs":[{"internalType":"address","name":"","type":"address"}],"name":"userTotals","outputs":[{"internalType":"uint256","name":"totalBorrowed","type":"uint256"},{"internalType":"uint256","name":"totalRepaid","type":"uint256"},{"internalType":"uint256","name":"defaults","type":"uint256"},{"internalType":"uint256","name":"onTimeRepayments","type":"uint256"},{"internalType":"uint256","name":"lateRepayments","type":"uint256"},{"internalType":"uint256","name":"totalEvents","type":"uint256"}],"stateMutability":"view","type":"function"}],"evm":{"bytecode":{"linkReferences":{},"object":"608034620003b9576001600160401b0390601f90601f19906200245c388190038481018416830186811184821017620003be57839282916040528339602092839181010312620003b957516001600160a01b03948582169491859003620003b9576200006a620003d4565b916011835270111252d14810dc99591a5d08115d995b9d607a1b8484015262000092620003d4565b6004948582526344494b4560e01b81830152845196848811620003a4576000978854966001978881811c9116801562000399575b85821014620003865790818784931162000333575b508490878311600114620002d2578b92620002c6575b5050600019600383901b1c191690871b1788555b8251948511620002b35785548681811c91168015620002a8575b8382101462000295579081858796959493116200023c575b5081938511600114620001d75750508692620001cb575b5050600019600383901b1c191690821b1790555b8215620001b55750600680546001600160a01b0319811684179091556040519316907f8be0079c531659141344cd1fd0a4f28419497f9722a3daafe3b4186f6b6457e09080a36120679081620003f58239f35b60249160405191631e4fbdf760e01b8352820152fd5b0151905038806200014e565b869593929193168589528389209389905b82821062000222575050841162000208575b505050811b01905562000162565b015160001960f88460031b161c19169055388080620001fa565b8484015186558897909501949384019390810190620001e8565b9091929394508689528289208580880160051c8201928589106200028b575b9188978a9297969594930160051c01915b8281106200027c57505062000137565b8b81558897508991016200026c565b925081926200025b565b634e487b7160e01b895260228852602489fd5b90607f16906200011f565b634e487b7160e01b885260418752602488fd5b015190503880620000f1565b90848a9416918c8052868d20928d5b888282106200031c575050841162000302575b505050811b01885562000105565b015160001960f88460031b161c19169055388080620002f4565b8385015186558d97909501949384019301620002e1565b9091508a8052848b208780850160051c8201928786106200037c575b918b91869594930160051c01915b8281106200036d575050620000db565b8d81558594508b91016200035d565b925081926200034f565b634e487b7160e01b8b5260228a5260248bfd5b90607f1690620000c6565b604187634e487b7160e01b6000525260246000fd5b600080fd5b634e487b7160e01b600052604160045260246000fd5b60408051919082016001600160401b03811183821017620003be5760405256fe608080604052600436101561001357600080fd5b60003560e01c9081627450fd146115d75750806301ffc9a71461156957806306fdde03146114aa578063081812fc1461146c578063095ea7b3146113855780630bab0dcf14611367578063171e5ba2146112b35780631ea6cabc1461128857806323b872dd14611271578063385c9e7d1461120057806342842e0e146111d85780636352211e146111a85780636cfccc2f146111795780636d8407831461114857806370a08231146110ef578063715018a6146110925780637bb0da56146110745780638da5cb5b1461104b57806395d89b4114610f545780639f9d903a14610f36578063a016120b14610ea7578063a22cb46514610e02578063b88d4fde14610d77578063c4092912146108f0578063c87b56dd146102ce578063d6d1c37914610264578063e36521af14610246578063e985e9c5146101f05763f2fde38b1461015d57600080fd5b346101eb5760203660031901126101eb57610176611739565b61017e61182c565b6001600160a01b039081169081156101d257600654826bffffffffffffffffffffffff60a01b821617600655167f8be0079c531659141344cd1fd0a4f28419497f9722a3daafe3b4186f6b6457e0600080a3005b604051631e4fbdf760e01b815260006004820152602490fd5b600080fd5b346101eb5760403660031901126101eb57610209611739565b61021161174f565b9060018060a01b03809116600052600560205260406000209116600052602052602060ff604060002054166040519015158152f35b346101eb5760003660031901126101eb576020600c54604051908152f35b346101eb5760203660031901126101eb57600435600052600860205260a06040600020600180831b03815416906102c76001820154916002810154600460ff600384015416920154936040519586526020860152604085015260608401906116e4565b6080820152f35b346101eb576020806003193601126101eb5760043560008181526002835260409020546001600160a01b0391908216156108b75780600052600883526040600020906040519161031d8361179a565b838154168352600191828201549186850192835260028101549560408601968752610369600460ff6003850154169361035a60608a019586611b96565b01549360808801948552611cf9565b955116958660405194606086019867ffffffffffffffff998781108b82111761079c57604052602a87528a870192604036853787511561082a5760308453875189101561082a576078602189015360295b898111610875575061085657506103d19051611cf9565b92516004811015610840576103e86103ef91611e4d565b9251611cf9565b9351948560405196608088018881108c82111761079c57604052604288528b8801986060368b3788511561082a5760308a53885181101561082a57607860218a01536041905b8082116107d05750506107b2575061049a97946106c397948b946101659894611f4b60f21b94610544603d6040519e8f809d7f7b226e616d65223a202244494b4520437265646974204576656e7420230000008d8301528c81519485930191016116f1565b61088b60f21b603d918d01918201527f226465736372697074696f6e223a20224f6e2d636861696e2076657269666961603f82015271189b194818dc99591a5d08195d995b9d088b60721b605f8201526e2261747472696275746573223a205b60881b60718201527f7b2274726169745f74797065223a20225375626a656374222c202276616c7565608082015263111d101160e11b60a0820152915192839060a48401906116f1565b019162089f4b60ea1b928360a48201527f7b2274726169745f74797065223a2022416d6f756e74222c202276616c75652260a7820152621d101160e91b60c7820152610599825180938a60ca850191016116f1565b018260ca8201527f7b2274726169745f74797065223a20224576656e742054797065222c2022766160cd82015266363ab2911d101160c91b60ed8201526105e9825180938960f4850191016116f1565b019060f48201527f7b2274726169745f74797065223a202254696d657374616d70222c202264697360f78201527f706c61795f74797065223a202264617465222c202276616c7565223a20000000610117820152610652825180936101349788850191016116f1565b01928301527f7b2274726169745f74797065223a20225265666572656e63652048617368222c6101368301526a10113b30b63ab2911d101160a91b61015683015251906106a68261016194858401906116f1565b019063227d5d7d60e01b90820152036101458101845201826117ee565b6040519060608201928284109084111761079c5761073292604052604082527f4142434445464748494a4b4c4d4e4f505152535455565758595a616263646566848301527f6768696a6b6c6d6e6f707172737475767778797a303132333435363738392b2f6040830152611c01565b90610784603d60405180947f646174613a6170706c69636174696f6e2f6a736f6e3b6261736536342c00000085830152610774815180928786860191016116f1565b810103601d8101855201836117ee565b610798604051928284938452830190611714565b0390f35b634e487b7160e01b600052604160045260246000fd5b6044908b6040519163e22e27eb60e01b835260048301526024820152fd5b9091600f8116601081101561082a576f181899199a1a9b1b9c1cb0b131b232b360811b901a6107ff848c611e3c565b5360041c918015610814576000190190610435565b634e487b7160e01b600052601160045260246000fd5b634e487b7160e01b600052603260045260246000fd5b634e487b7160e01b600052602160045260246000fd5b6044906040519063e22e27eb60e01b8252600482015260146024820152fd5b90600f8116601081101561082a576f181899199a1a9b1b9c1cb0b131b232b360811b901a6108a3838b611e3c565b5360041c90801561081457600019016103ba565b60405162461bcd60e51b81526004810184905260116024820152702737b732bc34b9ba32b73a103a37b5b2b760791b6044820152606490fd5b346101eb5760803660031901126101eb57610909611739565b600460443510156101eb5760643561091f61182c565b6001600160a01b03821615610d325760243515610cee5780600052600960205260ff60406000205416610cb3578060005260096020526040600020600160ff198254161790556007549061097282611b87565b6007556040516109818161179a565b60018060a01b0384168152602081019160243583526040820142815260608301916109ae60443584611b96565b60808401526000858152600860205260409020835181546001600160a01b0319166001600160a01b03919091161781559351600185015551600284015551600481101561084057600491608091600385019060ff80198354169116179055015191015560018060a01b038216600052600a602052604060002080546801000000000000000081101561079c576001810180835581101561082a5782916000526020600020015560018060a01b038216600052600b602052604060002060058101610a788154611b87565b90556000604435159182600014610c3157610a966024358254611ba2565b90555b6108405715610bd657610ab0602435600c54611ba2565b600c555b6000818152600260205260409020546001600160a01b031680151590829082610b9f575b6001600160a01b0385166000818152600360209081526040808320805460010190558583526002909152812080546001600160a01b031916831790559091907fddf252ad1be2c89b69c2b068fc378daa952ba7f163c4a11628f55a4df523b3ef9080a4610b86577f12a91909a67c92cc45d4bbdef832b9966d2736cf5b0a088ae1c81f58ad26c3096040805193610b71856044356116e4565b60243560208601526001600160a01b031693a3005b6040516339e3563760e11b815260006004820152602490fd5b600082815260046020526040902080546001600160a01b031916905580600052600360205260406000206000198154019055610ad8565b60006001604435148015610c22575b15610c015750610bf9602435600d54611ba2565b600d55610ab4565b61084057600360443503610ab457610c1a600e54611b87565b600e55610ab4565b50506000600260443514610be5565b60009150604435600103610c675780600160039201610c536024358254611ba2565b905501610c608154611b87565b9055610a99565b60009150604435600203610c895780600160049201610c536024358254611ba2565b60009150604435600314610c9e575b50610a99565b600201610cab8154611b87565b905584610c98565b60405162461bcd60e51b81526020600482015260136024820152724475706c6963617465207265666572656e636560681b6044820152606490fd5b606460405162461bcd60e51b815260206004820152602060248201527f416d6f756e74206d757374206265207374726963746c7920706f7369746976656044820152fd5b60405162461bcd60e51b815260206004820152601d60248201527f496e76616c6964207375626a6563743a207a65726f20616464726573730000006044820152606490fd5b346101eb5760803660031901126101eb57610d90611739565b610d9861174f565b6064359167ffffffffffffffff83116101eb57366023840112156101eb57826004013591610dc583611810565b92610dd360405194856117ee565b80845236602482870101116101eb576020816000926024610e0098018388013785010152604435916119f7565b005b346101eb5760403660031901126101eb57610e1b611739565b602435908115158092036101eb576001600160a01b0316908115610e8e57336000526005602052604060002082600052602052604060002060ff1981541660ff83161790556040519081527f17307eab39ab6107e8899845ad3d59bd9653f200f220920489ca2b5937696c3160203392a3005b604051630b61174360e31b815260048101839052602490fd5b346101eb5760203660031901126101eb57610100610ec3611739565b60018060a01b038116600052600b602052604060002080549160018201549160028101549060038101546005600483015492015492610f0a610f0486611f2d565b95611fad565b95604051978852602088015260408701526060860152608085015260a084015260c083015260e0820152f35b346101eb5760003660031901126101eb576020600754604051908152f35b346101eb5760003660031901126101eb57604051600060019081549182811c91818416918215611041575b602094858510841461102b57858794868652918260001461100b575050600114610fb1575b50610784925003836117ee565b6000818152859250907fb10e2d527612073b26eecdfd717e6a320cf44b4afac2b0732d9fcbe2b7fa0cf65b858310610ff3575050610784935082010185610fa4565b80548389018501528794508693909201918101610fdc565b60ff19168582015261078495151560051b8501019250879150610fa49050565b634e487b7160e01b600052602260045260246000fd5b92607f1692610f7f565b346101eb5760003660031901126101eb576006546040516001600160a01b039091168152602090f35b346101eb5760003660031901126101eb576020600d54604051908152f35b346101eb5760003660031901126101eb576110ab61182c565b600680546001600160a01b031981169091556000906001600160a01b03167f8be0079c531659141344cd1fd0a4f28419497f9722a3daafe3b4186f6b6457e08280a3005b346101eb5760203660031901126101eb576001600160a01b03611110611739565b16801561112f5760005260036020526020604060002054604051908152f35b6040516322718ad960e21b815260006004820152602490fd5b346101eb5760203660031901126101eb576004356000526009602052602060ff604060002054166040519015158152f35b346101eb5760003660031901126101eb576060600c54600d54600e549060405192835260208301526040820152f35b346101eb5760203660031901126101eb5760206111c6600435611b4c565b6040516001600160a01b039091168152f35b346101eb57610e006111e936611765565b90604051926111f7846117b6565b600084526119f7565b346101eb5760203660031901126101eb576001600160a01b03611221611739565b16600052600b60205260c0604060002080549060018101549060028101546003820154906005600484015493015493604051958652602086015260408501526060840152608083015260a0820152f35b346101eb57610e0061128236611765565b91611858565b346101eb5760203660031901126101eb5760206112ab6112a6611739565b611fff565b604051908152f35b346101eb576020806003193601126101eb576001600160a01b036112d5611739565b16600052600a8152604060002060405190818382549182815201908192600052846000209060005b86828210611353578686611313828803836117ee565b604051928392818401908285525180915260408401929160005b82811061133c57505050500390f35b83518552869550938101939281019260010161132d565b8354855290930192600192830192016112fd565b346101eb5760003660031901126101eb576020600e54604051908152f35b346101eb5760403660031901126101eb5761139e611739565b6024356113aa81611b4c565b33151580611459575b8061142c575b611414576001600160a01b039283169282918491167f8c5be1e5ebec7d5bd14f71427d1e84f3dd0314c0f7b2291e5b200ac8c7c3b925600080a4600090815260046020526040902080546001600160a01b0319169091179055005b60405163a9fbf51f60e01b8152336004820152602490fd5b5060018060a01b038116600052600560205260406000203360005260205260ff60406000205416156113b9565b506001600160a01b0381163314156113b3565b346101eb5760203660031901126101eb5760043561148981611b4c565b506000526004602052602060018060a01b0360406000205416604051908152f35b346101eb5760003660031901126101eb576040516000805490600182811c9181841691821561155f575b602094858510841461102b57858794868652918260001461100b5750506001146115055750610784925003836117ee565b6000808052859250907f290decd9548b62a8d60345a988386fc84ba6bc95484008f6362f93160ef3e5635b858310611547575050610784935082010185610fa4565b80548389018501528794508693909201918101611530565b92607f16926114d4565b346101eb5760203660031901126101eb5760043563ffffffff60e01b81168091036101eb576020906380ac58cd60e01b81149081156115c6575b81156115b5575b506040519015158152f35b6301ffc9a760e01b149050826115aa565b635b5e139f60e01b811491506115a3565b346101eb576020806003193601126101eb5760006080600435936115fa8161179a565b828152828482015282604082015282606082015201526007548210156116a95760a091600052600881526040600020906116a16040519261163a8461179a565b600180861b039283825416855260018201549080860191825260028301549160408701928352600460ff6003860154169461167960608a019687611b96565b01549560808801968752604051975116875251908601525160408501525160608401906116e4565b516080820152f35b6064906040519062461bcd60e51b825260048201526014602482015273115d995b9d08191bd95cc81b9bdd08195e1a5cdd60621b6044820152fd5b9060048210156108405752565b60005b8381106117045750506000910152565b81810151838201526020016116f4565b9060209161172d815180928185528580860191016116f1565b601f01601f1916010190565b600435906001600160a01b03821682036101eb57565b602435906001600160a01b03821682036101eb57565b60609060031901126101eb576001600160a01b039060043582811681036101eb579160243590811681036101eb579060443590565b60a0810190811067ffffffffffffffff82111761079c57604052565b6020810190811067ffffffffffffffff82111761079c57604052565b6040810190811067ffffffffffffffff82111761079c57604052565b90601f8019910116810190811067ffffffffffffffff82111761079c57604052565b67ffffffffffffffff811161079c57601f01601f191660200190565b6006546001600160a01b0316330361184057565b60405163118cdaa760e01b8152336004820152602490fd5b6001600160a01b0391821692909183156119de57600092828452826020956002875260409684888820541696879133151580611948575b509060027fddf252ad1be2c89b69c2b068fc378daa952ba7f163c4a11628f55a4df523b3ef9284611915575b858352600381528b8320805460010190558683525289812080546001600160a01b0319168517905580a416928383036118f45750505050565b6064945051926364283d7b60e01b8452600484015260248301526044820152fd5b600087815260046020526040902080546001600160a01b0319169055848352600381528b832080546000190190556118bb565b9193945091508061199d575b156119645785929187913861188f565b878688611981576024915190637e27328960e01b82526004820152fd5b604491519063177e802f60e01b82523360048301526024820152fd5b5033871480156119c2575b806119545750858252600481523385898420541614611954565b5086825260058152878220338352815260ff88832054166119a8565b604051633250574960e11b815260006004820152602490fd5b929092611a05838583611858565b833b611a12575b50505050565b604051630a85bd0160e11b8082523360048301526001600160a01b0392831660248301526044820194909452608060648201529493169260209290918590611a5e906084830190611714565b039483816000978189895af1869181611b08575b50611ad3575050503d600014611aca573d611a8c81611810565b90611a9a60405192836117ee565b81528093823d92013e5b82519283611ac557604051633250574960e11b815260048101849052602490fd5b019050fd5b60609250611aa4565b919450915063ffffffff60e01b1603611af0575038808080611a0c565b60249060405190633250574960e11b82526004820152fd5b9091508481813d8311611b45575b611b2081836117ee565b81010312611b4157516001600160e01b031981168103611b41579038611a72565b8680fd5b503d611b16565b6000818152600260205260409020546001600160a01b0316908115611b6f575090565b60249060405190637e27328960e01b82526004820152fd5b60001981146108145760010190565b60048210156108405752565b9190820180921161081457565b8115611bb9570490565b634e487b7160e01b600052601260045260246000fd5b90611bd982611810565b611be660405191826117ee565b8281528092611bf7601f1991611810565b0190602036910137565b805115611ce4578051600291828201809211610814576003918290046001600160fe1b038116810361081457611c3a908495941b611bcf565b936020850193829183518401906020820192835194600085525b838110611c93575050505052510680600114611c8057600214611c75575090565b603d90600019015390565b50603d9081600019820153600119015390565b87600491999293949901918251600190603f9082828260121c16880101518453828282600c1c16880101518385015382828260061c1688010151888501531685010151898201530197929190611c54565b5050604051611cf2816117b6565b6000815290565b806000917a184f03e93ff9f4daa797ed6e38ed64bf6a1f01000000000000000080821015611e2e575b506d04ee2d6d415b85acef810000000080831015611e1f575b50662386f26fc1000080831015611e10575b506305f5e10080831015611e01575b5061271080831015611df2575b506064821015611de2575b600a80921015611dd8575b600190816021611d90828701611bcf565b95860101905b611da2575b5050505090565b600019019083906f181899199a1a9b1b9c1cb0b131b232b360811b8282061a835304918215611dd357919082611d96565b611d9b565b9160010191611d7f565b9190606460029104910191611d74565b60049193920491019138611d69565b60089193920491019138611d5c565b60109193920491019138611d4d565b60209193920491019138611d3b565b604093508104915038611d22565b90815181101561082a570160200190565b6004811015610840578015611f0a5760018114611ee05760028114611eb957600314611e9657604051611e7f816117d2565b60078152662aa725a727aba760c91b602082015290565b604051611ea2816117d2565b60078152661111519055531560ca1b602082015290565b50604051611ec6816117d2565b600a81526952455041595f4c41544560b01b602082015290565b50604051611eed816117d2565b600d81526c52455041595f4f4e5f54494d4560981b602082015290565b50604051611f17816117d2565b6006815265424f52524f5760d01b602082015290565b6001600160a01b03166000908152600b60205260408120600181015491929115611faa57611f646004600383015492015482611ba2565b9081611f6e575050565b670de0b6b3a764000090818102918183041490151715611f9657611f93929350611baf565b90565b634e487b7160e01b84526011600452602484fd5b50565b6001600160a01b03166000908152600b602052604090206005810154908115611ff8576002015490670de0b6b3a76400009182810292818404149015171561081457611f9391611baf565b5050600090565b6001600160a01b03166000908152600b602052604090206001810154905490818111611ff8578103908111610814579056fea2646970667358221220bd3e142ce88500b280106a0e69fab48bf5563ab8e94fc96105a20e5376c7895d64736f6c63430008140033","opcodes":"PUSH1 0x80 CALLVALUE PUSH3 0x3B9 JUMPI PUSH1 0x1 PUSH1 0x1 PUSH1 0x40 SHL SUB SWAP1 PUSH1 0x1F SWAP1 PUSH1 0x1F NOT SWAP1 PUSH3 0x245C CODESIZE DUP2 SWAP1 SUB DUP5 DUP2 ADD DUP5 AND DUP4 ADD DUP7 DUP2 GT DUP5 DUP3 LT OR PUSH3 0x3BE JUMPI DUP4 SWAP3 DUP3 SWAP2 PUSH1 0x40 MSTORE DUP4 CODECOPY PUSH1 0x20 SWAP3 DUP4 SWAP2 DUP2 ADD SUB SLT PUSH3 0x3B9 JUMPI MLOAD PUSH1 0x1 PUSH1 0x1 PUSH1 0xA0 SHL SUB SWAP5 DUP6 DUP3 AND SWAP5 SWAP2 DUP6 SWAP1 SUB PUSH3 0x3B9 JUMPI PUSH3 0x6A PUSH3 0x3D4 JUMP JUMPDEST SWAP2 PUSH1 0x11 DUP4 MSTORE PUSH17 0x111252D14810DC99591A5D08115D995B9D PUSH1 0x7A SHL DUP5 DUP5 ADD MSTORE PUSH3 0x92 PUSH3 0x3D4 JUMP JUMPDEST PUSH1 0x4 SWAP5 DUP6 DUP3 MSTORE PUSH4 0x44494B45 PUSH1 0xE0 SHL DUP2 DUP4 ADD MSTORE DUP5 MLOAD SWAP7 DUP5 DUP9 GT PUSH3 0x3A4 JUMPI PUSH1 0x0 SWAP8 DUP9 SLOAD SWAP7 PUSH1 0x1 SWAP8 DUP9 DUP2 DUP2 SHR SWAP2 AND DUP1 ISZERO PUSH3 0x399 JUMPI JUMPDEST DUP6 DUP3 LT EQ PUSH3 0x386 JUMPI SWAP1 DUP2 DUP8 DUP5 SWAP4 GT PUSH3 0x333 JUMPI JUMPDEST POP DUP5 SWAP1 DUP8 DUP4 GT PUSH1 0x1 EQ PUSH3 0x2D2 JUMPI DUP12 SWAP3 PUSH3 0x2C6 JUMPI JUMPDEST POP POP PUSH1 0x0 NOT PUSH1 0x3 DUP4 SWAP1 SHL SHR NOT AND SWAP1 DUP8 SHL OR DUP9 SSTORE JUMPDEST DUP3 MLOAD SWAP5 DUP6 GT PUSH3 0x2B3 JUMPI DUP6 SLOAD DUP7 DUP2 DUP2 SHR SWAP2 AND DUP1 ISZERO PUSH3 0x2A8 JUMPI JUMPDEST DUP4 DUP3 LT EQ PUSH3 0x295 JUMPI SWAP1 DUP2 DUP6 DUP8 SWAP7 SWAP6 SWAP5 SWAP4 GT PUSH3 0x23C JUMPI JUMPDEST POP DUP2 SWAP4 DUP6 GT PUSH1 0x1 EQ PUSH3 0x1D7 JUMPI POP POP DUP7 SWAP3 PUSH3 0x1CB JUMPI JUMPDEST POP POP PUSH1 0x0 NOT PUSH1 0x3 DUP4 SWAP1 SHL SHR NOT AND SWAP1 DUP3 SHL OR SWAP1 SSTORE JUMPDEST DUP3 ISZERO PUSH3 0x1B5 JUMPI POP PUSH1 0x6 DUP1 SLOAD PUSH1 0x1 PUSH1 0x1 PUSH1 0xA0 SHL SUB NOT DUP2 AND DUP5 OR SWAP1 SWAP2 SSTORE PUSH1 0x40 MLOAD SWAP4 AND SWAP1 PUSH32 0x8BE0079C531659141344CD1FD0A4F28419497F9722A3DAAFE3B4186F6B6457E0 SWAP1 DUP1 LOG3 PUSH2 0x2067 SWAP1 DUP2 PUSH3 0x3F5 DUP3 CODECOPY RETURN JUMPDEST PUSH1 0x24 SWAP2 PUSH1 0x40 MLOAD SWAP2 PUSH4 0x1E4FBDF7 PUSH1 0xE0 SHL DUP4 MSTORE DUP3 ADD MSTORE REVERT JUMPDEST ADD MLOAD SWAP1 POP CODESIZE DUP1 PUSH3 0x14E JUMP JUMPDEST DUP7 SWAP6 SWAP4 SWAP3 SWAP2 SWAP4 AND DUP6 DUP10 MSTORE DUP4 DUP10 KECCAK256 SWAP4 DUP10 SWAP1 JUMPDEST DUP3 DUP3 LT PUSH3 0x222 JUMPI POP POP DUP5 GT PUSH3 0x208 JUMPI JUMPDEST POP POP POP DUP2 SHL ADD SWAP1 SSTORE PUSH3 0x162 JUMP JUMPDEST ADD MLOAD PUSH1 0x0 NOT PUSH1 0xF8 DUP5 PUSH1 0x3 SHL AND SHR NOT AND SWAP1 SSTORE CODESIZE DUP1 DUP1 PUSH3 0x1FA JUMP JUMPDEST DUP5 DUP5 ADD MLOAD DUP7 SSTORE DUP9 SWAP8 SWAP1 SWAP6 ADD SWAP5 SWAP4 DUP5 ADD SWAP4 SWAP1 DUP2 ADD SWAP1 PUSH3 0x1E8 JUMP JUMPDEST SWAP1 SWAP2 SWAP3 SWAP4 SWAP5 POP DUP7 DUP10 MSTORE DUP3 DUP10 KECCAK256 DUP6 DUP1 DUP9 ADD PUSH1 0x5 SHR DUP3 ADD SWAP3 DUP6 DUP10 LT PUSH3 0x28B JUMPI JUMPDEST SWAP2 DUP9 SWAP8 DUP11 SWAP3 SWAP8 SWAP7 SWAP6 SWAP5 SWAP4 ADD PUSH1 0x5 SHR ADD SWAP2 JUMPDEST DUP3 DUP2 LT PUSH3 0x27C JUMPI POP POP PUSH3 0x137 JUMP JUMPDEST DUP12 DUP2 SSTORE DUP9 SWAP8 POP DUP10 SWAP2 ADD PUSH3 0x26C JUMP JUMPDEST SWAP3 POP DUP2 SWAP3 PUSH3 0x25B JUMP JUMPDEST PUSH4 0x4E487B71 PUSH1 0xE0 SHL DUP10 MSTORE PUSH1 0x22 DUP9 MSTORE PUSH1 0x24 DUP10 REVERT JUMPDEST SWAP1 PUSH1 0x7F AND SWAP1 PUSH3 0x11F JUMP JUMPDEST PUSH4 0x4E487B71 PUSH1 0xE0 SHL DUP9 MSTORE PUSH1 0x41 DUP8 MSTORE PUSH1 0x24 DUP9 REVERT JUMPDEST ADD MLOAD SWAP1 POP CODESIZE DUP1 PUSH3 0xF1 JUMP JUMPDEST SWAP1 DUP5 DUP11 SWAP5 AND SWAP2 DUP13 DUP1 MSTORE DUP7 DUP14 KECCAK256 SWAP3 DUP14 JUMPDEST DUP9 DUP3 DUP3 LT PUSH3 0x31C JUMPI POP POP DUP5 GT PUSH3 0x302 JUMPI JUMPDEST POP POP POP DUP2 SHL ADD DUP9 SSTORE PUSH3 0x105 JUMP JUMPDEST ADD MLOAD PUSH1 0x0 NOT PUSH1 0xF8 DUP5 PUSH1 0x3 SHL AND SHR NOT AND SWAP1 SSTORE CODESIZE DUP1 DUP1 PUSH3 0x2F4 JUMP JUMPDEST DUP4 DUP6 ADD MLOAD DUP7 SSTORE DUP14 SWAP8 SWAP1 SWAP6 ADD SWAP5 SWAP4 DUP5 ADD SWAP4 ADD PUSH3 0x2E1 JUMP JUMPDEST SWAP1 SWAP2 POP DUP11 DUP1 MSTORE DUP5 DUP12 KECCAK256 DUP8 DUP1 DUP6 ADD PUSH1 0x5 SHR DUP3 ADD SWAP3 DUP8 DUP7 LT PUSH3 0x37C JUMPI JUMPDEST SWAP2 DUP12 SWAP2 DUP7 SWAP6 SWAP5 SWAP4 ADD PUSH1 0x5 SHR ADD SWAP2 JUMPDEST DUP3 DUP2 LT PUSH3 0x36D JUMPI POP POP PUSH3 0xDB JUMP JUMPDEST DUP14 DUP2 SSTORE DUP6 SWAP5 POP DUP12 SWAP2 ADD PUSH3 0x35D JUMP JUMPDEST SWAP3 POP DUP2 SWAP3 PUSH3 0x34F JUMP JUMPDEST PUSH4 0x4E487B71 PUSH1 0xE0 SHL DUP12 MSTORE PUSH1 0x22 DUP11 MSTORE PUSH1 0x24 DUP12 REVERT JUMPDEST SWAP1 PUSH1 0x7F AND SWAP1 PUSH3 0xC6 JUMP JUMPDEST PUSH1 0x41 DUP8 PUSH4 0x4E487B71 PUSH1 0xE0 SHL PUSH1 0x0 MSTORE MSTORE PUSH1 0x24 PUSH1 0x0 REVERT JUMPDEST PUSH1 0x0 DUP1 REVERT JUMPDEST PUSH4 0x4E487B71 PUSH1 0xE0 SHL PUSH1 0x0 MSTORE PUSH1 0x41 PUSH1 0x4 MSTORE PUSH1 0x24 PUSH1 0x0 REVERT JUMPDEST PUSH1 0x40 DUP1 MLOAD SWAP2 SWAP1 DUP3 ADD PUSH1 0x1 PUSH1 0x1 PUSH1 0x40 SHL SUB DUP2 GT DUP4 DUP3 LT OR PUSH3 0x3BE JUMPI PUSH1 0x40 MSTORE JUMP INVALID PUSH1 0x80 DUP1 PUSH1 0x40 MSTORE PUSH1 0x4 CALLDATASIZE LT ISZERO PUSH2 0x13 JUMPI PUSH1 0x0 DUP1 REVERT JUMPDEST PUSH1 0x0 CALLDATALOAD PUSH1 0xE0 SHR SWAP1 DUP2 PUSH3 0x7450FD EQ PUSH2 0x15D7 JUMPI POP DUP1 PUSH4 0x1FFC9A7 EQ PUSH2 0x1569 JUMPI DUP1 PUSH4 0x6FDDE03 EQ PUSH2 0x14AA JUMPI DUP1 PUSH4 0x81812FC EQ PUSH2 0x146C JUMPI DUP1 PUSH4 0x95EA7B3 EQ PUSH2 0x1385 JUMPI DUP1 PUSH4 0xBAB0DCF EQ PUSH2 0x1367 JUMPI DUP1 PUSH4 0x171E5BA2 EQ PUSH2 0x12B3 JUMPI DUP1 PUSH4 0x1EA6CABC EQ PUSH2 0x1288 JUMPI DUP1 PUSH4 0x23B872DD EQ PUSH2 0x1271 JUMPI DUP1 PUSH4 0x385C9E7D EQ PUSH2 0x1200 JUMPI DUP1 PUSH4 0x42842E0E EQ PUSH2 0x11D8 JUMPI DUP1 PUSH4 0x6352211E EQ PUSH2 0x11A8 JUMPI DUP1 PUSH4 0x6CFCCC2F EQ PUSH2 0x1179 JUMPI DUP1 PUSH4 0x6D840783 EQ PUSH2 0x1148 JUMPI DUP1 PUSH4 0x70A08231 EQ PUSH2 0x10EF JUMPI DUP1 PUSH4 0x715018A6 EQ PUSH2 0x1092 JUMPI DUP1 PUSH4 0x7BB0DA56 EQ PUSH2 0x1074 JUMPI DUP1 PUSH4 0x8DA5CB5B EQ PUSH2 0x104B JUMPI DUP1 PUSH4 0x95D89B41 EQ PUSH2 0xF54 JUMPI DUP1 PUSH4 0x9F9D903A EQ PUSH2 0xF36 JUMPI DUP1 PUSH4 0xA016120B EQ PUSH2 0xEA7 JUMPI DUP1 PUSH4 0xA22CB465 EQ PUSH2 0xE02 JUMPI DUP1 PUSH4 0xB88D4FDE EQ PUSH2 0xD77 JUMPI DUP1 PUSH4 0xC4092912 EQ PUSH2 0x8F0 JUMPI DUP1 PUSH4 0xC87B56DD EQ PUSH2 0x2CE JUMPI DUP1 PUSH4 0xD6D1C379 EQ PUSH2 0x264 JUMPI DUP1 PUSH4 0xE36521AF EQ PUSH2 0x246 JUMPI DUP1 PUSH4 0xE985E9C5 EQ PUSH2 0x1F0 JUMPI PUSH4 0xF2FDE38B EQ PUSH2 0x15D JUMPI PUSH1 0x0 DUP1 REVERT JUMPDEST CALLVALUE PUSH2 0x1EB JUMPI PUSH1 0x20 CALLDATASIZE PUSH1 0x3 NOT ADD SLT PUSH2 0x1EB JUMPI PUSH2 0x176 PUSH2 0x1739 JUMP JUMPDEST PUSH2 0x17E PUSH2 0x182C JUMP JUMPDEST PUSH1 0x1 PUSH1 0x1 PUSH1 0xA0 SHL SUB SWAP1 DUP2 AND SWAP1 DUP2 ISZERO PUSH2 0x1D2 JUMPI PUSH1 0x6 SLOAD DUP3 PUSH12 0xFFFFFFFFFFFFFFFFFFFFFFFF PUSH1 0xA0 SHL DUP3 AND OR PUSH1 0x6 SSTORE AND PUSH32 0x8BE0079C531659141344CD1FD0A4F28419497F9722A3DAAFE3B4186F6B6457E0 PUSH1 0x0 DUP1 LOG3 STOP JUMPDEST PUSH1 0x40 MLOAD PUSH4 0x1E4FBDF7 PUSH1 0xE0 SHL DUP2 MSTORE PUSH1 0x0 PUSH1 0x4 DUP3 ADD MSTORE PUSH1 0x24 SWAP1 REVERT JUMPDEST PUSH1 0x0 DUP1 REVERT JUMPDEST CALLVALUE PUSH2 0x1EB JUMPI PUSH1 0x40 CALLDATASIZE PUSH1 0x3 NOT ADD SLT PUSH2 0x1EB JUMPI PUSH2 0x209 PUSH2 0x1739 JUMP JUMPDEST PUSH2 0x211 PUSH2 0x174F JUMP JUMPDEST SWAP1 PUSH1 0x1 DUP1 PUSH1 0xA0 SHL SUB DUP1 SWAP2 AND PUSH1 0x0 MSTORE PUSH1 0x5 PUSH1 0x20 MSTORE PUSH1 0x40 PUSH1 0x0 KECCAK256 SWAP2 AND PUSH1 0x0 MSTORE PUSH1 0x20 MSTORE PUSH1 0x20 PUSH1 0xFF PUSH1 0x40 PUSH1 0x0 KECCAK256 SLOAD AND PUSH1 0x40 MLOAD SWAP1 ISZERO ISZERO DUP2 MSTORE RETURN JUMPDEST CALLVALUE PUSH2 0x1EB JUMPI PUSH1 0x0 CALLDATASIZE PUSH1 0x3 NOT ADD SLT PUSH2 0x1EB JUMPI PUSH1 0x20 PUSH1 0xC SLOAD PUSH1 0x40 MLOAD SWAP1 DUP2 MSTORE RETURN JUMPDEST CALLVALUE PUSH2 0x1EB JUMPI PUSH1 0x20 CALLDATASIZE PUSH1 0x3 NOT ADD SLT PUSH2 0x1EB JUMPI PUSH1 0x4 CALLDATALOAD PUSH1 0x0 MSTORE PUSH1 0x8 PUSH1 0x20 MSTORE PUSH1 0xA0 PUSH1 0x40 PUSH1 0x0 KECCAK256 PUSH1 0x1 DUP1 DUP4 SHL SUB DUP2 SLOAD AND SWAP1 PUSH2 0x2C7 PUSH1 0x1 DUP3 ADD SLOAD SWAP2 PUSH1 0x2 DUP2 ADD SLOAD PUSH1 0x4 PUSH1 0xFF PUSH1 0x3 DUP5 ADD SLOAD AND SWAP3 ADD SLOAD SWAP4 PUSH1 0x40 MLOAD SWAP6 DUP7 MSTORE PUSH1 0x20 DUP7 ADD MSTORE PUSH1 0x40 DUP6 ADD MSTORE PUSH1 0x60 DUP5 ADD SWAP1 PUSH2 0x16E4 JUMP JUMPDEST PUSH1 0x80 DUP3 ADD MSTORE RETURN JUMPDEST CALLVALUE PUSH2 0x1EB JUMPI PUSH1 0x20 DUP1 PUSH1 0x3 NOT CALLDATASIZE ADD SLT PUSH2 0x1EB JUMPI PUSH1 0x4 CALLDATALOAD PUSH1 0x0 DUP2 DUP2 MSTORE PUSH1 0x2 DUP4 MSTORE PUSH1 0x40 SWAP1 KECCAK256 SLOAD PUSH1 0x1 PUSH1 0x1 PUSH1 0xA0 SHL SUB SWAP2 SWAP1 DUP3 AND ISZERO PUSH2 0x8B7 JUMPI DUP1 PUSH1 0x0 MSTORE PUSH1 0x8 DUP4 MSTORE PUSH1 0x40 PUSH1 0x0 KECCAK256 SWAP1 PUSH1 0x40 MLOAD SWAP2 PUSH2 0x31D DUP4 PUSH2 0x179A JUMP JUMPDEST DUP4 DUP2 SLOAD AND DUP4 MSTORE PUSH1 0x1 SWAP2 DUP3 DUP3 ADD SLOAD SWAP2 DUP7 DUP6 ADD SWAP3 DUP4 MSTORE PUSH1 0x2 DUP2 ADD SLOAD SWAP6 PUSH1 0x40 DUP7 ADD SWAP7 DUP8 MSTORE PUSH2 0x369 PUSH1 0x4 PUSH1 0xFF PUSH1 0x3 DUP6 ADD SLOAD AND SWAP4 PUSH2 0x35A PUSH1 0x60 DUP11 ADD SWAP6 DUP7 PUSH2 0x1B96 JUMP JUMPDEST ADD SLOAD SWAP4 PUSH1 0x80 DUP9 ADD SWAP5 DUP6 MSTORE PUSH2 0x1CF9 JUMP JUMPDEST SWAP6 MLOAD AND SWAP6 DUP7 PUSH1 0x40 MLOAD SWAP5 PUSH1 0x60 DUP7 ADD SWAP9 PUSH8 0xFFFFFFFFFFFFFFFF SWAP10 DUP8 DUP2 LT DUP12 DUP3 GT OR PUSH2 0x79C JUMPI PUSH1 0x40 MSTORE PUSH1 0x2A DUP8 MSTORE DUP11 DUP8 ADD SWAP3 PUSH1 0x40 CALLDATASIZE DUP6 CALLDATACOPY DUP8 MLOAD ISZERO PUSH2 0x82A JUMPI PUSH1 0x30 DUP5 MSTORE8 DUP8 MLOAD DUP10 LT ISZERO PUSH2 0x82A JUMPI PUSH1 0x78 PUSH1 0x21 DUP10 ADD MSTORE8 PUSH1 0x29 JUMPDEST DUP10 DUP2 GT PUSH2 0x875 JUMPI POP PUSH2 0x856 JUMPI POP PUSH2 0x3D1 SWAP1 MLOAD PUSH2 0x1CF9 JUMP JUMPDEST SWAP3 MLOAD PUSH1 0x4 DUP2 LT ISZERO PUSH2 0x840 JUMPI PUSH2 0x3E8 PUSH2 0x3EF SWAP2 PUSH2 0x1E4D JUMP JUMPDEST SWAP3 MLOAD PUSH2 0x1CF9 JUMP JUMPDEST SWAP4 MLOAD SWAP5 DUP6 PUSH1 0x40 MLOAD SWAP7 PUSH1 0x80 DUP9 ADD DUP9 DUP2 LT DUP13 DUP3 GT OR PUSH2 0x79C JUMPI PUSH1 0x40 MSTORE PUSH1 0x42 DUP9 MSTORE DUP12 DUP9 ADD SWAP9 PUSH1 0x60 CALLDATASIZE DUP12 CALLDATACOPY DUP9 MLOAD ISZERO PUSH2 0x82A JUMPI PUSH1 0x30 DUP11 MSTORE8 DUP9 MLOAD DUP2 LT ISZERO PUSH2 0x82A JUMPI PUSH1 0x78 PUSH1 0x21 DUP11 ADD MSTORE8 PUSH1 0x41 SWAP1 JUMPDEST DUP1 DUP3 GT PUSH2 0x7D0 JUMPI POP POP PUSH2 0x7B2 JUMPI POP PUSH2 0x49A SWAP8 SWAP5 PUSH2 0x6C3 SWAP8 SWAP5 DUP12 SWAP5 PUSH2 0x165 SWAP9 SWAP5 PUSH2 0x1F4B PUSH1 0xF2 SHL SWAP5 PUSH2 0x544 PUSH1 0x3D PUSH1 0x40 MLOAD SWAP15 DUP16 DUP1 SWAP14 PUSH32 0x7B226E616D65223A202244494B4520437265646974204576656E742023000000 DUP14 DUP4 ADD MSTORE DUP13 DUP2 MLOAD SWAP5 DUP6 SWAP4 ADD SWAP2 ADD PUSH2 0x16F1 JUMP JUMPDEST PUSH2 0x88B PUSH1 0xF2 SHL PUSH1 0x3D SWAP2 DUP14 ADD SWAP2 DUP3 ADD MSTORE PUSH32 0x226465736372697074696F6E223A20224F6E2D636861696E2076657269666961 PUSH1 0x3F DUP3 ADD MSTORE PUSH18 0x189B194818DC99591A5D08195D995B9D088B PUSH1 0x72 SHL PUSH1 0x5F DUP3 ADD MSTORE PUSH15 0x2261747472696275746573223A205B PUSH1 0x88 SHL PUSH1 0x71 DUP3 ADD MSTORE PUSH32 0x7B2274726169745F74797065223A20225375626A656374222C202276616C7565 PUSH1 0x80 DUP3 ADD MSTORE PUSH4 0x111D1011 PUSH1 0xE1 SHL PUSH1 0xA0 DUP3 ADD MSTORE SWAP2 MLOAD SWAP3 DUP4 SWAP1 PUSH1 0xA4 DUP5 ADD SWAP1 PUSH2 0x16F1 JUMP JUMPDEST ADD SWAP2 PUSH3 0x89F4B PUSH1 0xEA SHL SWAP3 DUP4 PUSH1 0xA4 DUP3 ADD MSTORE PUSH32 0x7B2274726169745F74797065223A2022416D6F756E74222C202276616C756522 PUSH1 0xA7 DUP3 ADD MSTORE PUSH3 0x1D1011 PUSH1 0xE9 SHL PUSH1 0xC7 DUP3 ADD MSTORE PUSH2 0x599 DUP3 MLOAD DUP1 SWAP4 DUP11 PUSH1 0xCA DUP6 ADD SWAP2 ADD PUSH2 0x16F1 JUMP JUMPDEST ADD DUP3 PUSH1 0xCA DUP3 ADD MSTORE PUSH32 0x7B2274726169745F74797065223A20224576656E742054797065222C20227661 PUSH1 0xCD DUP3 ADD MSTORE PUSH7 0x363AB2911D1011 PUSH1 0xC9 SHL PUSH1 0xED DUP3 ADD MSTORE PUSH2 0x5E9 DUP3 MLOAD DUP1 SWAP4 DUP10 PUSH1 0xF4 DUP6 ADD SWAP2 ADD PUSH2 0x16F1 JUMP JUMPDEST ADD SWAP1 PUSH1 0xF4 DUP3 ADD MSTORE PUSH32 0x7B2274726169745F74797065223A202254696D657374616D70222C2022646973 PUSH1 0xF7 DUP3 ADD MSTORE PUSH32 0x706C61795F74797065223A202264617465222C202276616C7565223A20000000 PUSH2 0x117 DUP3 ADD MSTORE PUSH2 0x652 DUP3 MLOAD DUP1 SWAP4 PUSH2 0x134 SWAP8 DUP9 DUP6 ADD SWAP2 ADD PUSH2 0x16F1 JUMP JUMPDEST ADD SWAP3 DUP4 ADD MSTORE PUSH32 0x7B2274726169745F74797065223A20225265666572656E63652048617368222C PUSH2 0x136 DUP4 ADD MSTORE PUSH11 0x10113B30B63AB2911D1011 PUSH1 0xA9 SHL PUSH2 0x156 DUP4 ADD MSTORE MLOAD SWAP1 PUSH2 0x6A6 DUP3 PUSH2 0x161 SWAP5 DUP6 DUP5 ADD SWAP1 PUSH2 0x16F1 JUMP JUMPDEST ADD SWAP1 PUSH4 0x227D5D7D PUSH1 0xE0 SHL SWAP1 DUP3 ADD MSTORE SUB PUSH2 0x145 DUP2 ADD DUP5 MSTORE ADD DUP3 PUSH2 0x17EE JUMP JUMPDEST PUSH1 0x40 MLOAD SWAP1 PUSH1 0x60 DUP3 ADD SWAP3 DUP3 DUP5 LT SWAP1 DUP5 GT OR PUSH2 0x79C JUMPI PUSH2 0x732 SWAP3 PUSH1 0x40 MSTORE PUSH1 0x40 DUP3 MSTORE PUSH32 0x4142434445464748494A4B4C4D4E4F505152535455565758595A616263646566 DUP5 DUP4 ADD MSTORE PUSH32 0x6768696A6B6C6D6E6F707172737475767778797A303132333435363738392B2F PUSH1 0x40 DUP4 ADD MSTORE PUSH2 0x1C01 JUMP JUMPDEST SWAP1 PUSH2 0x784 PUSH1 0x3D PUSH1 0x40 MLOAD DUP1 SWAP5 PUSH32 0x646174613A6170706C69636174696F6E2F6A736F6E3B6261736536342C000000 DUP6 DUP4 ADD MSTORE PUSH2 0x774 DUP2 MLOAD DUP1 SWAP3 DUP8 DUP7 DUP7 ADD SWAP2 ADD PUSH2 0x16F1 JUMP JUMPDEST DUP2 ADD SUB PUSH1 0x1D DUP2 ADD DUP6 MSTORE ADD DUP4 PUSH2 0x17EE JUMP JUMPDEST PUSH2 0x798 PUSH1 0x40 MLOAD SWAP3 DUP3 DUP5 SWAP4 DUP5 MSTORE DUP4 ADD SWAP1 PUSH2 0x1714 JUMP JUMPDEST SUB SWAP1 RETURN JUMPDEST PUSH4 0x4E487B71 PUSH1 0xE0 SHL PUSH1 0x0 MSTORE PUSH1 0x41 PUSH1 0x4 MSTORE PUSH1 0x24 PUSH1 0x0 REVERT JUMPDEST PUSH1 0x44 SWAP1 DUP12 PUSH1 0x40 MLOAD SWAP2 PUSH4 0xE22E27EB PUSH1 0xE0 SHL DUP4 MSTORE PUSH1 0x4 DUP4 ADD MSTORE PUSH1 0x24 DUP3 ADD MSTORE REVERT JUMPDEST SWAP1 SWAP2 PUSH1 0xF DUP2 AND PUSH1 0x10 DUP2 LT ISZERO PUSH2 0x82A JUMPI PUSH16 0x181899199A1A9B1B9C1CB0B131B232B3 PUSH1 0x81 SHL SWAP1 BYTE PUSH2 0x7FF DUP5 DUP13 PUSH2 0x1E3C JUMP JUMPDEST MSTORE8 PUSH1 0x4 SHR SWAP2 DUP1 ISZERO PUSH2 0x814 JUMPI PUSH1 0x0 NOT ADD SWAP1 PUSH2 0x435 JUMP JUMPDEST PUSH4 0x4E487B71 PUSH1 0xE0 SHL PUSH1 0x0 MSTORE PUSH1 0x11 PUSH1 0x4 MSTORE PUSH1 0x24 PUSH1 0x0 REVERT JUMPDEST PUSH4 0x4E487B71 PUSH1 0xE0 SHL PUSH1 0x0 MSTORE PUSH1 0x32 PUSH1 0x4 MSTORE PUSH1 0x24 PUSH1 0x0 REVERT JUMPDEST PUSH4 0x4E487B71 PUSH1 0xE0 SHL PUSH1 0x0 MSTORE PUSH1 0x21 PUSH1 0x4 MSTORE PUSH1 0x24 PUSH1 0x0 REVERT JUMPDEST PUSH1 0x44 SWAP1 PUSH1 0x40 MLOAD SWAP1 PUSH4 0xE22E27EB PUSH1 0xE0 SHL DUP3 MSTORE PUSH1 0x4 DUP3 ADD MSTORE PUSH1 0x14 PUSH1 0x24 DUP3 ADD MSTORE REVERT JUMPDEST SWAP1 PUSH1 0xF DUP2 AND PUSH1 0x10 DUP2 LT ISZERO PUSH2 0x82A JUMPI PUSH16 0x181899199A1A9B1B9C1CB0B131B232B3 PUSH1 0x81 SHL SWAP1 BYTE PUSH2 0x8A3 DUP4 DUP12 PUSH2 0x1E3C JUMP JUMPDEST MSTORE8 PUSH1 0x4 SHR SWAP1 DUP1 ISZERO PUSH2 0x814 JUMPI PUSH1 0x0 NOT ADD PUSH2 0x3BA JUMP JUMPDEST PUSH1 0x40 MLOAD PUSH3 0x461BCD PUSH1 0xE5 SHL DUP2 MSTORE PUSH1 0x4 DUP2 ADD DUP5 SWAP1 MSTORE PUSH1 0x11 PUSH1 0x24 DUP3 ADD MSTORE PUSH17 0x2737B732BC34B9BA32B73A103A37B5B2B7 PUSH1 0x79 SHL PUSH1 0x44 DUP3 ADD MSTORE PUSH1 0x64 SWAP1 REVERT JUMPDEST CALLVALUE PUSH2 0x1EB JUMPI PUSH1 0x80 CALLDATASIZE PUSH1 0x3 NOT ADD SLT PUSH2 0x1EB JUMPI PUSH2 0x909 PUSH2 0x1739 JUMP JUMPDEST PUSH1 0x4 PUSH1 0x44 CALLDATALOAD LT ISZERO PUSH2 0x1EB JUMPI PUSH1 0x64 CALLDATALOAD PUSH2 0x91F PUSH2 0x182C JUMP JUMPDEST PUSH1 0x1 PUSH1 0x1 PUSH1 0xA0 SHL SUB DUP3 AND ISZERO PUSH2 0xD32 JUMPI PUSH1 0x24 CALLDATALOAD ISZERO PUSH2 0xCEE JUMPI DUP1 PUSH1 0x0 MSTORE PUSH1 0x9 PUSH1 0x20 MSTORE PUSH1 0xFF PUSH1 0x40 PUSH1 0x0 KECCAK256 SLOAD AND PUSH2 0xCB3 JUMPI DUP1 PUSH1 0x0 MSTORE PUSH1 0x9 PUSH1 0x20 MSTORE PUSH1 0x40 PUSH1 0x0 KECCAK256 PUSH1 0x1 PUSH1 0xFF NOT DUP3 SLOAD AND OR SWAP1 SSTORE PUSH1 0x7 SLOAD SWAP1 PUSH2 0x972 DUP3 PUSH2 0x1B87 JUMP JUMPDEST PUSH1 0x7 SSTORE PUSH1 0x40 MLOAD PUSH2 0x981 DUP2 PUSH2 0x179A JUMP JUMPDEST PUSH1 0x1 DUP1 PUSH1 0xA0 SHL SUB DUP5 AND DUP2 MSTORE PUSH1 0x20 DUP2 ADD SWAP2 PUSH1 0x24 CALLDATALOAD DUP4 MSTORE PUSH1 0x40 DUP3 ADD TIMESTAMP DUP2 MSTORE PUSH1 0x60 DUP4 ADD SWAP2 PUSH2 0x9AE PUSH1 0x44 CALLDATALOAD DUP5 PUSH2 0x1B96 JUMP JUMPDEST PUSH1 0x80 DUP5 ADD MSTORE PUSH1 0x0 DUP6 DUP2 MSTORE PUSH1 0x8 PUSH1 0x20 MSTORE PUSH1 0x40 SWAP1 KECCAK256 DUP4 MLOAD DUP2 SLOAD PUSH1 0x1 PUSH1 0x1 PUSH1 0xA0 SHL SUB NOT AND PUSH1 0x1 PUSH1 0x1 PUSH1 0xA0 SHL SUB SWAP2 SWAP1 SWAP2 AND OR DUP2 SSTORE SWAP4 MLOAD PUSH1 0x1 DUP6 ADD SSTORE MLOAD PUSH1 0x2 DUP5 ADD SSTORE MLOAD PUSH1 0x4 DUP2 LT ISZERO PUSH2 0x840 JUMPI PUSH1 0x4 SWAP2 PUSH1 0x80 SWAP2 PUSH1 0x3 DUP6 ADD SWAP1 PUSH1 0xFF DUP1 NOT DUP4 SLOAD AND SWAP2 AND OR SWAP1 SSTORE ADD MLOAD SWAP2 ADD SSTORE PUSH1 0x1 DUP1 PUSH1 0xA0 SHL SUB DUP3 AND PUSH1 0x0 MSTORE PUSH1 0xA PUSH1 0x20 MSTORE PUSH1 0x40 PUSH1 0x0 KECCAK256 DUP1 SLOAD PUSH9 0x10000000000000000 DUP2 LT ISZERO PUSH2 0x79C JUMPI PUSH1 0x1 DUP2 ADD DUP1 DUP4 SSTORE DUP2 LT ISZERO PUSH2 0x82A JUMPI DUP3 SWAP2 PUSH1 0x0 MSTORE PUSH1 0x20 PUSH1 0x0 KECCAK256 ADD SSTORE PUSH1 0x1 DUP1 PUSH1 0xA0 SHL SUB DUP3 AND PUSH1 0x0 MSTORE PUSH1 0xB PUSH1 0x20 MSTORE PUSH1 0x40 PUSH1 0x0 KECCAK256 PUSH1 0x5 DUP2 ADD PUSH2 0xA78 DUP2 SLOAD PUSH2 0x1B87 JUMP JUMPDEST SWAP1 SSTORE PUSH1 0x0 PUSH1 0x44 CALLDATALOAD ISZERO SWAP2 DUP3 PUSH1 0x0 EQ PUSH2 0xC31 JUMPI PUSH2 0xA96 PUSH1 0x24 CALLDATALOAD DUP3 SLOAD PUSH2 0x1BA2 JUMP JUMPDEST SWAP1 SSTORE JUMPDEST PUSH2 0x840 JUMPI ISZERO PUSH2 0xBD6 JUMPI PUSH2 0xAB0 PUSH1 0x24 CALLDATALOAD PUSH1 0xC SLOAD PUSH2 0x1BA2 JUMP JUMPDEST PUSH1 0xC SSTORE JUMPDEST PUSH1 0x0 DUP2 DUP2 MSTORE PUSH1 0x2 PUSH1 0x20 MSTORE PUSH1 0x40 SWAP1 KECCAK256 SLOAD PUSH1 0x1 PUSH1 0x1 PUSH1 0xA0 SHL SUB AND DUP1 ISZERO ISZERO SWAP1 DUP3 SWAP1 DUP3 PUSH2 0xB9F JUMPI JUMPDEST PUSH1 0x1 PUSH1 0x1 PUSH1 0xA0 SHL SUB DUP6 AND PUSH1 0x0 DUP2 DUP2 MSTORE PUSH1 0x3 PUSH1 0x20 SWAP1 DUP2 MSTORE PUSH1 0x40 DUP1 DUP4 KECCAK256 DUP1 SLOAD PUSH1 0x1 ADD SWAP1 SSTORE DUP6 DUP4 MSTORE PUSH1 0x2 SWAP1 SWAP2 MSTORE DUP2 KECCAK256 DUP1 SLOAD PUSH1 0x1 PUSH1 0x1 PUSH1 0xA0 SHL SUB NOT AND DUP4 OR SWAP1 SSTORE SWAP1 SWAP2 SWAP1 PUSH32 0xDDF252AD1BE2C89B69C2B068FC378DAA952BA7F163C4A11628F55A4DF523B3EF SWAP1 DUP1 LOG4 PUSH2 0xB86 JUMPI PUSH32 0x12A91909A67C92CC45D4BBDEF832B9966D2736CF5B0A088AE1C81F58AD26C309 PUSH1 0x40 DUP1 MLOAD SWAP4 PUSH2 0xB71 DUP6 PUSH1 0x44 CALLDATALOAD PUSH2 0x16E4 JUMP JUMPDEST PUSH1 0x24 CALLDATALOAD PUSH1 0x20 DUP7 ADD MSTORE PUSH1 0x1 PUSH1 0x1 PUSH1 0xA0 SHL SUB AND SWAP4 LOG3 STOP JUMPDEST PUSH1 0x40 MLOAD PUSH4 0x39E35637 PUSH1 0xE1 SHL DUP2 MSTORE PUSH1 0x0 PUSH1 0x4 DUP3 ADD MSTORE PUSH1 0x24 SWAP1 REVERT JUMPDEST PUSH1 0x0 DUP3 DUP2 MSTORE PUSH1 0x4 PUSH1 0x20 MSTORE PUSH1 0x40 SWAP1 KECCAK256 DUP1 SLOAD PUSH1 0x1 PUSH1 0x1 PUSH1 0xA0 SHL SUB NOT AND SWAP1 SSTORE DUP1 PUSH1 0x0 MSTORE PUSH1 0x3 PUSH1 0x20 MSTORE PUSH1 0x40 PUSH1 0x0 KECCAK256 PUSH1 0x0 NOT DUP2 SLOAD ADD SWAP1 SSTORE PUSH2 0xAD8 JUMP JUMPDEST PUSH1 0x0 PUSH1 0x1 PUSH1 0x44 CALLDATALOAD EQ DUP1 ISZERO PUSH2 0xC22 JUMPI JUMPDEST ISZERO PUSH2 0xC01 JUMPI POP PUSH2 0xBF9 PUSH1 0x24 CALLDATALOAD PUSH1 0xD SLOAD PUSH2 0x1BA2 JUMP JUMPDEST PUSH1 0xD SSTORE PUSH2 0xAB4 JUMP JUMPDEST PUSH2 0x840 JUMPI PUSH1 0x3 PUSH1 0x44 CALLDATALOAD SUB PUSH2 0xAB4 JUMPI PUSH2 0xC1A PUSH1 0xE SLOAD PUSH2 0x1B87 JUMP JUMPDEST PUSH1 0xE SSTORE PUSH2 0xAB4 JUMP JUMPDEST POP POP PUSH1 0x0 PUSH1 0x2 PUSH1 0x44 CALLDATALOAD EQ PUSH2 0xBE5 JUMP JUMPDEST PUSH1 0x0 SWAP2 POP PUSH1 0x44 CALLDATALOAD PUSH1 0x1 SUB PUSH2 0xC67 JUMPI DUP1 PUSH1 0x1 PUSH1 0x3 SWAP3 ADD PUSH2 0xC53 PUSH1 0x24 CALLDATALOAD DUP3 SLOAD PUSH2 0x1BA2 JUMP JUMPDEST SWAP1 SSTORE ADD PUSH2 0xC60 DUP2 SLOAD PUSH2 0x1B87 JUMP JUMPDEST SWAP1 SSTORE PUSH2 0xA99 JUMP JUMPDEST PUSH1 0x0 SWAP2 POP PUSH1 0x44 CALLDATALOAD PUSH1 0x2 SUB PUSH2 0xC89 JUMPI DUP1 PUSH1 0x1 PUSH1 0x4 SWAP3 ADD PUSH2 0xC53 PUSH1 0x24 CALLDATALOAD DUP3 SLOAD PUSH2 0x1BA2 JUMP JUMPDEST PUSH1 0x0 SWAP2 POP PUSH1 0x44 CALLDATALOAD PUSH1 0x3 EQ PUSH2 0xC9E JUMPI JUMPDEST POP PUSH2 0xA99 JUMP JUMPDEST PUSH1 0x2 ADD PUSH2 0xCAB DUP2 SLOAD PUSH2 0x1B87 JUMP JUMPDEST SWAP1 SSTORE DUP5 PUSH2 0xC98 JUMP JUMPDEST PUSH1 0x40 MLOAD PUSH3 0x461BCD PUSH1 0xE5 SHL DUP2 MSTORE PUSH1 0x20 PUSH1 0x4 DUP3 ADD MSTORE PUSH1 0x13 PUSH1 0x24 DUP3 ADD MSTORE PUSH19 0x4475706C6963617465207265666572656E6365 PUSH1 0x68 SHL PUSH1 0x44 DUP3 ADD MSTORE PUSH1 0x64 SWAP1 REVERT JUMPDEST PUSH1 0x64 PUSH1 0x40 MLOAD PUSH3 0x461BCD PUSH1 0xE5 SHL DUP2 MSTORE PUSH1 0x20 PUSH1 0x4 DUP3 ADD MSTORE PUSH1 0x20 PUSH1 0x24 DUP3 ADD MSTORE PUSH32 0x416D6F756E74206D757374206265207374726963746C7920706F736974697665 PUSH1 0x44 DUP3 ADD MSTORE REVERT JUMPDEST PUSH1 0x40 MLOAD PUSH3 0x461BCD PUSH1 0xE5 SHL DUP2 MSTORE PUSH1 0x20 PUSH1 0x4 DUP3 ADD MSTORE PUSH1 0x1D PUSH1 0x24 DUP3 ADD MSTORE PUSH32 0x496E76616C6964207375626A6563743A207A65726F2061646472657373000000 PUSH1 0x44 DUP3 ADD MSTORE PUSH1 0x64 SWAP1 REVERT JUMPDEST CALLVALUE PUSH2 0x1EB JUMPI PUSH1 0x80 CALLDATASIZE PUSH1 0x3 NOT ADD SLT PUSH2 0x1EB JUMPI PUSH2 0xD90 PUSH2 0x1739 JUMP JUMPDEST PUSH2 0xD98 PUSH2 0x174F JUMP JUMPDEST PUSH1 0x64 CALLDATALOAD SWAP2 PUSH8 0xFFFFFFFFFFFFFFFF DUP4 GT PUSH2 0x1EB JUMPI CALLDATASIZE PUSH1 0x23 DUP5 ADD SLT ISZERO PUSH2 0x1EB JUMPI DUP3 PUSH1 0x4 ADD CALLDATALOAD SWAP2 PUSH2 0xDC5 DUP4 PUSH2 0x1810 JUMP JUMPDEST SWAP3 PUSH2 0xDD3 PUSH1 0x40 MLOAD SWAP5 DUP6 PUSH2 0x17EE JUMP JUMPDEST DUP1 DUP5 MSTORE CALLDATASIZE PUSH1 0x24 DUP3 DUP8 ADD ADD GT PUSH2 0x1EB JUMPI PUSH1 0x20 DUP2 PUSH1 0x0 SWAP3 PUSH1 0x24 PUSH2 0xE00 SWAP9 ADD DUP4 DUP9 ADD CALLDATACOPY DUP6 ADD ADD MSTORE PUSH1 0x44 CALLDATALOAD SWAP2 PUSH2 0x19F7 JUMP JUMPDEST STOP JUMPDEST CALLVALUE PUSH2 0x1EB JUMPI PUSH1 0x40 CALLDATASIZE PUSH1 0x3 NOT ADD SLT PUSH2 0x1EB JUMPI PUSH2 0xE1B PUSH2 0x1739 JUMP JUMPDEST PUSH1 0x24 CALLDATALOAD SWAP1 DUP2 ISZERO ISZERO DUP1 SWAP3 SUB PUSH2 0x1EB JUMPI PUSH1 0x1 PUSH1 0x1 PUSH1 0xA0 SHL SUB AND SWAP1 DUP2 ISZERO PUSH2 0xE8E JUMPI CALLER PUSH1 0x0 MSTORE PUSH1 0x5 PUSH1 0x20 MSTORE PUSH1 0x40 PUSH1 0x0 KECCAK256 DUP3 PUSH1 0x0 MSTORE PUSH1 0x20 MSTORE PUSH1 0x40 PUSH1 0x0 KECCAK256 PUSH1 0xFF NOT DUP2 SLOAD AND PUSH1 0xFF DUP4 AND OR SWAP1 SSTORE PUSH1 0x40 MLOAD SWAP1 DUP2 MSTORE PUSH32 0x17307EAB39AB6107E8899845AD3D59BD9653F200F220920489CA2B5937696C31 PUSH1 0x20 CALLER SWAP3 LOG3 STOP JUMPDEST PUSH1 0x40 MLOAD PUSH4 0xB611743 PUSH1 0xE3 SHL DUP2 MSTORE PUSH1 0x4 DUP2 ADD DUP4 SWAP1 MSTORE PUSH1 0x24 SWAP1 REVERT JUMPDEST CALLVALUE PUSH2 0x1EB JUMPI PUSH1 0x20 CALLDATASIZE PUSH1 0x3 NOT ADD SLT PUSH2 0x1EB JUMPI PUSH2 0x100 PUSH2 0xEC3 PUSH2 0x1739 JUMP JUMPDEST PUSH1 0x1 DUP1 PUSH1 0xA0 SHL SUB DUP2 AND PUSH1 0x0 MSTORE PUSH1 0xB PUSH1 0x20 MSTORE PUSH1 0x40 PUSH1 0x0 KECCAK256 DUP1 SLOAD SWAP2 PUSH1 0x1 DUP3 ADD SLOAD SWAP2 PUSH1 0x2 DUP2 ADD SLOAD SWAP1 PUSH1 0x3 DUP2 ADD SLOAD PUSH1 0x5 PUSH1 0x4 DUP4 ADD SLOAD SWAP3 ADD SLOAD SWAP3 PUSH2 0xF0A PUSH2 0xF04 DUP7 PUSH2 0x1F2D JUMP JUMPDEST SWAP6 PUSH2 0x1FAD JUMP JUMPDEST SWAP6 PUSH1 0x40 MLOAD SWAP8 DUP9 MSTORE PUSH1 0x20 DUP9 ADD MSTORE PUSH1 0x40 DUP8 ADD MSTORE PUSH1 0x60 DUP7 ADD MSTORE PUSH1 0x80 DUP6 ADD MSTORE PUSH1 0xA0 DUP5 ADD MSTORE PUSH1 0xC0 DUP4 ADD MSTORE PUSH1 0xE0 DUP3 ADD MSTORE RETURN JUMPDEST CALLVALUE PUSH2 0x1EB JUMPI PUSH1 0x0 CALLDATASIZE PUSH1 0x3 NOT ADD SLT PUSH2 0x1EB JUMPI PUSH1 0x20 PUSH1 0x7 SLOAD PUSH1 0x40 MLOAD SWAP1 DUP2 MSTORE RETURN JUMPDEST CALLVALUE PUSH2 0x1EB JUMPI PUSH1 0x0 CALLDATASIZE PUSH1 0x3 NOT ADD SLT PUSH2 0x1EB JUMPI PUSH1 0x40 MLOAD PUSH1 0x0 PUSH1 0x1 SWAP1 DUP2 SLOAD SWAP2 DUP3 DUP2 SHR SWAP2 DUP2 DUP5 AND SWAP2 DUP3 ISZERO PUSH2 0x1041 JUMPI JUMPDEST PUSH1 0x20 SWAP5 DUP6 DUP6 LT DUP5 EQ PUSH2 0x102B JUMPI DUP6 DUP8 SWAP5 DUP7 DUP7 MSTORE SWAP2 DUP3 PUSH1 0x0 EQ PUSH2 0x100B JUMPI POP POP PUSH1 0x1 EQ PUSH2 0xFB1 JUMPI JUMPDEST POP PUSH2 0x784 SWAP3 POP SUB DUP4 PUSH2 0x17EE JUMP JUMPDEST PUSH1 0x0 DUP2 DUP2 MSTORE DUP6 SWAP3 POP SWAP1 PUSH32 0xB10E2D527612073B26EECDFD717E6A320CF44B4AFAC2B0732D9FCBE2B7FA0CF6 JUMPDEST DUP6 DUP4 LT PUSH2 0xFF3 JUMPI POP POP PUSH2 0x784 SWAP4 POP DUP3 ADD ADD DUP6 PUSH2 0xFA4 JUMP JUMPDEST DUP1 SLOAD DUP4 DUP10 ADD DUP6 ADD MSTORE DUP8 SWAP5 POP DUP7 SWAP4 SWAP1 SWAP3 ADD SWAP2 DUP2 ADD PUSH2 0xFDC JUMP JUMPDEST PUSH1 0xFF NOT AND DUP6 DUP3 ADD MSTORE PUSH2 0x784 SWAP6 ISZERO ISZERO PUSH1 0x5 SHL DUP6 ADD ADD SWAP3 POP DUP8 SWAP2 POP PUSH2 0xFA4 SWAP1 POP JUMP JUMPDEST PUSH4 0x4E487B71 PUSH1 0xE0 SHL PUSH1 0x0 MSTORE PUSH1 0x22 PUSH1 0x4 MSTORE PUSH1 0x24 PUSH1 0x0 REVERT JUMPDEST SWAP3 PUSH1 0x7F AND SWAP3 PUSH2 0xF7F JUMP JUMPDEST CALLVALUE PUSH2 0x1EB JUMPI PUSH1 0x0 CALLDATASIZE PUSH1 0x3 NOT ADD SLT PUSH2 0x1EB JUMPI PUSH1 0x6 SLOAD PUSH1 0x40 MLOAD PUSH1 0x1 PUSH1 0x1 PUSH1 0xA0 SHL SUB SWAP1 SWAP2 AND DUP2 MSTORE PUSH1 0x20 SWAP1 RETURN JUMPDEST CALLVALUE PUSH2 0x1EB JUMPI PUSH1 0x0 CALLDATASIZE PUSH1 0x3 NOT ADD SLT PUSH2 0x1EB JUMPI PUSH1 0x20 PUSH1 0xD SLOAD PUSH1 0x40 MLOAD SWAP1 DUP2 MSTORE RETURN JUMPDEST CALLVALUE PUSH2 0x1EB JUMPI PUSH1 0x0 CALLDATASIZE PUSH1 0x3 NOT ADD SLT PUSH2 0x1EB JUMPI PUSH2 0x10AB PUSH2 0x182C JUMP JUMPDEST PUSH1 0x6 DUP1 SLOAD PUSH1 0x1 PUSH1 0x1 PUSH1 0xA0 SHL SUB NOT DUP2 AND SWAP1 SWAP2 SSTORE PUSH1 0x0 SWAP1 PUSH1 0x1 PUSH1 0x1 PUSH1 0xA0 SHL SUB AND PUSH32 0x8BE0079C531659141344CD1FD0A4F28419497F9722A3DAAFE3B4186F6B6457E0 DUP3 DUP1 LOG3 STOP JUMPDEST CALLVALUE PUSH2 0x1EB JUMPI PUSH1 0x20 CALLDATASIZE PUSH1 0x3 NOT ADD SLT PUSH2 0x1EB JUMPI PUSH1 0x1 PUSH1 0x1 PUSH1 0xA0 SHL SUB PUSH2 0x1110 PUSH2 0x1739 JUMP JUMPDEST AND DUP1 ISZERO PUSH2 0x112F JUMPI PUSH1 0x0 MSTORE PUSH1 0x3 PUSH1 0x20 MSTORE PUSH1 0x20 PUSH1 0x40 PUSH1 0x0 KECCAK256 SLOAD PUSH1 0x40 MLOAD SWAP1 DUP2 MSTORE RETURN JUMPDEST PUSH1 0x40 MLOAD PUSH4 0x22718AD9 PUSH1 0xE2 SHL DUP2 MSTORE PUSH1 0x0 PUSH1 0x4 DUP3 ADD MSTORE PUSH1 0x24 SWAP1 REVERT JUMPDEST CALLVALUE PUSH2 0x1EB JUMPI PUSH1 0x20 CALLDATASIZE PUSH1 0x3 NOT ADD SLT PUSH2 0x1EB JUMPI PUSH1 0x4 CALLDATALOAD PUSH1 0x0 MSTORE PUSH1 0x9 PUSH1 0x20 MSTORE PUSH1 0x20 PUSH1 0xFF PUSH1 0x40 PUSH1 0x0 KECCAK256 SLOAD AND PUSH1 0x40 MLOAD SWAP1 ISZERO ISZERO DUP2 MSTORE RETURN JUMPDEST CALLVALUE PUSH2 0x1EB JUMPI PUSH1 0x0 CALLDATASIZE PUSH1 0x3 NOT ADD SLT PUSH2 0x1EB JUMPI PUSH1 0x60 PUSH1 0xC SLOAD PUSH1 0xD SLOAD PUSH1 0xE SLOAD SWAP1 PUSH1 0x40 MLOAD SWAP3 DUP4 MSTORE PUSH1 0x20 DUP4 ADD MSTORE PUSH1 0x40 DUP3 ADD MSTORE RETURN JUMPDEST CALLVALUE PUSH2 0x1EB JUMPI PUSH1 0x20 CALLDATASIZE PUSH1 0x3 NOT ADD SLT PUSH2 0x1EB JUMPI PUSH1 0x20 PUSH2 0x11C6 PUSH1 0x4 CALLDATALOAD PUSH2 0x1B4C JUMP JUMPDEST PUSH1 0x40 MLOAD PUSH1 0x1 PUSH1 0x1 PUSH1 0xA0 SHL SUB SWAP1 SWAP2 AND DUP2 MSTORE RETURN JUMPDEST CALLVALUE PUSH2 0x1EB JUMPI PUSH2 0xE00 PUSH2 0x11E9 CALLDATASIZE PUSH2 0x1765 JUMP JUMPDEST SWAP1 PUSH1 0x40 MLOAD SWAP3 PUSH2 0x11F7 DUP5 PUSH2 0x17B6 JUMP JUMPDEST PUSH1 0x0 DUP5 MSTORE PUSH2 0x19F7 JUMP JUMPDEST CALLVALUE PUSH2 0x1EB JUMPI PUSH1 0x20 CALLDATASIZE PUSH1 0x3 NOT ADD SLT PUSH2 0x1EB JUMPI PUSH1 0x1 PUSH1 0x1 PUSH1 0xA0 SHL SUB PUSH2 0x1221 PUSH2 0x1739 JUMP JUMPDEST AND PUSH1 0x0 MSTORE PUSH1 0xB PUSH1 0x20 MSTORE PUSH1 0xC0 PUSH1 0x40 PUSH1 0x0 KECCAK256 DUP1 SLOAD SWAP1 PUSH1 0x1 DUP2 ADD SLOAD SWAP1 PUSH1 0x2 DUP2 ADD SLOAD PUSH1 0x3 DUP3 ADD SLOAD SWAP1 PUSH1 0x5 PUSH1 0x4 DUP5 ADD SLOAD SWAP4 ADD SLOAD SWAP4 PUSH1 0x40 MLOAD SWAP6 DUP7 MSTORE PUSH1 0x20 DUP7 ADD MSTORE PUSH1 0x40 DUP6 ADD MSTORE PUSH1 0x60 DUP5 ADD MSTORE PUSH1 0x80 DUP4 ADD MSTORE PUSH1 0xA0 DUP3 ADD MSTORE RETURN JUMPDEST CALLVALUE PUSH2 0x1EB JUMPI PUSH2 0xE00 PUSH2 0x1282 CALLDATASIZE PUSH2 0x1765 JUMP JUMPDEST SWAP2 PUSH2 0x1858 JUMP JUMPDEST CALLVALUE PUSH2 0x1EB JUMPI PUSH1 0x20 CALLDATASIZE PUSH1 0x3 NOT ADD SLT PUSH2 0x1EB JUMPI PUSH1 0x20 PUSH2 0x12AB PUSH2 0x12A6 PUSH2 0x1739 JUMP JUMPDEST PUSH2 0x1FFF JUMP JUMPDEST PUSH1 0x40 MLOAD SWAP1 DUP2 MSTORE RETURN JUMPDEST CALLVALUE PUSH2 0x1EB JUMPI PUSH1 0x20 DUP1 PUSH1 0x3 NOT CALLDATASIZE ADD SLT PUSH2 0x1EB JUMPI PUSH1 0x1 PUSH1 0x1 PUSH1 0xA0 SHL SUB PUSH2 0x12D5 PUSH2 0x1739 JUMP JUMPDEST AND PUSH1 0x0 MSTORE PUSH1 0xA DUP2 MSTORE PUSH1 0x40 PUSH1 0x0 KECCAK256 PUSH1 0x40 MLOAD SWAP1 DUP2 DUP4 DUP3 SLOAD SWAP2 DUP3 DUP2 MSTORE ADD SWAP1 DUP2 SWAP3 PUSH1 0x0 MSTORE DUP5 PUSH1 0x0 KECCAK256 SWAP1 PUSH1 0x0 JUMPDEST DUP7 DUP3 DUP3 LT PUSH2 0x1353 JUMPI DUP7 DUP7 PUSH2 0x1313 DUP3 DUP9 SUB DUP4 PUSH2 0x17EE JUMP JUMPDEST PUSH1 0x40 MLOAD SWAP3 DUP4 SWAP3 DUP2 DUP5 ADD SWAP1 DUP3 DUP6 MSTORE MLOAD DUP1 SWAP2 MSTORE PUSH1 0x40 DUP5 ADD SWAP3 SWAP2 PUSH1 0x0 JUMPDEST DUP3 DUP2 LT PUSH2 0x133C JUMPI POP POP POP POP SUB SWAP1 RETURN JUMPDEST DUP4 MLOAD DUP6 MSTORE DUP7 SWAP6 POP SWAP4 DUP2 ADD SWAP4 SWAP3 DUP2 ADD SWAP3 PUSH1 0x1 ADD PUSH2 0x132D JUMP JUMPDEST DUP4 SLOAD DUP6 MSTORE SWAP1 SWAP4 ADD SWAP3 PUSH1 0x1 SWAP3 DUP4 ADD SWAP3 ADD PUSH2 0x12FD JUMP JUMPDEST CALLVALUE PUSH2 0x1EB JUMPI PUSH1 0x0 CALLDATASIZE PUSH1 0x3 NOT ADD SLT PUSH2 0x1EB JUMPI PUSH1 0x20 PUSH1 0xE SLOAD PUSH1 0x40 MLOAD SWAP1 DUP2 MSTORE RETURN JUMPDEST CALLVALUE PUSH2 0x1EB JUMPI PUSH1 0x40 CALLDATASIZE PUSH1 0x3 NOT ADD SLT PUSH2 0x1EB JUMPI PUSH2 0x139E PUSH2 0x1739 JUMP JUMPDEST PUSH1 0x24 CALLDATALOAD PUSH2 0x13AA DUP2 PUSH2 0x1B4C JUMP JUMPDEST CALLER ISZERO ISZERO DUP1 PUSH2 0x1459 JUMPI JUMPDEST DUP1 PUSH2 0x142C JUMPI JUMPDEST PUSH2 0x1414 JUMPI PUSH1 0x1 PUSH1 0x1 PUSH1 0xA0 SHL SUB SWAP3 DUP4 AND SWAP3 DUP3 SWAP2 DUP5 SWAP2 AND PUSH32 0x8C5BE1E5EBEC7D5BD14F71427D1E84F3DD0314C0F7B2291E5B200AC8C7C3B925 PUSH1 0x0 DUP1 LOG4 PUSH1 0x0 SWAP1 DUP2 MSTORE PUSH1 0x4 PUSH1 0x20 MSTORE PUSH1 0x40 SWAP1 KECCAK256 DUP1 SLOAD PUSH1 0x1 PUSH1 0x1 PUSH1 0xA0 SHL SUB NOT AND SWAP1 SWAP2 OR SWAP1 SSTORE STOP JUMPDEST PUSH1 0x40 MLOAD PUSH4 0xA9FBF51F PUSH1 0xE0 SHL DUP2 MSTORE CALLER PUSH1 0x4 DUP3 ADD MSTORE PUSH1 0x24 SWAP1 REVERT JUMPDEST POP PUSH1 0x1 DUP1 PUSH1 0xA0 SHL SUB DUP2 AND PUSH1 0x0 MSTORE PUSH1 0x5 PUSH1 0x20 MSTORE PUSH1 0x40 PUSH1 0x0 KECCAK256 CALLER PUSH1 0x0 MSTORE PUSH1 0x20 MSTORE PUSH1 0xFF PUSH1 0x40 PUSH1 0x0 KECCAK256 SLOAD AND ISZERO PUSH2 0x13B9 JUMP JUMPDEST POP PUSH1 0x1 PUSH1 0x1 PUSH1 0xA0 SHL SUB DUP2 AND CALLER EQ ISZERO PUSH2 0x13B3 JUMP JUMPDEST CALLVALUE PUSH2 0x1EB JUMPI PUSH1 0x20 CALLDATASIZE PUSH1 0x3 NOT ADD SLT PUSH2 0x1EB JUMPI PUSH1 0x4 CALLDATALOAD PUSH2 0x1489 DUP2 PUSH2 0x1B4C JUMP JUMPDEST POP PUSH1 0x0 MSTORE PUSH1 0x4 PUSH1 0x20 MSTORE PUSH1 0x20 PUSH1 0x1 DUP1 PUSH1 0xA0 SHL SUB PUSH1 0x40 PUSH1 0x0 KECCAK256 SLOAD AND PUSH1 0x40 MLOAD SWAP1 DUP2 MSTORE RETURN JUMPDEST CALLVALUE PUSH2 0x1EB JUMPI PUSH1 0x0 CALLDATASIZE PUSH1 0x3 NOT ADD SLT PUSH2 0x1EB JUMPI PUSH1 0x40 MLOAD PUSH1 0x0 DUP1 SLOAD SWAP1 PUSH1 0x1 DUP3 DUP2 SHR SWAP2 DUP2 DUP5 AND SWAP2 DUP3 ISZERO PUSH2 0x155F JUMPI JUMPDEST PUSH1 0x20 SWAP5 DUP6 DUP6 LT DUP5 EQ PUSH2 0x102B JUMPI DUP6 DUP8 SWAP5 DUP7 DUP7 MSTORE SWAP2 DUP3 PUSH1 0x0 EQ PUSH2 0x100B JUMPI POP POP PUSH1 0x1 EQ PUSH2 0x1505 JUMPI POP PUSH2 0x784 SWAP3 POP SUB DUP4 PUSH2 0x17EE JUMP JUMPDEST PUSH1 0x0 DUP1 DUP1 MSTORE DUP6 SWAP3 POP SWAP1 PUSH32 0x290DECD9548B62A8D60345A988386FC84BA6BC95484008F6362F93160EF3E563 JUMPDEST DUP6 DUP4 LT PUSH2 0x1547 JUMPI POP POP PUSH2 0x784 SWAP4 POP DUP3 ADD ADD DUP6 PUSH2 0xFA4 JUMP JUMPDEST DUP1 SLOAD DUP4 DUP10 ADD DUP6 ADD MSTORE DUP8 SWAP5 POP DUP7 SWAP4 SWAP1 SWAP3 ADD SWAP2 DUP2 ADD PUSH2 0x1530 JUMP JUMPDEST SWAP3 PUSH1 0x7F AND SWAP3 PUSH2 0x14D4 JUMP JUMPDEST CALLVALUE PUSH2 0x1EB JUMPI PUSH1 0x20 CALLDATASIZE PUSH1 0x3 NOT ADD SLT PUSH2 0x1EB JUMPI PUSH1 0x4 CALLDATALOAD PUSH4 0xFFFFFFFF PUSH1 0xE0 SHL DUP2 AND DUP1 SWAP2 SUB PUSH2 0x1EB JUMPI PUSH1 0x20 SWAP1 PUSH4 0x80AC58CD PUSH1 0xE0 SHL DUP2 EQ SWAP1 DUP2 ISZERO PUSH2 0x15C6 JUMPI JUMPDEST DUP2 ISZERO PUSH2 0x15B5 JUMPI JUMPDEST POP PUSH1 0x40 MLOAD SWAP1 ISZERO ISZERO DUP2 MSTORE RETURN JUMPDEST PUSH4 0x1FFC9A7 PUSH1 0xE0 SHL EQ SWAP1 POP DUP3 PUSH2 0x15AA JUMP JUMPDEST PUSH4 0x5B5E139F PUSH1 0xE0 SHL DUP2 EQ SWAP2 POP PUSH2 0x15A3 JUMP JUMPDEST CALLVALUE PUSH2 0x1EB JUMPI PUSH1 0x20 DUP1 PUSH1 0x3 NOT CALLDATASIZE ADD SLT PUSH2 0x1EB JUMPI PUSH1 0x0 PUSH1 0x80 PUSH1 0x4 CALLDATALOAD SWAP4 PUSH2 0x15FA DUP2 PUSH2 0x179A JUMP JUMPDEST DUP3 DUP2 MSTORE DUP3 DUP5 DUP3 ADD MSTORE DUP3 PUSH1 0x40 DUP3 ADD MSTORE DUP3 PUSH1 0x60 DUP3 ADD MSTORE ADD MSTORE PUSH1 0x7 SLOAD DUP3 LT ISZERO PUSH2 0x16A9 JUMPI PUSH1 0xA0 SWAP2 PUSH1 0x0 MSTORE PUSH1 0x8 DUP2 MSTORE PUSH1 0x40 PUSH1 0x0 KECCAK256 SWAP1 PUSH2 0x16A1 PUSH1 0x40 MLOAD SWAP3 PUSH2 0x163A DUP5 PUSH2 0x179A JUMP JUMPDEST PUSH1 0x1 DUP1 DUP7 SHL SUB SWAP3 DUP4 DUP3 SLOAD AND DUP6 MSTORE PUSH1 0x1 DUP3 ADD SLOAD SWAP1 DUP1 DUP7 ADD SWAP2 DUP3 MSTORE PUSH1 0x2 DUP4 ADD SLOAD SWAP2 PUSH1 0x40 DUP8 ADD SWAP3 DUP4 MSTORE PUSH1 0x4 PUSH1 0xFF PUSH1 0x3 DUP7 ADD SLOAD AND SWAP5 PUSH2 0x1679 PUSH1 0x60 DUP11 ADD SWAP7 DUP8 PUSH2 0x1B96 JUMP JUMPDEST ADD SLOAD SWAP6 PUSH1 0x80 DUP9 ADD SWAP7 DUP8 MSTORE PUSH1 0x40 MLOAD SWAP8 MLOAD AND DUP8 MSTORE MLOAD SWAP1 DUP7 ADD MSTORE MLOAD PUSH1 0x40 DUP6 ADD MSTORE MLOAD PUSH1 0x60 DUP5 ADD SWAP1 PUSH2 0x16E4 JUMP JUMPDEST MLOAD PUSH1 0x80 DUP3 ADD MSTORE RETURN JUMPDEST PUSH1 0x64 SWAP1 PUSH1 0x40 MLOAD SWAP1 PUSH3 0x461BCD PUSH1 0xE5 SHL DUP3 MSTORE PUSH1 0x4 DUP3 ADD MSTORE PUSH1 0x14 PUSH1 0x24 DUP3 ADD MSTORE PUSH20 0x115D995B9D08191BD95CC81B9BDD08195E1A5CDD PUSH1 0x62 SHL PUSH1 0x44 DUP3 ADD MSTORE REVERT JUMPDEST SWAP1 PUSH1 0x4 DUP3 LT ISZERO PUSH2 0x840 JUMPI MSTORE JUMP JUMPDEST PUSH1 0x0 JUMPDEST DUP4 DUP2 LT PUSH2 0x1704 JUMPI POP POP PUSH1 0x0 SWAP2 ADD MSTORE JUMP JUMPDEST DUP2 DUP2 ADD MLOAD DUP4 DUP3 ADD MSTORE PUSH1 0x20 ADD PUSH2 0x16F4 JUMP JUMPDEST SWAP1 PUSH1 0x20 SWAP2 PUSH2 0x172D DUP2 MLOAD DUP1 SWAP3 DUP2 DUP6 MSTORE DUP6 DUP1 DUP7 ADD SWAP2 ADD PUSH2 0x16F1 JUMP JUMPDEST PUSH1 0x1F ADD PUSH1 0x1F NOT AND ADD ADD SWAP1 JUMP JUMPDEST PUSH1 0x4 CALLDATALOAD SWAP1 PUSH1 0x1 PUSH1 0x1 PUSH1 0xA0 SHL SUB DUP3 AND DUP3 SUB PUSH2 0x1EB JUMPI JUMP JUMPDEST PUSH1 0x24 CALLDATALOAD SWAP1 PUSH1 0x1 PUSH1 0x1 PUSH1 0xA0 SHL SUB DUP3 AND DUP3 SUB PUSH2 0x1EB JUMPI JUMP JUMPDEST PUSH1 0x60 SWAP1 PUSH1 0x3 NOT ADD SLT PUSH2 0x1EB JUMPI PUSH1 0x1 PUSH1 0x1 PUSH1 0xA0 SHL SUB SWAP1 PUSH1 0x4 CALLDATALOAD DUP3 DUP2 AND DUP2 SUB PUSH2 0x1EB JUMPI SWAP2 PUSH1 0x24 CALLDATALOAD SWAP1 DUP2 AND DUP2 SUB PUSH2 0x1EB JUMPI SWAP1 PUSH1 0x44 CALLDATALOAD SWAP1 JUMP JUMPDEST PUSH1 0xA0 DUP2 ADD SWAP1 DUP2 LT PUSH8 0xFFFFFFFFFFFFFFFF DUP3 GT OR PUSH2 0x79C JUMPI PUSH1 0x40 MSTORE JUMP JUMPDEST PUSH1 0x20 DUP2 ADD SWAP1 DUP2 LT PUSH8 0xFFFFFFFFFFFFFFFF DUP3 GT OR PUSH2 0x79C JUMPI PUSH1 0x40 MSTORE JUMP JUMPDEST PUSH1 0x40 DUP2 ADD SWAP1 DUP2 LT PUSH8 0xFFFFFFFFFFFFFFFF DUP3 GT OR PUSH2 0x79C JUMPI PUSH1 0x40 MSTORE JUMP JUMPDEST SWAP1 PUSH1 0x1F DUP1 NOT SWAP2 ADD AND DUP2 ADD SWAP1 DUP2 LT PUSH8 0xFFFFFFFFFFFFFFFF DUP3 GT OR PUSH2 0x79C JUMPI PUSH1 0x40 MSTORE JUMP JUMPDEST PUSH8 0xFFFFFFFFFFFFFFFF DUP2 GT PUSH2 0x79C JUMPI PUSH1 0x1F ADD PUSH1 0x1F NOT AND PUSH1 0x20 ADD SWAP1 JUMP JUMPDEST PUSH1 0x6 SLOAD PUSH1 0x1 PUSH1 0x1 PUSH1 0xA0 SHL SUB AND CALLER SUB PUSH2 0x1840 JUMPI JUMP JUMPDEST PUSH1 0x40 MLOAD PUSH4 0x118CDAA7 PUSH1 0xE0 SHL DUP2 MSTORE CALLER PUSH1 0x4 DUP3 ADD MSTORE PUSH1 0x24 SWAP1 REVERT JUMPDEST PUSH1 0x1 PUSH1 0x1 PUSH1 0xA0 SHL SUB SWAP2 DUP3 AND SWAP3 SWAP1 SWAP2 DUP4 ISZERO PUSH2 0x19DE JUMPI PUSH1 0x0 SWAP3 DUP3 DUP5 MSTORE DUP3 PUSH1 0x20 SWAP6 PUSH1 0x2 DUP8 MSTORE PUSH1 0x40 SWAP7 DUP5 DUP9 DUP9 KECCAK256 SLOAD AND SWAP7 DUP8 SWAP2 CALLER ISZERO ISZERO DUP1 PUSH2 0x1948 JUMPI JUMPDEST POP SWAP1 PUSH1 0x2 PUSH32 0xDDF252AD1BE2C89B69C2B068FC378DAA952BA7F163C4A11628F55A4DF523B3EF SWAP3 DUP5 PUSH2 0x1915 JUMPI JUMPDEST DUP6 DUP4 MSTORE PUSH1 0x3 DUP2 MSTORE DUP12 DUP4 KECCAK256 DUP1 SLOAD PUSH1 0x1 ADD SWAP1 SSTORE DUP7 DUP4 MSTORE MSTORE DUP10 DUP2 KECCAK256 DUP1 SLOAD PUSH1 0x1 PUSH1 0x1 PUSH1 0xA0 SHL SUB NOT AND DUP6 OR SWAP1 SSTORE DUP1 LOG4 AND SWAP3 DUP4 DUP4 SUB PUSH2 0x18F4 JUMPI POP POP POP POP JUMP JUMPDEST PUSH1 0x64 SWAP5 POP MLOAD SWAP3 PUSH4 0x64283D7B PUSH1 0xE0 SHL DUP5 MSTORE PUSH1 0x4 DUP5 ADD MSTORE PUSH1 0x24 DUP4 ADD MSTORE PUSH1 0x44 DUP3 ADD MSTORE REVERT JUMPDEST PUSH1 0x0 DUP8 DUP2 MSTORE PUSH1 0x4 PUSH1 0x20 MSTORE PUSH1 0x40 SWAP1 KECCAK256 DUP1 SLOAD PUSH1 0x1 PUSH1 0x1 PUSH1 0xA0 SHL SUB NOT AND SWAP1 SSTORE DUP5 DUP4 MSTORE PUSH1 0x3 DUP2 MSTORE DUP12 DUP4 KECCAK256 DUP1 SLOAD PUSH1 0x0 NOT ADD SWAP1 SSTORE PUSH2 0x18BB JUMP JUMPDEST SWAP2 SWAP4 SWAP5 POP SWAP2 POP DUP1 PUSH2 0x199D JUMPI JUMPDEST ISZERO PUSH2 0x1964 JUMPI DUP6 SWAP3 SWAP2 DUP8 SWAP2 CODESIZE PUSH2 0x188F JUMP JUMPDEST DUP8 DUP7 DUP9 PUSH2 0x1981 JUMPI PUSH1 0x24 SWAP2 MLOAD SWAP1 PUSH4 0x7E273289 PUSH1 0xE0 SHL DUP3 MSTORE PUSH1 0x4 DUP3 ADD MSTORE REVERT JUMPDEST PUSH1 0x44 SWAP2 MLOAD SWAP1 PUSH4 0x177E802F PUSH1 0xE0 SHL DUP3 MSTORE CALLER PUSH1 0x4 DUP4 ADD MSTORE PUSH1 0x24 DUP3 ADD MSTORE REVERT JUMPDEST POP CALLER DUP8 EQ DUP1 ISZERO PUSH2 0x19C2 JUMPI JUMPDEST DUP1 PUSH2 0x1954 JUMPI POP DUP6 DUP3 MSTORE PUSH1 0x4 DUP2 MSTORE CALLER DUP6 DUP10 DUP5 KECCAK256 SLOAD AND EQ PUSH2 0x1954 JUMP JUMPDEST POP DUP7 DUP3 MSTORE PUSH1 0x5 DUP2 MSTORE DUP8 DUP3 KECCAK256 CALLER DUP4 MSTORE DUP2 MSTORE PUSH1 0xFF DUP9 DUP4 KECCAK256 SLOAD AND PUSH2 0x19A8 JUMP JUMPDEST PUSH1 0x40 MLOAD PUSH4 0x32505749 PUSH1 0xE1 SHL DUP2 MSTORE PUSH1 0x0 PUSH1 0x4 DUP3 ADD MSTORE PUSH1 0x24 SWAP1 REVERT JUMPDEST SWAP3 SWAP1 SWAP3 PUSH2 0x1A05 DUP4 DUP6 DUP4 PUSH2 0x1858 JUMP JUMPDEST DUP4 EXTCODESIZE PUSH2 0x1A12 JUMPI JUMPDEST POP POP POP POP JUMP JUMPDEST PUSH1 0x40 MLOAD PUSH4 0xA85BD01 PUSH1 0xE1 SHL DUP1 DUP3 MSTORE CALLER PUSH1 0x4 DUP4 ADD MSTORE PUSH1 0x1 PUSH1 0x1 PUSH1 0xA0 SHL SUB SWAP3 DUP4 AND PUSH1 0x24 DUP4 ADD MSTORE PUSH1 0x44 DUP3 ADD SWAP5 SWAP1 SWAP5 MSTORE PUSH1 0x80 PUSH1 0x64 DUP3 ADD MSTORE SWAP5 SWAP4 AND SWAP3 PUSH1 0x20 SWAP3 SWAP1 SWAP2 DUP6 SWAP1 PUSH2 0x1A5E SWAP1 PUSH1 0x84 DUP4 ADD SWAP1 PUSH2 0x1714 JUMP JUMPDEST SUB SWAP5 DUP4 DUP2 PUSH1 0x0 SWAP8 DUP2 DUP10 DUP10 GAS CALL DUP7 SWAP2 DUP2 PUSH2 0x1B08 JUMPI JUMPDEST POP PUSH2 0x1AD3 JUMPI POP POP POP RETURNDATASIZE PUSH1 0x0 EQ PUSH2 0x1ACA JUMPI RETURNDATASIZE PUSH2 0x1A8C DUP2 PUSH2 0x1810 JUMP JUMPDEST SWAP1 PUSH2 0x1A9A PUSH1 0x40 MLOAD SWAP3 DUP4 PUSH2 0x17EE JUMP JUMPDEST DUP2 MSTORE DUP1 SWAP4 DUP3 RETURNDATASIZE SWAP3 ADD RETURNDATACOPY JUMPDEST DUP3 MLOAD SWAP3 DUP4 PUSH2 0x1AC5 JUMPI PUSH1 0x40 MLOAD PUSH4 0x32505749 PUSH1 0xE1 SHL DUP2 MSTORE PUSH1 0x4 DUP2 ADD DUP5 SWAP1 MSTORE PUSH1 0x24 SWAP1 REVERT JUMPDEST ADD SWAP1 POP REVERT JUMPDEST PUSH1 0x60 SWAP3 POP PUSH2 0x1AA4 JUMP JUMPDEST SWAP2 SWAP5 POP SWAP2 POP PUSH4 0xFFFFFFFF PUSH1 0xE0 SHL AND SUB PUSH2 0x1AF0 JUMPI POP CODESIZE DUP1 DUP1 DUP1 PUSH2 0x1A0C JUMP JUMPDEST PUSH1 0x24 SWAP1 PUSH1 0x40 MLOAD SWAP1 PUSH4 0x32505749 PUSH1 0xE1 SHL DUP3 MSTORE PUSH1 0x4 DUP3 ADD MSTORE REVERT JUMPDEST SWAP1 SWAP2 POP DUP5 DUP2 DUP2 RETURNDATASIZE DUP4 GT PUSH2 0x1B45 JUMPI JUMPDEST PUSH2 0x1B20 DUP2 DUP4 PUSH2 0x17EE JUMP JUMPDEST DUP2 ADD SUB SLT PUSH2 0x1B41 JUMPI MLOAD PUSH1 0x1 PUSH1 0x1 PUSH1 0xE0 SHL SUB NOT DUP2 AND DUP2 SUB PUSH2 0x1B41 JUMPI SWAP1 CODESIZE PUSH2 0x1A72 JUMP JUMPDEST DUP7 DUP1 REVERT JUMPDEST POP RETURNDATASIZE PUSH2 0x1B16 JUMP JUMPDEST PUSH1 0x0 DUP2 DUP2 MSTORE PUSH1 0x2 PUSH1 0x20 MSTORE PUSH1 0x40 SWAP1 KECCAK256 SLOAD PUSH1 0x1 PUSH1 0x1 PUSH1 0xA0 SHL SUB AND SWAP1 DUP2 ISZERO PUSH2 0x1B6F JUMPI POP SWAP1 JUMP JUMPDEST PUSH1 0x24 SWAP1 PUSH1 0x40 MLOAD SWAP1 PUSH4 0x7E273289 PUSH1 0xE0 SHL DUP3 MSTORE PUSH1 0x4 DUP3 ADD MSTORE REVERT JUMPDEST PUSH1 0x0 NOT DUP2 EQ PUSH2 0x814 JUMPI PUSH1 0x1 ADD SWAP1 JUMP JUMPDEST PUSH1 0x4 DUP3 LT ISZERO PUSH2 0x840 JUMPI MSTORE JUMP JUMPDEST SWAP2 SWAP1 DUP3 ADD DUP1 SWAP3 GT PUSH2 0x814 JUMPI JUMP JUMPDEST DUP2 ISZERO PUSH2 0x1BB9 JUMPI DIV SWAP1 JUMP JUMPDEST PUSH4 0x4E487B71 PUSH1 0xE0 SHL PUSH1 0x0 MSTORE PUSH1 0x12 PUSH1 0x4 MSTORE PUSH1 0x24 PUSH1 0x0 REVERT JUMPDEST SWAP1 PUSH2 0x1BD9 DUP3 PUSH2 0x1810 JUMP JUMPDEST PUSH2 0x1BE6 PUSH1 0x40 MLOAD SWAP2 DUP3 PUSH2 0x17EE JUMP JUMPDEST DUP3 DUP2 MSTORE DUP1 SWAP3 PUSH2 0x1BF7 PUSH1 0x1F NOT SWAP2 PUSH2 0x1810 JUMP JUMPDEST ADD SWAP1 PUSH1 0x20 CALLDATASIZE SWAP2 ADD CALLDATACOPY JUMP JUMPDEST DUP1 MLOAD ISZERO PUSH2 0x1CE4 JUMPI DUP1 MLOAD PUSH1 0x2 SWAP2 DUP3 DUP3 ADD DUP1 SWAP3 GT PUSH2 0x814 JUMPI PUSH1 0x3 SWAP2 DUP3 SWAP1 DIV PUSH1 0x1 PUSH1 0x1 PUSH1 0xFE SHL SUB DUP2 AND DUP2 SUB PUSH2 0x814 JUMPI PUSH2 0x1C3A SWAP1 DUP5 SWAP6 SWAP5 SHL PUSH2 0x1BCF JUMP JUMPDEST SWAP4 PUSH1 0x20 DUP6 ADD SWAP4 DUP3 SWAP2 DUP4 MLOAD DUP5 ADD SWAP1 PUSH1 0x20 DUP3 ADD SWAP3 DUP4 MLOAD SWAP5 PUSH1 0x0 DUP6 MSTORE JUMPDEST DUP4 DUP2 LT PUSH2 0x1C93 JUMPI POP POP POP POP MSTORE MLOAD MOD DUP1 PUSH1 0x1 EQ PUSH2 0x1C80 JUMPI PUSH1 0x2 EQ PUSH2 0x1C75 JUMPI POP SWAP1 JUMP JUMPDEST PUSH1 0x3D SWAP1 PUSH1 0x0 NOT ADD MSTORE8 SWAP1 JUMP JUMPDEST POP PUSH1 0x3D SWAP1 DUP2 PUSH1 0x0 NOT DUP3 ADD MSTORE8 PUSH1 0x1 NOT ADD MSTORE8 SWAP1 JUMP JUMPDEST DUP8 PUSH1 0x4 SWAP2 SWAP10 SWAP3 SWAP4 SWAP5 SWAP10 ADD SWAP2 DUP3 MLOAD PUSH1 0x1 SWAP1 PUSH1 0x3F SWAP1 DUP3 DUP3 DUP3 PUSH1 0x12 SHR AND DUP9 ADD ADD MLOAD DUP5 MSTORE8 DUP3 DUP3 DUP3 PUSH1 0xC SHR AND DUP9 ADD ADD MLOAD DUP4 DUP6 ADD MSTORE8 DUP3 DUP3 DUP3 PUSH1 0x6 SHR AND DUP9 ADD ADD MLOAD DUP9 DUP6 ADD MSTORE8 AND DUP6 ADD ADD MLOAD DUP10 DUP3 ADD MSTORE8 ADD SWAP8 SWAP3 SWAP2 SWAP1 PUSH2 0x1C54 JUMP JUMPDEST POP POP PUSH1 0x40 MLOAD PUSH2 0x1CF2 DUP2 PUSH2 0x17B6 JUMP JUMPDEST PUSH1 0x0 DUP2 MSTORE SWAP1 JUMP JUMPDEST DUP1 PUSH1 0x0 SWAP2 PUSH27 0x184F03E93FF9F4DAA797ED6E38ED64BF6A1F010000000000000000 DUP1 DUP3 LT ISZERO PUSH2 0x1E2E JUMPI JUMPDEST POP PUSH14 0x4EE2D6D415B85ACEF8100000000 DUP1 DUP4 LT ISZERO PUSH2 0x1E1F JUMPI JUMPDEST POP PUSH7 0x2386F26FC10000 DUP1 DUP4 LT ISZERO PUSH2 0x1E10 JUMPI JUMPDEST POP PUSH4 0x5F5E100 DUP1 DUP4 LT ISZERO PUSH2 0x1E01 JUMPI JUMPDEST POP PUSH2 0x2710 DUP1 DUP4 LT ISZERO PUSH2 0x1DF2 JUMPI JUMPDEST POP PUSH1 0x64 DUP3 LT ISZERO PUSH2 0x1DE2 JUMPI JUMPDEST PUSH1 0xA DUP1 SWAP3 LT ISZERO PUSH2 0x1DD8 JUMPI JUMPDEST PUSH1 0x1 SWAP1 DUP2 PUSH1 0x21 PUSH2 0x1D90 DUP3 DUP8 ADD PUSH2 0x1BCF JUMP JUMPDEST SWAP6 DUP7 ADD ADD SWAP1 JUMPDEST PUSH2 0x1DA2 JUMPI JUMPDEST POP POP POP POP SWAP1 JUMP JUMPDEST PUSH1 0x0 NOT ADD SWAP1 DUP4 SWAP1 PUSH16 0x181899199A1A9B1B9C1CB0B131B232B3 PUSH1 0x81 SHL DUP3 DUP3 MOD BYTE DUP4 MSTORE8 DIV SWAP2 DUP3 ISZERO PUSH2 0x1DD3 JUMPI SWAP2 SWAP1 DUP3 PUSH2 0x1D96 JUMP JUMPDEST PUSH2 0x1D9B JUMP JUMPDEST SWAP2 PUSH1 0x1 ADD SWAP2 PUSH2 0x1D7F JUMP JUMPDEST SWAP2 SWAP1 PUSH1 0x64 PUSH1 0x2 SWAP2 DIV SWAP2 ADD SWAP2 PUSH2 0x1D74 JUMP JUMPDEST PUSH1 0x4 SWAP2 SWAP4 SWAP3 DIV SWAP2 ADD SWAP2 CODESIZE PUSH2 0x1D69 JUMP JUMPDEST PUSH1 0x8 SWAP2 SWAP4 SWAP3 DIV SWAP2 ADD SWAP2 CODESIZE PUSH2 0x1D5C JUMP JUMPDEST PUSH1 0x10 SWAP2 SWAP4 SWAP3 DIV SWAP2 ADD SWAP2 CODESIZE PUSH2 0x1D4D JUMP JUMPDEST PUSH1 0x20 SWAP2 SWAP4 SWAP3 DIV SWAP2 ADD SWAP2 CODESIZE PUSH2 0x1D3B JUMP JUMPDEST PUSH1 0x40 SWAP4 POP DUP2 DIV SWAP2 POP CODESIZE PUSH2 0x1D22 JUMP JUMPDEST SWAP1 DUP2 MLOAD DUP2 LT ISZERO PUSH2 0x82A JUMPI ADD PUSH1 0x20 ADD SWAP1 JUMP JUMPDEST PUSH1 0x4 DUP2 LT ISZERO PUSH2 0x840 JUMPI DUP1 ISZERO PUSH2 0x1F0A JUMPI PUSH1 0x1 DUP2 EQ PUSH2 0x1EE0 JUMPI PUSH1 0x2 DUP2 EQ PUSH2 0x1EB9 JUMPI PUSH1 0x3 EQ PUSH2 0x1E96 JUMPI PUSH1 0x40 MLOAD PUSH2 0x1E7F DUP2 PUSH2 0x17D2 JUMP JUMPDEST PUSH1 0x7 DUP2 MSTORE PUSH7 0x2AA725A727ABA7 PUSH1 0xC9 SHL PUSH1 0x20 DUP3 ADD MSTORE SWAP1 JUMP JUMPDEST PUSH1 0x40 MLOAD PUSH2 0x1EA2 DUP2 PUSH2 0x17D2 JUMP JUMPDEST PUSH1 0x7 DUP2 MSTORE PUSH7 0x11115190555315 PUSH1 0xCA SHL PUSH1 0x20 DUP3 ADD MSTORE SWAP1 JUMP JUMPDEST POP PUSH1 0x40 MLOAD PUSH2 0x1EC6 DUP2 PUSH2 0x17D2 JUMP JUMPDEST PUSH1 0xA DUP2 MSTORE PUSH10 0x52455041595F4C415445 PUSH1 0xB0 SHL PUSH1 0x20 DUP3 ADD MSTORE SWAP1 JUMP JUMPDEST POP PUSH1 0x40 MLOAD PUSH2 0x1EED DUP2 PUSH2 0x17D2 JUMP JUMPDEST PUSH1 0xD DUP2 MSTORE PUSH13 0x52455041595F4F4E5F54494D45 PUSH1 0x98 SHL PUSH1 0x20 DUP3 ADD MSTORE SWAP1 JUMP JUMPDEST POP PUSH1 0x40 MLOAD PUSH2 0x1F17 DUP2 PUSH2 0x17D2 JUMP JUMPDEST PUSH1 0x6 DUP2 MSTORE PUSH6 0x424F52524F57 PUSH1 0xD0 SHL PUSH1 0x20 DUP3 ADD MSTORE SWAP1 JUMP JUMPDEST PUSH1 0x1 PUSH1 0x1 PUSH1 0xA0 SHL SUB AND PUSH1 0x0 SWAP1 DUP2 MSTORE PUSH1 0xB PUSH1 0x20 MSTORE PUSH1 0x40 DUP2 KECCAK256 PUSH1 0x1 DUP2 ADD SLOAD SWAP2 SWAP3 SWAP2 ISZERO PUSH2 0x1FAA JUMPI PUSH2 0x1F64 PUSH1 0x4 PUSH1 0x3 DUP4 ADD SLOAD SWAP3 ADD SLOAD DUP3 PUSH2 0x1BA2 JUMP JUMPDEST SWAP1 DUP2 PUSH2 0x1F6E JUMPI POP POP JUMP JUMPDEST PUSH8 0xDE0B6B3A7640000 SWAP1 DUP2 DUP2 MUL SWAP2 DUP2 DUP4 DIV EQ SWAP1 ISZERO OR ISZERO PUSH2 0x1F96 JUMPI PUSH2 0x1F93 SWAP3 SWAP4 POP PUSH2 0x1BAF JUMP JUMPDEST SWAP1 JUMP JUMPDEST PUSH4 0x4E487B71 PUSH1 0xE0 SHL DUP5 MSTORE PUSH1 0x11 PUSH1 0x4 MSTORE PUSH1 0x24 DUP5 REVERT JUMPDEST POP JUMP JUMPDEST PUSH1 0x1 PUSH1 0x1 PUSH1 0xA0 SHL SUB AND PUSH1 0x0 SWAP1 DUP2 MSTORE PUSH1 0xB PUSH1 0x20 MSTORE PUSH1 0x40 SWAP1 KECCAK256 PUSH1 0x5 DUP2 ADD SLOAD SWAP1 DUP2 ISZERO PUSH2 0x1FF8 JUMPI PUSH1 0x2 ADD SLOAD SWAP1 PUSH8 0xDE0B6B3A7640000 SWAP2 DUP3 DUP2 MUL SWAP3 DUP2 DUP5 DIV EQ SWAP1 ISZERO OR ISZERO PUSH2 0x814 JUMPI PUSH2 0x1F93 SWAP2 PUSH2 0x1BAF JUMP JUMPDEST POP POP PUSH1 0x0 SWAP1 JUMP JUMPDEST PUSH1 0x1 PUSH1 0x1 PUSH1 0xA0 SHL SUB AND PUSH1 0x0 SWAP1 DUP2 MSTORE PUSH1 0xB PUSH1 0x20 MSTORE PUSH1 0x40 SWAP1 KECCAK256 PUSH1 0x1 DUP2 ADD SLOAD SWAP1 SLOAD SWAP1 DUP2 DUP2 GT PUSH2 0x1FF8 JUMPI DUP2 SUB SWAP1 DUP2 GT PUSH2 0x814 JUMPI SWAP1 JUMP INVALID LOG2 PUSH5 0x6970667358 0x22 SLT KECCAK256 0xBD RETURNDATACOPY EQ 0x2C 0xE8 DUP6 STOP 0xB2 DUP1 LT PUSH11 0xE69FAB48BF5563AB8E94F 0xC9 PUSH2 0x5A2 0xE MSTORE8 PUSH23 0xC7895D64736F6C63430008140033000000000000000000 "},"methodIdentifiers":{"approve(address,uint256)":"095ea7b3","balanceOf(address)":"70a08231","creditEvents(uint256)":"d6d1c379","getApproved(uint256)":"081812fc","getCreditEvent(uint256)":"007450fd","getCreditSummary(address)":"a016120b","getOutstandingDebt(address)":"1ea6cabc","getSystemMetrics()":"6cfccc2f","getUserEvents(address)":"171e5ba2","isApprovedForAll(address,address)":"e985e9c5","name()":"06fdde03","nextEventId()":"9f9d903a","owner()":"8da5cb5b","ownerOf(uint256)":"6352211e","recordEvent(address,uint256,uint8,bytes32)":"c4092912","renounceOwnership()":"715018a6","safeTransferFrom(address,address,uint256)":"42842e0e","safeTransferFrom(address,address,uint256,bytes)":"b88d4fde","setApprovalForAll(address,bool)":"a22cb465","supportsInterface(bytes4)":"01ffc9a7","symbol()":"95d89b41","tokenURI(uint256)":"c87b56dd","totalSystemBorrowed()":"e36521af","totalSystemDefaults()":"0bab0dcf","totalSystemRepaid()":"7bb0da56","transferFrom(address,address,uint256)":"23b872dd","transferOwnership(address)":"f2fde38b","usedReferences(bytes32)":"6d840783","userTotals(address)":"385c9e7d"}}}}}