{"contracts/DIKEUSCBridge.sol":{"DIKEUSCBridge":{"abi":[{"inputs":[{"internalType":"address","name":"_dikeRegistryAddress","type":"address"}],"stateMutability":"nonpayable","type":"constructor"},{"inputs":[],"name":"EnforcedPause","type":"error"},{"inputs":[],"name":"ExpectedPause","type":"error"},{"inputs":[{"internalType":"address","name":"owner","type":"address"}],"name":"OwnableInvalidOwner","type":"error"},{"inputs":[{"internalType":"address","name":"account","type":"address"}],"name":"OwnableUnauthorizedAccount","type":"error"},{"inputs":[],"name":"ProofAlreadyProcessed","type":"error"},{"inputs":[],"name":"ZeroAmount","type":"error"},{"inputs":[],"name":"ZeroBorrowerAddress","type":"error"},{"inputs":[],"name":"ZeroRegistryAddress","type":"error"},{"anonymous":false,"inputs":[{"indexed":true,"internalType":"address","name":"borrower","type":"address"},{"indexed":false,"internalType":"uint256","name":"amount","type":"uint256"},{"indexed":false,"internalType":"uint256","name":"sourceChainId","type":"uint256"},{"indexed":false,"internalType":"bytes32","name":"sourceTxHash","type":"bytes32"}],"name":"BorrowVerified","type":"event"},{"anonymous":false,"inputs":[{"indexed":true,"internalType":"address","name":"previousOwner","type":"address"},{"indexed":true,"internalType":"address","name":"newOwner","type":"address"}],"name":"OwnershipTransferred","type":"event"},{"anonymous":false,"inputs":[{"indexed":false,"internalType":"address","name":"account","type":"address"}],"name":"Paused","type":"event"},{"anonymous":false,"inputs":[{"indexed":true,"internalType":"address","name":"borrower","type":"address"},{"indexed":false,"internalType":"uint256","name":"amount","type":"uint256"},{"indexed":false,"internalType":"uint256","name":"sourceChainId","type":"uint256"},{"indexed":false,"internalType":"bytes32","name":"sourceTxHash","type":"bytes32"}],"name":"RepaymentVerified","type":"event"},{"anonymous":false,"inputs":[{"indexed":false,"internalType":"address","name":"account","type":"address"}],"name":"Unpaused","type":"event"},{"inputs":[],"name":"dikeRegistry","outputs":[{"internalType":"contract IDIKERegistry","name":"","type":"address"}],"stateMutability":"view","type":"function"},{"inputs":[],"name":"owner","outputs":[{"internalType":"address","name":"","type":"address"}],"stateMutability":"view","type":"function"},{"inputs":[],"name":"pause","outputs":[],"stateMutability":"nonpayable","type":"function"},{"inputs":[],"name":"paused","outputs":[{"internalType":"bool","name":"","type":"bool"}],"stateMutability":"view","type":"function"},{"inputs":[{"internalType":"bytes32","name":"","type":"bytes32"}],"name":"processedProofs","outputs":[{"internalType":"bool","name":"","type":"bool"}],"stateMutability":"view","type":"function"},{"inputs":[],"name":"renounceOwnership","outputs":[],"stateMutability":"nonpayable","type":"function"},{"inputs":[{"internalType":"address","name":"newOwner","type":"address"}],"name":"transferOwnership","outputs":[],"stateMutability":"nonpayable","type":"function"},{"inputs":[],"name":"unpause","outputs":[],"stateMutability":"nonpayable","type":"function"},{"inputs":[{"internalType":"address","name":"borrower","type":"address"},{"internalType":"uint256","name":"amount","type":"uint256"},{"internalType":"uint256","name":"sourceChainId","type":"uint256"},{"internalType":"bytes32","name":"sourceTxHash","type":"bytes32"},{"internalType":"address","name":"sourceProtocol","type":"address"}],"name":"verifyAndRecordBorrow","outputs":[],"stateMutability":"nonpayable","type":"function"},{"inputs":[{"components":[{"internalType":"address","name":"borrower","type":"address"},{"internalType":"uint256","name":"amount","type":"uint256"},{"internalType":"uint256","name":"sourceChainId","type":"uint256"},{"internalType":"bytes32","name":"sourceTxHash","type":"bytes32"},{"internalType":"address","name":"sourceProtocol","type":"address"},{"internalType":"uint256","name":"timestamp","type":"uint256"}],"internalType":"struct DIKEUSCBridge.RepaymentProof","name":"proof","type":"tuple"}],"name":"verifyAndRecordRepayment","outputs":[],"stateMutability":"nonpayable","type":"function"}],"evm":{"bytecode":{"linkReferences":{},"object":"60a0346100ee57601f6108ca38819003918201601f19168301916001600160401b038311848410176100f3578084926020946040528339810103126100ee57516001600160a01b03808216918290036100ee5733156100d5576000543360018060a01b0319821617600055604051913391167f8be0079c531659141344cd1fd0a4f28419497f9722a3daafe3b4186f6b6457e0600080a381156100c657506080526040516107c0908161010a82396080518181816101590152818161031601526105ad0152f35b63d54bd17d60e01b8152600490fd5b604051631e4fbdf760e01b815260006004820152602490fd5b600080fd5b634e487b7160e01b600052604160045260246000fdfe6040608081526004908136101561001557600080fd5b600091823560e01c806325548f46146104eb5780633f4ba83a1461047e5780635c975abb14610459578063715018a6146103fc578063839139c6146103d05780638456cb59146103715780638da5cb5b14610349578063ea3c09d714610301578063f2fde38b146102765763f3a74c1c1461008f57600080fd5b346102725760c0366003190112610272576100a86106db565b6100b0610707565b6001600160a01b0390816100c2610728565b16156102645760243580156102555760643592838652600160205260ff8587205416610245578386526001602052848620600160ff198254161790556044359260843590828216820361024057879187516101538161014560208201948b8b879160549391835260208301526001600160601b03199060601b1660408201520190565b03601f198101835282610768565b519020837f00000000000000000000000000000000000000000000000000000000000000001690610182610728565b91803b1561023c5784928360849288948d519788968795636204948960e11b875216908501528a60248501526001604485015260648401525af180156102325761021a575b50507fed1fc98bd700d0a0e3d55b3bf8dcf2606ccfd58ab2db73bd12d4b87a1033ff8193610214916101f7610728565b169551938493846040919493926060820195825260208201520152565b0390a280f35b6102239061073e565b61022e5785386101c7565b8580fd5b87513d84823e3d90fd5b8480fd5b600080fd5b8451635546991360e01b81528390fd5b508251631f2a200560e01b8152fd5b8251630edd01d560e41b8152fd5b8280fd5b5034610272576020366003190112610272576102906106c5565b906102996106db565b6001600160a01b039182169283156102eb575050600054826001600160601b0360a01b821617600055167f8be0079c531659141344cd1fd0a4f28419497f9722a3daafe3b4186f6b6457e0600080a380f35b51631e4fbdf760e01b8152908101849052602490fd5b505034610345578160031936011261034557517f00000000000000000000000000000000000000000000000000000000000000006001600160a01b03168152602090f35b5080fd5b505034610345578160031936011261034557905490516001600160a01b039091168152602090f35b50503461034557816003193601126103455760207f62e78cea01bee320cd4e420270b5ea74000d11b0c9f74754ebdbfc544b05a258916103af6106db565b6103b7610707565b835460ff60a01b1916600160a01b17845551338152a180f35b5034610272576020366003190112610272578160209360ff923581526001855220541690519015158152f35b83346104565780600319360112610456576104156106db565b600080546001600160a01b0319811682556001600160a01b03167f8be0079c531659141344cd1fd0a4f28419497f9722a3daafe3b4186f6b6457e08280a380f35b80fd5b50503461034557816003193601126103455760ff6020925460a01c1690519015158152f35b50346102725782600319360112610272576104976106db565b82549060ff8260a01c16156104dd575060ff60a01b19168255513381527f5db9ee0a495bf2e6ff9c91a7834c1ba4fdd244a5e8aa4e537bd38aeae4b073aa90602090a180f35b8251638dfc202b60e01b8152fd5b508290346103455760a0366003190112610345576105076106c5565b608435916044359160243591606435916001600160a01b03919082871687036106945782906105346106db565b61053c610707565b169586156106b65784156106a757838852600160205260ff8989205416610698578388526001602052888820600160ff1982541617905588516105a7816101456020820194888b879160549391835260208301526001600160601b03199060601b1660408201520190565b519020917f000000000000000000000000000000000000000000000000000000000000000016803b1561069457608488928389938c519687958694636204948960e11b865285015289602485015282604485015260648401525af1801561068a57610651575b50610214907ff1142dc599a5d8a181cb2a9c0a1b6888e808b1f21a2463f2f24f01fcf5e9e4ca94959651938493846040919493926060820195825260208201520152565b907ff1142dc599a5d8a181cb2a9c0a1b6888e808b1f21a2463f2f24f01fcf5e9e4ca94956106816102149361073e565b9594509061060d565b87513d88823e3d90fd5b8780fd5b508751635546991360e01b8152fd5b508751631f2a200560e01b8152fd5b508751630edd01d560e41b8152fd5b600435906001600160a01b038216820361024057565b6000546001600160a01b031633036106ef57565b60405163118cdaa760e01b8152336004820152602490fd5b60ff60005460a01c1661071657565b60405163d93c066560e01b8152600490fd5b6004356001600160a01b03811681036102405790565b67ffffffffffffffff811161075257604052565b634e487b7160e01b600052604160045260246000fd5b90601f8019910116810190811067ffffffffffffffff8211176107525760405256fea2646970667358221220833b6a3da6106fe63e500f94bc24bdc3bf4074527004b578546c745c6f89481864736f6c63430008140033","opcodes":"PUSH1 0xA0 CALLVALUE PUSH2 0xEE JUMPI PUSH1 0x1F PUSH2 0x8CA CODESIZE DUP2 SWAP1 SUB SWAP2 DUP3 ADD PUSH1 0x1F NOT AND DUP4 ADD SWAP2 PUSH1 0x1 PUSH1 0x1 PUSH1 0x40 SHL SUB DUP4 GT DUP5 DUP5 LT OR PUSH2 0xF3 JUMPI DUP1 DUP5 SWAP3 PUSH1 0x20 SWAP5 PUSH1 0x40 MSTORE DUP4 CODECOPY DUP2 ADD SUB SLT PUSH2 0xEE JUMPI MLOAD PUSH1 0x1 PUSH1 0x1 PUSH1 0xA0 SHL SUB DUP1 DUP3 AND SWAP2 DUP3 SWAP1 SUB PUSH2 0xEE JUMPI CALLER ISZERO PUSH2 0xD5 JUMPI PUSH1 0x0 SLOAD CALLER PUSH1 0x1 DUP1 PUSH1 0xA0 SHL SUB NOT DUP3 AND OR PUSH1 0x0 SSTORE PUSH1 0x40 MLOAD SWAP2 CALLER SWAP2 AND PUSH32 0x8BE0079C531659141344CD1FD0A4F28419497F9722A3DAAFE3B4186F6B6457E0 PUSH1 0x0 DUP1 LOG3 DUP2 ISZERO PUSH2 0xC6 JUMPI POP PUSH1 0x80 MSTORE PUSH1 0x40 MLOAD PUSH2 0x7C0 SWAP1 DUP2 PUSH2 0x10A DUP3 CODECOPY PUSH1 0x80 MLOAD DUP2 DUP2 DUP2 PUSH2 0x159 ADD MSTORE DUP2 DUP2 PUSH2 0x316 ADD MSTORE PUSH2 0x5AD ADD MSTORE RETURN JUMPDEST PUSH4 0xD54BD17D PUSH1 0xE0 SHL DUP2 MSTORE PUSH1 0x4 SWAP1 REVERT JUMPDEST PUSH1 0x40 MLOAD PUSH4 0x1E4FBDF7 PUSH1 0xE0 SHL DUP2 MSTORE PUSH1 0x0 PUSH1 0x4 DUP3 ADD MSTORE PUSH1 0x24 SWAP1 REVERT JUMPDEST PUSH1 0x0 DUP1 REVERT JUMPDEST PUSH4 0x4E487B71 PUSH1 0xE0 SHL PUSH1 0x0 MSTORE PUSH1 0x41 PUSH1 0x4 MSTORE PUSH1 0x24 PUSH1 0x0 REVERT INVALID PUSH1 0x40 PUSH1 0x80 DUP2 MSTORE PUSH1 0x4 SWAP1 DUP2 CALLDATASIZE LT ISZERO PUSH2 0x15 JUMPI PUSH1 0x0 DUP1 REVERT JUMPDEST PUSH1 0x0 SWAP2 DUP3 CALLDATALOAD PUSH1 0xE0 SHR DUP1 PUSH4 0x25548F46 EQ PUSH2 0x4EB JUMPI DUP1 PUSH4 0x3F4BA83A EQ PUSH2 0x47E JUMPI DUP1 PUSH4 0x5C975ABB EQ PUSH2 0x459 JUMPI DUP1 PUSH4 0x715018A6 EQ PUSH2 0x3FC JUMPI DUP1 PUSH4 0x839139C6 EQ PUSH2 0x3D0 JUMPI DUP1 PUSH4 0x8456CB59 EQ PUSH2 0x371 JUMPI DUP1 PUSH4 0x8DA5CB5B EQ PUSH2 0x349 JUMPI DUP1 PUSH4 0xEA3C09D7 EQ PUSH2 0x301 JUMPI DUP1 PUSH4 0xF2FDE38B EQ PUSH2 0x276 JUMPI PUSH4 0xF3A74C1C EQ PUSH2 0x8F JUMPI PUSH1 0x0 DUP1 REVERT JUMPDEST CALLVALUE PUSH2 0x272 JUMPI PUSH1 0xC0 CALLDATASIZE PUSH1 0x3 NOT ADD SLT PUSH2 0x272 JUMPI PUSH2 0xA8 PUSH2 0x6DB JUMP JUMPDEST PUSH2 0xB0 PUSH2 0x707 JUMP JUMPDEST PUSH1 0x1 PUSH1 0x1 PUSH1 0xA0 SHL SUB SWAP1 DUP2 PUSH2 0xC2 PUSH2 0x728 JUMP JUMPDEST AND ISZERO PUSH2 0x264 JUMPI PUSH1 0x24 CALLDATALOAD DUP1 ISZERO PUSH2 0x255 JUMPI PUSH1 0x64 CALLDATALOAD SWAP3 DUP4 DUP7 MSTORE PUSH1 0x1 PUSH1 0x20 MSTORE PUSH1 0xFF DUP6 DUP8 KECCAK256 SLOAD AND PUSH2 0x245 JUMPI DUP4 DUP7 MSTORE PUSH1 0x1 PUSH1 0x20 MSTORE DUP5 DUP7 KECCAK256 PUSH1 0x1 PUSH1 0xFF NOT DUP3 SLOAD AND OR SWAP1 SSTORE PUSH1 0x44 CALLDATALOAD SWAP3 PUSH1 0x84 CALLDATALOAD SWAP1 DUP3 DUP3 AND DUP3 SUB PUSH2 0x240 JUMPI DUP8 SWAP2 DUP8 MLOAD PUSH2 0x153 DUP2 PUSH2 0x145 PUSH1 0x20 DUP3 ADD SWAP5 DUP12 DUP12 DUP8 SWAP2 PUSH1 0x54 SWAP4 SWAP2 DUP4 MSTORE PUSH1 0x20 DUP4 ADD MSTORE PUSH1 0x1 PUSH1 0x1 PUSH1 0x60 SHL SUB NOT SWAP1 PUSH1 0x60 SHL AND PUSH1 0x40 DUP3 ADD MSTORE ADD SWAP1 JUMP JUMPDEST SUB PUSH1 0x1F NOT DUP2 ADD DUP4 MSTORE DUP3 PUSH2 0x768 JUMP JUMPDEST MLOAD SWAP1 KECCAK256 DUP4 PUSH32 0x0 AND SWAP1 PUSH2 0x182 PUSH2 0x728 JUMP JUMPDEST SWAP2 DUP1 EXTCODESIZE ISZERO PUSH2 0x23C JUMPI DUP5 SWAP3 DUP4 PUSH1 0x84 SWAP3 DUP9 SWAP5 DUP14 MLOAD SWAP8 DUP9 SWAP7 DUP8 SWAP6 PUSH4 0x62049489 PUSH1 0xE1 SHL DUP8 MSTORE AND SWAP1 DUP6 ADD MSTORE DUP11 PUSH1 0x24 DUP6 ADD MSTORE PUSH1 0x1 PUSH1 0x44 DUP6 ADD MSTORE PUSH1 0x64 DUP5 ADD MSTORE GAS CALL DUP1 ISZERO PUSH2 0x232 JUMPI PUSH2 0x21A JUMPI JUMPDEST POP POP PUSH32 0xED1FC98BD700D0A0E3D55B3BF8DCF2606CCFD58AB2DB73BD12D4B87A1033FF81 SWAP4 PUSH2 0x214 SWAP2 PUSH2 0x1F7 PUSH2 0x728 JUMP JUMPDEST AND SWAP6 MLOAD SWAP4 DUP5 SWAP4 DUP5 PUSH1 0x40 SWAP2 SWAP5 SWAP4 SWAP3 PUSH1 0x60 DUP3 ADD SWAP6 DUP3 MSTORE PUSH1 0x20 DUP3 ADD MSTORE ADD MSTORE JUMP JUMPDEST SUB SWAP1 LOG2 DUP1 RETURN JUMPDEST PUSH2 0x223 SWAP1 PUSH2 0x73E JUMP JUMPDEST PUSH2 0x22E JUMPI DUP6 CODESIZE PUSH2 0x1C7 JUMP JUMPDEST DUP6 DUP1 REVERT JUMPDEST DUP8 MLOAD RETURNDATASIZE DUP5 DUP3 RETURNDATACOPY RETURNDATASIZE SWAP1 REVERT JUMPDEST DUP5 DUP1 REVERT JUMPDEST PUSH1 0x0 DUP1 REVERT JUMPDEST DUP5 MLOAD PUSH4 0x55469913 PUSH1 0xE0 SHL DUP2 MSTORE DUP4 SWAP1 REVERT JUMPDEST POP DUP3 MLOAD PUSH4 0x1F2A2005 PUSH1 0xE0 SHL DUP2 MSTORE REVERT JUMPDEST DUP3 MLOAD PUSH4 0xEDD01D5 PUSH1 0xE4 SHL DUP2 MSTORE REVERT JUMPDEST DUP3 DUP1 REVERT JUMPDEST POP CALLVALUE PUSH2 0x272 JUMPI PUSH1 0x20 CALLDATASIZE PUSH1 0x3 NOT ADD SLT PUSH2 0x272 JUMPI PUSH2 0x290 PUSH2 0x6C5 JUMP JUMPDEST SWAP1 PUSH2 0x299 PUSH2 0x6DB JUMP JUMPDEST PUSH1 0x1 PUSH1 0x1 PUSH1 0xA0 SHL SUB SWAP2 DUP3 AND SWAP3 DUP4 ISZERO PUSH2 0x2EB JUMPI POP POP PUSH1 0x0 SLOAD DUP3 PUSH1 0x1 PUSH1 0x1 PUSH1 0x60 SHL SUB PUSH1 0xA0 SHL DUP3 AND OR PUSH1 0x0 SSTORE AND PUSH32 0x8BE0079C531659141344CD1FD0A4F28419497F9722A3DAAFE3B4186F6B6457E0 PUSH1 0x0 DUP1 LOG3 DUP1 RETURN JUMPDEST MLOAD PUSH4 0x1E4FBDF7 PUSH1 0xE0 SHL DUP2 MSTORE SWAP1 DUP2 ADD DUP5 SWAP1 MSTORE PUSH1 0x24 SWAP1 REVERT JUMPDEST POP POP CALLVALUE PUSH2 0x345 JUMPI DUP2 PUSH1 0x3 NOT CALLDATASIZE ADD SLT PUSH2 0x345 JUMPI MLOAD PUSH32 0x0 PUSH1 0x1 PUSH1 0x1 PUSH1 0xA0 SHL SUB AND DUP2 MSTORE PUSH1 0x20 SWAP1 RETURN JUMPDEST POP DUP1 REVERT JUMPDEST POP POP CALLVALUE PUSH2 0x345 JUMPI DUP2 PUSH1 0x3 NOT CALLDATASIZE ADD SLT PUSH2 0x345 JUMPI SWAP1 SLOAD SWAP1 MLOAD PUSH1 0x1 PUSH1 0x1 PUSH1 0xA0 SHL SUB SWAP1 SWAP2 AND DUP2 MSTORE PUSH1 0x20 SWAP1 RETURN JUMPDEST POP POP CALLVALUE PUSH2 0x345 JUMPI DUP2 PUSH1 0x3 NOT CALLDATASIZE ADD SLT PUSH2 0x345 JUMPI PUSH1 0x20 PUSH32 0x62E78CEA01BEE320CD4E420270B5EA74000D11B0C9F74754EBDBFC544B05A258 SWAP2 PUSH2 0x3AF PUSH2 0x6DB JUMP JUMPDEST PUSH2 0x3B7 PUSH2 0x707 JUMP JUMPDEST DUP4 SLOAD PUSH1 0xFF PUSH1 0xA0 SHL NOT AND PUSH1 0x1 PUSH1 0xA0 SHL OR DUP5 SSTORE MLOAD CALLER DUP2 MSTORE LOG1 DUP1 RETURN JUMPDEST POP CALLVALUE PUSH2 0x272 JUMPI PUSH1 0x20 CALLDATASIZE PUSH1 0x3 NOT ADD SLT PUSH2 0x272 JUMPI DUP2 PUSH1 0x20 SWAP4 PUSH1 0xFF SWAP3 CALLDATALOAD DUP2 MSTORE PUSH1 0x1 DUP6 MSTORE KECCAK256 SLOAD AND SWAP1 MLOAD SWAP1 ISZERO ISZERO DUP2 MSTORE RETURN JUMPDEST DUP4 CALLVALUE PUSH2 0x456 JUMPI DUP1 PUSH1 0x3 NOT CALLDATASIZE ADD SLT PUSH2 0x456 JUMPI PUSH2 0x415 PUSH2 0x6DB JUMP JUMPDEST PUSH1 0x0 DUP1 SLOAD PUSH1 0x1 PUSH1 0x1 PUSH1 0xA0 SHL SUB NOT DUP2 AND DUP3 SSTORE PUSH1 0x1 PUSH1 0x1 PUSH1 0xA0 SHL SUB AND PUSH32 0x8BE0079C531659141344CD1FD0A4F28419497F9722A3DAAFE3B4186F6B6457E0 DUP3 DUP1 LOG3 DUP1 RETURN JUMPDEST DUP1 REVERT JUMPDEST POP POP CALLVALUE PUSH2 0x345 JUMPI DUP2 PUSH1 0x3 NOT CALLDATASIZE ADD SLT PUSH2 0x345 JUMPI PUSH1 0xFF PUSH1 0x20 SWAP3 SLOAD PUSH1 0xA0 SHR AND SWAP1 MLOAD SWAP1 ISZERO ISZERO DUP2 MSTORE RETURN JUMPDEST POP CALLVALUE PUSH2 0x272 JUMPI DUP3 PUSH1 0x3 NOT CALLDATASIZE ADD SLT PUSH2 0x272 JUMPI PUSH2 0x497 PUSH2 0x6DB JUMP JUMPDEST DUP3 SLOAD SWAP1 PUSH1 0xFF DUP3 PUSH1 0xA0 SHR AND ISZERO PUSH2 0x4DD JUMPI POP PUSH1 0xFF PUSH1 0xA0 SHL NOT AND DUP3 SSTORE MLOAD CALLER DUP2 MSTORE PUSH32 0x5DB9EE0A495BF2E6FF9C91A7834C1BA4FDD244A5E8AA4E537BD38AEAE4B073AA SWAP1 PUSH1 0x20 SWAP1 LOG1 DUP1 RETURN JUMPDEST DUP3 MLOAD PUSH4 0x8DFC202B PUSH1 0xE0 SHL DUP2 MSTORE REVERT JUMPDEST POP DUP3 SWAP1 CALLVALUE PUSH2 0x345 JUMPI PUSH1 0xA0 CALLDATASIZE PUSH1 0x3 NOT ADD SLT PUSH2 0x345 JUMPI PUSH2 0x507 PUSH2 0x6C5 JUMP JUMPDEST PUSH1 0x84 CALLDATALOAD SWAP2 PUSH1 0x44 CALLDATALOAD SWAP2 PUSH1 0x24 CALLDATALOAD SWAP2 PUSH1 0x64 CALLDATALOAD SWAP2 PUSH1 0x1 PUSH1 0x1 PUSH1 0xA0 SHL SUB SWAP2 SWAP1 DUP3 DUP8 AND DUP8 SUB PUSH2 0x694 JUMPI DUP3 SWAP1 PUSH2 0x534 PUSH2 0x6DB JUMP JUMPDEST PUSH2 0x53C PUSH2 0x707 JUMP JUMPDEST AND SWAP6 DUP7 ISZERO PUSH2 0x6B6 JUMPI DUP5 ISZERO PUSH2 0x6A7 JUMPI DUP4 DUP9 MSTORE PUSH1 0x1 PUSH1 0x20 MSTORE PUSH1 0xFF DUP10 DUP10 KECCAK256 SLOAD AND PUSH2 0x698 JUMPI DUP4 DUP9 MSTORE PUSH1 0x1 PUSH1 0x20 MSTORE DUP9 DUP9 KECCAK256 PUSH1 0x1 PUSH1 0xFF NOT DUP3 SLOAD AND OR SWAP1 SSTORE DUP9 MLOAD PUSH2 0x5A7 DUP2 PUSH2 0x145 PUSH1 0x20 DUP3 ADD SWAP5 DUP9 DUP12 DUP8 SWAP2 PUSH1 0x54 SWAP4 SWAP2 DUP4 MSTORE PUSH1 0x20 DUP4 ADD MSTORE PUSH1 0x1 PUSH1 0x1 PUSH1 0x60 SHL SUB NOT SWAP1 PUSH1 0x60 SHL AND PUSH1 0x40 DUP3 ADD MSTORE ADD SWAP1 JUMP JUMPDEST MLOAD SWAP1 KECCAK256 SWAP2 PUSH32 0x0 AND DUP1 EXTCODESIZE ISZERO PUSH2 0x694 JUMPI PUSH1 0x84 DUP9 SWAP3 DUP4 DUP10 SWAP4 DUP13 MLOAD SWAP7 DUP8 SWAP6 DUP7 SWAP5 PUSH4 0x62049489 PUSH1 0xE1 SHL DUP7 MSTORE DUP6 ADD MSTORE DUP10 PUSH1 0x24 DUP6 ADD MSTORE DUP3 PUSH1 0x44 DUP6 ADD MSTORE PUSH1 0x64 DUP5 ADD MSTORE GAS CALL DUP1 ISZERO PUSH2 0x68A JUMPI PUSH2 0x651 JUMPI JUMPDEST POP PUSH2 0x214 SWAP1 PUSH32 0xF1142DC599A5D8A181CB2A9C0A1B6888E808B1F21A2463F2F24F01FCF5E9E4CA SWAP5 SWAP6 SWAP7 MLOAD SWAP4 DUP5 SWAP4 DUP5 PUSH1 0x40 SWAP2 SWAP5 SWAP4 SWAP3 PUSH1 0x60 DUP3 ADD SWAP6 DUP3 MSTORE PUSH1 0x20 DUP3 ADD MSTORE ADD MSTORE JUMP JUMPDEST SWAP1 PUSH32 0xF1142DC599A5D8A181CB2A9C0A1B6888E808B1F21A2463F2F24F01FCF5E9E4CA SWAP5 SWAP6 PUSH2 0x681 PUSH2 0x214 SWAP4 PUSH2 0x73E JUMP JUMPDEST SWAP6 SWAP5 POP SWAP1 PUSH2 0x60D JUMP JUMPDEST DUP8 MLOAD RETURNDATASIZE DUP9 DUP3 RETURNDATACOPY RETURNDATASIZE SWAP1 REVERT JUMPDEST DUP8 DUP1 REVERT JUMPDEST POP DUP8 MLOAD PUSH4 0x55469913 PUSH1 0xE0 SHL DUP2 MSTORE REVERT JUMPDEST POP DUP8 MLOAD PUSH4 0x1F2A2005 PUSH1 0xE0 SHL DUP2 MSTORE REVERT JUMPDEST POP DUP8 MLOAD PUSH4 0xEDD01D5 PUSH1 0xE4 SHL DUP2 MSTORE REVERT JUMPDEST PUSH1 0x4 CALLDATALOAD SWAP1 PUSH1 0x1 PUSH1 0x1 PUSH1 0xA0 SHL SUB DUP3 AND DUP3 SUB PUSH2 0x240 JUMPI JUMP JUMPDEST PUSH1 0x0 SLOAD PUSH1 0x1 PUSH1 0x1 PUSH1 0xA0 SHL SUB AND CALLER SUB PUSH2 0x6EF JUMPI JUMP JUMPDEST PUSH1 0x40 MLOAD PUSH4 0x118CDAA7 PUSH1 0xE0 SHL DUP2 MSTORE CALLER PUSH1 0x4 DUP3 ADD MSTORE PUSH1 0x24 SWAP1 REVERT JUMPDEST PUSH1 0xFF PUSH1 0x0 SLOAD PUSH1 0xA0 SHR AND PUSH2 0x716 JUMPI JUMP JUMPDEST PUSH1 0x40 MLOAD PUSH4 0xD93C0665 PUSH1 0xE0 SHL DUP2 MSTORE PUSH1 0x4 SWAP1 REVERT JUMPDEST PUSH1 0x4 CALLDATALOAD PUSH1 0x1 PUSH1 0x1 PUSH1 0xA0 SHL SUB DUP2 AND DUP2 SUB PUSH2 0x240 JUMPI SWAP1 JUMP JUMPDEST PUSH8 0xFFFFFFFFFFFFFFFF DUP2 GT PUSH2 0x752 JUMPI PUSH1 0x40 MSTORE JUMP JUMPDEST PUSH4 0x4E487B71 PUSH1 0xE0 SHL PUSH1 0x0 MSTORE PUSH1 0x41 PUSH1 0x4 MSTORE PUSH1 0x24 PUSH1 0x0 REVERT JUMPDEST SWAP1 PUSH1 0x1F DUP1 NOT SWAP2 ADD AND DUP2 ADD SWAP1 DUP2 LT PUSH8 0xFFFFFFFFFFFFFFFF DUP3 GT OR PUSH2 0x752 JUMPI PUSH1 0x40 MSTORE JUMP INVALID LOG2 PUSH5 0x6970667358 0x22 SLT KECCAK256 DUP4 EXTCODESIZE PUSH11 0x3DA6106FE63E500F94BC24 0xBD 0xC3 0xBF BLOCKHASH PUSH21 0x527004B578546C745C6F89481864736F6C63430008 EQ STOP CALLER "},"methodIdentifiers":{"dikeRegistry()":"ea3c09d7","owner()":"8da5cb5b","pause()":"8456cb59","paused()":"5c975abb","processedProofs(bytes32)":"839139c6","renounceOwnership()":"715018a6","transferOwnership(address)":"f2fde38b","unpause()":"3f4ba83a","verifyAndRecordBorrow(address,uint256,uint256,bytes32,address)":"25548f46","verifyAndRecordRepayment((address,uint256,uint256,bytes32,address,uint256))":"f3a74c1c"}}}}}