{"contracts/MockLendingProtocol.sol":{"MockLendingProtocol":{"abi":[{"inputs":[{"internalType":"address","name":"_token","type":"address"}],"stateMutability":"nonpayable","type":"constructor"},{"inputs":[{"internalType":"address","name":"owner","type":"address"}],"name":"OwnableInvalidOwner","type":"error"},{"inputs":[{"internalType":"address","name":"account","type":"address"}],"name":"OwnableUnauthorizedAccount","type":"error"},{"anonymous":false,"inputs":[{"indexed":true,"internalType":"address","name":"borrower","type":"address"},{"indexed":false,"internalType":"uint256","name":"loanId","type":"uint256"},{"indexed":false,"internalType":"uint256","name":"amount","type":"uint256"}],"name":"LoanBorrowed","type":"event"},{"anonymous":false,"inputs":[{"indexed":true,"internalType":"address","name":"borrower","type":"address"},{"indexed":false,"internalType":"uint256","name":"loanId","type":"uint256"},{"indexed":false,"internalType":"uint256","name":"amount","type":"uint256"},{"indexed":false,"internalType":"uint256","name":"timestamp","type":"uint256"}],"name":"LoanRepaid","type":"event"},{"anonymous":false,"inputs":[{"indexed":true,"internalType":"address","name":"previousOwner","type":"address"},{"indexed":true,"internalType":"address","name":"newOwner","type":"address"}],"name":"OwnershipTransferred","type":"event"},{"inputs":[{"internalType":"uint256","name":"amount","type":"uint256"}],"name":"borrow","outputs":[],"stateMutability":"nonpayable","type":"function"},{"inputs":[{"internalType":"uint256","name":"amount","type":"uint256"}],"name":"fund","outputs":[],"stateMutability":"nonpayable","type":"function"},{"inputs":[],"name":"owner","outputs":[{"internalType":"address","name":"","type":"address"}],"stateMutability":"view","type":"function"},{"inputs":[],"name":"renounceOwnership","outputs":[],"stateMutability":"nonpayable","type":"function"},{"inputs":[{"internalType":"uint256","name":"loanId","type":"uint256"}],"name":"repay","outputs":[],"stateMutability":"nonpayable","type":"function"},{"inputs":[],"name":"token","outputs":[{"internalType":"contract IERC20","name":"","type":"address"}],"stateMutability":"view","type":"function"},{"inputs":[{"internalType":"address","name":"newOwner","type":"address"}],"name":"transferOwnership","outputs":[],"stateMutability":"nonpayable","type":"function"},{"inputs":[{"internalType":"address","name":"","type":"address"},{"internalType":"uint256","name":"","type":"uint256"}],"name":"userLoans","outputs":[{"internalType":"uint256","name":"principal","type":"uint256"},{"internalType":"uint256","name":"borrowedAt","type":"uint256"},{"internalType":"bool","name":"repaid","type":"bool"}],"stateMutability":"view","type":"function"}],"evm":{"bytecode":{"linkReferences":{},"object":"60a0346100dc57601f6108fe38819003918201601f19168301916001600160401b038311848410176100e1578084926020946040528339810103126100dc57516001600160a01b0390818116908190036100dc5733156100c3576000543360018060a01b0319821617600055604051923391167f8be0079c531659141344cd1fd0a4f28419497f9722a3daafe3b4186f6b6457e0600080a360805261080690816100f8823960805181818160900152818161021f0152818161039701526105710152f35b604051631e4fbdf760e01b815260006004820152602490fd5b600080fd5b634e487b7160e01b600052604160045260246000fdfe608060408181526004918236101561001657600080fd5b600092833560e01c918263371fd8e6146104e757508163715018a61461048d5781638da5cb5b14610465578163c5ebeaec146102cd578163ca1d209d146101be578163d8bad5bd1461014e578163f2fde38b146100c3575063fc0c546a1461007d57600080fd5b346100bf57816003193601126100bf57517f00000000000000000000000000000000000000000000000000000000000000006001600160a01b03168152602090f35b5080fd5b90503461014a57602036600319011261014a576100de61067e565b906100e76106cb565b6001600160a01b0391821692831561013457505082546001600160a01b0319811683178455167f8be0079c531659141344cd1fd0a4f28419497f9722a3daafe3b4186f6b6457e08380a380f35b51631e4fbdf760e01b8152908101849052602490fd5b8280fd5b5050346100bf57806003193601126100bf5761016861067e565b6001600160a01b031682526001602052808220805460243593908410156101bb575060609261019691610699565b509081549160ff60026001830154920154169082519384526020840152151590820152f35b80fd5b9190503461014a57602036600319011261014a5761021a602083356101e16106cb565b6101ec8115156106f7565b83516323b872dd60e01b81523386820190815230602082015260408101929092529283918291606090910190565b0381877f00000000000000000000000000000000000000000000000000000000000000006001600160a01b03165af19081156102c3578491610295575b5015610261578280f35b906020606492519162461bcd60e51b8352820152600e60248201526d119d5b991a5b99c819985a5b195960921b6044820152fd5b6102b6915060203d81116102bc575b6102ae8183610742565b81019061077a565b38610257565b503d6102a4565b82513d86823e3d90fd5b9190503461014a57602090816003193601126104615782356102f08115156106f7565b338552600183528185209283549383516060810181811067ffffffffffffffff82111761044e578552838152828101428152858201928984526801000000000000000088101561043b578761034a91600182018155610699565b929092610429579060029291518255516001820155019051151560ff8019835416911617905582519463a9059cbb60e01b8652339086015281602486015280856044818960018060a01b037f0000000000000000000000000000000000000000000000000000000000000000165af194851561041f577f85d2ace8876663584e65ae889b8c3984c9a31b5b594750252e6bda129da8283d94956103f4918891610402575b50610792565b82519485528401523392a280f35b6104199150833d85116102bc576102ae8183610742565b386103ee565b83513d88823e3d90fd5b634e487b7160e01b8a5289895260248afd5b634e487b7160e01b8a526041895260248afd5b634e487b7160e01b895260418852602489fd5b8380fd5b5050346100bf57816003193601126100bf57905490516001600160a01b039091168152602090f35b83346101bb57806003193601126101bb576104a66106cb565b80546001600160a01b03198116825581906001600160a01b03167f8be0079c531659141344cd1fd0a4f28419497f9722a3daafe3b4186f6b6457e08280a380f35b92915034610461576020908160031936011261067a57803593338652600183528386205485101561064557503385526001825261052684848720610699565b509060028201805460ff811661060c5760ff19166001179055815484516323b872dd60e01b8152339281019283523060208401526040830191909152908390829081906060010381897f00000000000000000000000000000000000000000000000000000000000000006001600160a01b03165af190811561060257906105b39187916105eb5750610792565b5490825193845283015242908201527f2cebe3c4a7e8e81ca2035a6cb3ee450bb6401d9b6636652e183583f04704957260603392a280f35b6104199150843d86116102bc576102ae8183610742565b84513d88823e3d90fd5b855162461bcd60e51b81528084018690526013602482015272131bd85b88185b1c9958591e481c995c185a59606a1b6044820152606490fd5b8260649262461bcd60e51b83528201526013602482015272131bd85b88191bd95cc81b9bdd08195e1a5cdd606a1b6044820152fd5b8480fd5b600435906001600160a01b038216820361069457565b600080fd5b80548210156106b5576000526003602060002091020190600090565b634e487b7160e01b600052603260045260246000fd5b6000546001600160a01b031633036106df57565b60405163118cdaa760e01b8152336004820152602490fd5b156106fe57565b606460405162461bcd60e51b815260206004820152602060248201527f416d6f756e74206d7573742062652067726561746572207468616e207a65726f6044820152fd5b90601f8019910116810190811067ffffffffffffffff82111761076457604052565b634e487b7160e01b600052604160045260246000fd5b90816020910312610694575180151581036106945790565b1561079957565b60405162461bcd60e51b815260206004820152600f60248201526e151c985b9cd9995c8819985a5b1959608a1b6044820152606490fdfea2646970667358221220977360c255648a89b8a447b53bf73d1be61b90988d2039b854d30038c7bab6fc64736f6c63430008140033","opcodes":"PUSH1 0xA0 CALLVALUE PUSH2 0xDC JUMPI PUSH1 0x1F PUSH2 0x8FE CODESIZE DUP2 SWAP1 SUB SWAP2 DUP3 ADD PUSH1 0x1F NOT AND DUP4 ADD SWAP2 PUSH1 0x1 PUSH1 0x1 PUSH1 0x40 SHL SUB DUP4 GT DUP5 DUP5 LT OR PUSH2 0xE1 JUMPI DUP1 DUP5 SWAP3 PUSH1 0x20 SWAP5 PUSH1 0x40 MSTORE DUP4 CODECOPY DUP2 ADD SUB SLT PUSH2 0xDC JUMPI MLOAD PUSH1 0x1 PUSH1 0x1 PUSH1 0xA0 SHL SUB SWAP1 DUP2 DUP2 AND SWAP1 DUP2 SWAP1 SUB PUSH2 0xDC JUMPI CALLER ISZERO PUSH2 0xC3 JUMPI PUSH1 0x0 SLOAD CALLER PUSH1 0x1 DUP1 PUSH1 0xA0 SHL SUB NOT DUP3 AND OR PUSH1 0x0 SSTORE PUSH1 0x40 MLOAD SWAP3 CALLER SWAP2 AND PUSH32 0x8BE0079C531659141344CD1FD0A4F28419497F9722A3DAAFE3B4186F6B6457E0 PUSH1 0x0 DUP1 LOG3 PUSH1 0x80 MSTORE PUSH2 0x806 SWAP1 DUP2 PUSH2 0xF8 DUP3 CODECOPY PUSH1 0x80 MLOAD DUP2 DUP2 DUP2 PUSH1 0x90 ADD MSTORE DUP2 DUP2 PUSH2 0x21F ADD MSTORE DUP2 DUP2 PUSH2 0x397 ADD MSTORE PUSH2 0x571 ADD MSTORE RETURN JUMPDEST PUSH1 0x40 MLOAD PUSH4 0x1E4FBDF7 PUSH1 0xE0 SHL DUP2 MSTORE PUSH1 0x0 PUSH1 0x4 DUP3 ADD MSTORE PUSH1 0x24 SWAP1 REVERT JUMPDEST PUSH1 0x0 DUP1 REVERT JUMPDEST PUSH4 0x4E487B71 PUSH1 0xE0 SHL PUSH1 0x0 MSTORE PUSH1 0x41 PUSH1 0x4 MSTORE PUSH1 0x24 PUSH1 0x0 REVERT INVALID PUSH1 0x80 PUSH1 0x40 DUP2 DUP2 MSTORE PUSH1 0x4 SWAP2 DUP3 CALLDATASIZE LT ISZERO PUSH2 0x16 JUMPI PUSH1 0x0 DUP1 REVERT JUMPDEST PUSH1 0x0 SWAP3 DUP4 CALLDATALOAD PUSH1 0xE0 SHR SWAP2 DUP3 PUSH4 0x371FD8E6 EQ PUSH2 0x4E7 JUMPI POP DUP2 PUSH4 0x715018A6 EQ PUSH2 0x48D JUMPI DUP2 PUSH4 0x8DA5CB5B EQ PUSH2 0x465 JUMPI DUP2 PUSH4 0xC5EBEAEC EQ PUSH2 0x2CD JUMPI DUP2 PUSH4 0xCA1D209D EQ PUSH2 0x1BE JUMPI DUP2 PUSH4 0xD8BAD5BD EQ PUSH2 0x14E JUMPI DUP2 PUSH4 0xF2FDE38B EQ PUSH2 0xC3 JUMPI POP PUSH4 0xFC0C546A EQ PUSH2 0x7D JUMPI PUSH1 0x0 DUP1 REVERT JUMPDEST CALLVALUE PUSH2 0xBF JUMPI DUP2 PUSH1 0x3 NOT CALLDATASIZE ADD SLT PUSH2 0xBF JUMPI MLOAD PUSH32 0x0 PUSH1 0x1 PUSH1 0x1 PUSH1 0xA0 SHL SUB AND DUP2 MSTORE PUSH1 0x20 SWAP1 RETURN JUMPDEST POP DUP1 REVERT JUMPDEST SWAP1 POP CALLVALUE PUSH2 0x14A JUMPI PUSH1 0x20 CALLDATASIZE PUSH1 0x3 NOT ADD SLT PUSH2 0x14A JUMPI PUSH2 0xDE PUSH2 0x67E JUMP JUMPDEST SWAP1 PUSH2 0xE7 PUSH2 0x6CB JUMP JUMPDEST PUSH1 0x1 PUSH1 0x1 PUSH1 0xA0 SHL SUB SWAP2 DUP3 AND SWAP3 DUP4 ISZERO PUSH2 0x134 JUMPI POP POP DUP3 SLOAD PUSH1 0x1 PUSH1 0x1 PUSH1 0xA0 SHL SUB NOT DUP2 AND DUP4 OR DUP5 SSTORE AND PUSH32 0x8BE0079C531659141344CD1FD0A4F28419497F9722A3DAAFE3B4186F6B6457E0 DUP4 DUP1 LOG3 DUP1 RETURN JUMPDEST MLOAD PUSH4 0x1E4FBDF7 PUSH1 0xE0 SHL DUP2 MSTORE SWAP1 DUP2 ADD DUP5 SWAP1 MSTORE PUSH1 0x24 SWAP1 REVERT JUMPDEST DUP3 DUP1 REVERT JUMPDEST POP POP CALLVALUE PUSH2 0xBF JUMPI DUP1 PUSH1 0x3 NOT CALLDATASIZE ADD SLT PUSH2 0xBF JUMPI PUSH2 0x168 PUSH2 0x67E JUMP JUMPDEST PUSH1 0x1 PUSH1 0x1 PUSH1 0xA0 SHL SUB AND DUP3 MSTORE PUSH1 0x1 PUSH1 0x20 MSTORE DUP1 DUP3 KECCAK256 DUP1 SLOAD PUSH1 0x24 CALLDATALOAD SWAP4 SWAP1 DUP5 LT ISZERO PUSH2 0x1BB JUMPI POP PUSH1 0x60 SWAP3 PUSH2 0x196 SWAP2 PUSH2 0x699 JUMP JUMPDEST POP SWAP1 DUP2 SLOAD SWAP2 PUSH1 0xFF PUSH1 0x2 PUSH1 0x1 DUP4 ADD SLOAD SWAP3 ADD SLOAD AND SWAP1 DUP3 MLOAD SWAP4 DUP5 MSTORE PUSH1 0x20 DUP5 ADD MSTORE ISZERO ISZERO SWAP1 DUP3 ADD MSTORE RETURN JUMPDEST DUP1 REVERT JUMPDEST SWAP2 SWAP1 POP CALLVALUE PUSH2 0x14A JUMPI PUSH1 0x20 CALLDATASIZE PUSH1 0x3 NOT ADD SLT PUSH2 0x14A JUMPI PUSH2 0x21A PUSH1 0x20 DUP4 CALLDATALOAD PUSH2 0x1E1 PUSH2 0x6CB JUMP JUMPDEST PUSH2 0x1EC DUP2 ISZERO ISZERO PUSH2 0x6F7 JUMP JUMPDEST DUP4 MLOAD PUSH4 0x23B872DD PUSH1 0xE0 SHL DUP2 MSTORE CALLER DUP7 DUP3 ADD SWAP1 DUP2 MSTORE ADDRESS PUSH1 0x20 DUP3 ADD MSTORE PUSH1 0x40 DUP2 ADD SWAP3 SWAP1 SWAP3 MSTORE SWAP3 DUP4 SWAP2 DUP3 SWAP2 PUSH1 0x60 SWAP1 SWAP2 ADD SWAP1 JUMP JUMPDEST SUB DUP2 DUP8 PUSH32 0x0 PUSH1 0x1 PUSH1 0x1 PUSH1 0xA0 SHL SUB AND GAS CALL SWAP1 DUP2 ISZERO PUSH2 0x2C3 JUMPI DUP5 SWAP2 PUSH2 0x295 JUMPI JUMPDEST POP ISZERO PUSH2 0x261 JUMPI DUP3 DUP1 RETURN JUMPDEST SWAP1 PUSH1 0x20 PUSH1 0x64 SWAP3 MLOAD SWAP2 PUSH3 0x461BCD PUSH1 0xE5 SHL DUP4 MSTORE DUP3 ADD MSTORE PUSH1 0xE PUSH1 0x24 DUP3 ADD MSTORE PUSH14 0x119D5B991A5B99C819985A5B1959 PUSH1 0x92 SHL PUSH1 0x44 DUP3 ADD MSTORE REVERT JUMPDEST PUSH2 0x2B6 SWAP2 POP PUSH1 0x20 RETURNDATASIZE DUP2 GT PUSH2 0x2BC JUMPI JUMPDEST PUSH2 0x2AE DUP2 DUP4 PUSH2 0x742 JUMP JUMPDEST DUP2 ADD SWAP1 PUSH2 0x77A JUMP JUMPDEST CODESIZE PUSH2 0x257 JUMP JUMPDEST POP RETURNDATASIZE PUSH2 0x2A4 JUMP JUMPDEST DUP3 MLOAD RETURNDATASIZE DUP7 DUP3 RETURNDATACOPY RETURNDATASIZE SWAP1 REVERT JUMPDEST SWAP2 SWAP1 POP CALLVALUE PUSH2 0x14A JUMPI PUSH1 0x20 SWAP1 DUP2 PUSH1 0x3 NOT CALLDATASIZE ADD SLT PUSH2 0x461 JUMPI DUP3 CALLDATALOAD PUSH2 0x2F0 DUP2 ISZERO ISZERO PUSH2 0x6F7 JUMP JUMPDEST CALLER DUP6 MSTORE PUSH1 0x1 DUP4 MSTORE DUP2 DUP6 KECCAK256 SWAP3 DUP4 SLOAD SWAP4 DUP4 MLOAD PUSH1 0x60 DUP2 ADD DUP2 DUP2 LT PUSH8 0xFFFFFFFFFFFFFFFF DUP3 GT OR PUSH2 0x44E JUMPI DUP6 MSTORE DUP4 DUP2 MSTORE DUP3 DUP2 ADD TIMESTAMP DUP2 MSTORE DUP6 DUP3 ADD SWAP3 DUP10 DUP5 MSTORE PUSH9 0x10000000000000000 DUP9 LT ISZERO PUSH2 0x43B JUMPI DUP8 PUSH2 0x34A SWAP2 PUSH1 0x1 DUP3 ADD DUP2 SSTORE PUSH2 0x699 JUMP JUMPDEST SWAP3 SWAP1 SWAP3 PUSH2 0x429 JUMPI SWAP1 PUSH1 0x2 SWAP3 SWAP2 MLOAD DUP3 SSTORE MLOAD PUSH1 0x1 DUP3 ADD SSTORE ADD SWAP1 MLOAD ISZERO ISZERO PUSH1 0xFF DUP1 NOT DUP4 SLOAD AND SWAP2 AND OR SWAP1 SSTORE DUP3 MLOAD SWAP5 PUSH4 0xA9059CBB PUSH1 0xE0 SHL DUP7 MSTORE CALLER SWAP1 DUP7 ADD MSTORE DUP2 PUSH1 0x24 DUP7 ADD MSTORE DUP1 DUP6 PUSH1 0x44 DUP2 DUP10 PUSH1 0x1 DUP1 PUSH1 0xA0 SHL SUB PUSH32 0x0 AND GAS CALL SWAP5 DUP6 ISZERO PUSH2 0x41F JUMPI PUSH32 0x85D2ACE8876663584E65AE889B8C3984C9A31B5B594750252E6BDA129DA8283D SWAP5 SWAP6 PUSH2 0x3F4 SWAP2 DUP9 SWAP2 PUSH2 0x402 JUMPI JUMPDEST POP PUSH2 0x792 JUMP JUMPDEST DUP3 MLOAD SWAP5 DUP6 MSTORE DUP5 ADD MSTORE CALLER SWAP3 LOG2 DUP1 RETURN JUMPDEST PUSH2 0x419 SWAP2 POP DUP4 RETURNDATASIZE DUP6 GT PUSH2 0x2BC JUMPI PUSH2 0x2AE DUP2 DUP4 PUSH2 0x742 JUMP JUMPDEST CODESIZE PUSH2 0x3EE JUMP JUMPDEST DUP4 MLOAD RETURNDATASIZE DUP9 DUP3 RETURNDATACOPY RETURNDATASIZE SWAP1 REVERT JUMPDEST PUSH4 0x4E487B71 PUSH1 0xE0 SHL DUP11 MSTORE DUP10 DUP10 MSTORE PUSH1 0x24 DUP11 REVERT JUMPDEST PUSH4 0x4E487B71 PUSH1 0xE0 SHL DUP11 MSTORE PUSH1 0x41 DUP10 MSTORE PUSH1 0x24 DUP11 REVERT JUMPDEST PUSH4 0x4E487B71 PUSH1 0xE0 SHL DUP10 MSTORE PUSH1 0x41 DUP9 MSTORE PUSH1 0x24 DUP10 REVERT JUMPDEST DUP4 DUP1 REVERT JUMPDEST POP POP CALLVALUE PUSH2 0xBF JUMPI DUP2 PUSH1 0x3 NOT CALLDATASIZE ADD SLT PUSH2 0xBF JUMPI SWAP1 SLOAD SWAP1 MLOAD PUSH1 0x1 PUSH1 0x1 PUSH1 0xA0 SHL SUB SWAP1 SWAP2 AND DUP2 MSTORE PUSH1 0x20 SWAP1 RETURN JUMPDEST DUP4 CALLVALUE PUSH2 0x1BB JUMPI DUP1 PUSH1 0x3 NOT CALLDATASIZE ADD SLT PUSH2 0x1BB JUMPI PUSH2 0x4A6 PUSH2 0x6CB JUMP JUMPDEST DUP1 SLOAD PUSH1 0x1 PUSH1 0x1 PUSH1 0xA0 SHL SUB NOT DUP2 AND DUP3 SSTORE DUP2 SWAP1 PUSH1 0x1 PUSH1 0x1 PUSH1 0xA0 SHL SUB AND PUSH32 0x8BE0079C531659141344CD1FD0A4F28419497F9722A3DAAFE3B4186F6B6457E0 DUP3 DUP1 LOG3 DUP1 RETURN JUMPDEST SWAP3 SWAP2 POP CALLVALUE PUSH2 0x461 JUMPI PUSH1 0x20 SWAP1 DUP2 PUSH1 0x3 NOT CALLDATASIZE ADD SLT PUSH2 0x67A JUMPI DUP1 CALLDATALOAD SWAP4 CALLER DUP7 MSTORE PUSH1 0x1 DUP4 MSTORE DUP4 DUP7 KECCAK256 SLOAD DUP6 LT ISZERO PUSH2 0x645 JUMPI POP CALLER DUP6 MSTORE PUSH1 0x1 DUP3 MSTORE PUSH2 0x526 DUP5 DUP5 DUP8 KECCAK256 PUSH2 0x699 JUMP JUMPDEST POP SWAP1 PUSH1 0x2 DUP3 ADD DUP1 SLOAD PUSH1 0xFF DUP2 AND PUSH2 0x60C JUMPI PUSH1 0xFF NOT AND PUSH1 0x1 OR SWAP1 SSTORE DUP2 SLOAD DUP5 MLOAD PUSH4 0x23B872DD PUSH1 0xE0 SHL DUP2 MSTORE CALLER SWAP3 DUP2 ADD SWAP3 DUP4 MSTORE ADDRESS PUSH1 0x20 DUP5 ADD MSTORE PUSH1 0x40 DUP4 ADD SWAP2 SWAP1 SWAP2 MSTORE SWAP1 DUP4 SWAP1 DUP3 SWAP1 DUP2 SWAP1 PUSH1 0x60 ADD SUB DUP2 DUP10 PUSH32 0x0 PUSH1 0x1 PUSH1 0x1 PUSH1 0xA0 SHL SUB AND GAS CALL SWAP1 DUP2 ISZERO PUSH2 0x602 JUMPI SWAP1 PUSH2 0x5B3 SWAP2 DUP8 SWAP2 PUSH2 0x5EB JUMPI POP PUSH2 0x792 JUMP JUMPDEST SLOAD SWAP1 DUP3 MLOAD SWAP4 DUP5 MSTORE DUP4 ADD MSTORE TIMESTAMP SWAP1 DUP3 ADD MSTORE PUSH32 0x2CEBE3C4A7E8E81CA2035A6CB3EE450BB6401D9B6636652E183583F047049572 PUSH1 0x60 CALLER SWAP3 LOG2 DUP1 RETURN JUMPDEST PUSH2 0x419 SWAP2 POP DUP5 RETURNDATASIZE DUP7 GT PUSH2 0x2BC JUMPI PUSH2 0x2AE DUP2 DUP4 PUSH2 0x742 JUMP JUMPDEST DUP5 MLOAD RETURNDATASIZE DUP9 DUP3 RETURNDATACOPY RETURNDATASIZE SWAP1 REVERT JUMPDEST DUP6 MLOAD PUSH3 0x461BCD PUSH1 0xE5 SHL DUP2 MSTORE DUP1 DUP5 ADD DUP7 SWAP1 MSTORE PUSH1 0x13 PUSH1 0x24 DUP3 ADD MSTORE PUSH19 0x131BD85B88185B1C9958591E481C995C185A59 PUSH1 0x6A SHL PUSH1 0x44 DUP3 ADD MSTORE PUSH1 0x64 SWAP1 REVERT JUMPDEST DUP3 PUSH1 0x64 SWAP3 PUSH3 0x461BCD PUSH1 0xE5 SHL DUP4 MSTORE DUP3 ADD MSTORE PUSH1 0x13 PUSH1 0x24 DUP3 ADD MSTORE PUSH19 0x131BD85B88191BD95CC81B9BDD08195E1A5CDD PUSH1 0x6A SHL PUSH1 0x44 DUP3 ADD MSTORE REVERT JUMPDEST DUP5 DUP1 REVERT JUMPDEST PUSH1 0x4 CALLDATALOAD SWAP1 PUSH1 0x1 PUSH1 0x1 PUSH1 0xA0 SHL SUB DUP3 AND DUP3 SUB PUSH2 0x694 JUMPI JUMP JUMPDEST PUSH1 0x0 DUP1 REVERT JUMPDEST DUP1 SLOAD DUP3 LT ISZERO PUSH2 0x6B5 JUMPI PUSH1 0x0 MSTORE PUSH1 0x3 PUSH1 0x20 PUSH1 0x0 KECCAK256 SWAP2 MUL ADD SWAP1 PUSH1 0x0 SWAP1 JUMP JUMPDEST PUSH4 0x4E487B71 PUSH1 0xE0 SHL PUSH1 0x0 MSTORE PUSH1 0x32 PUSH1 0x4 MSTORE PUSH1 0x24 PUSH1 0x0 REVERT JUMPDEST PUSH1 0x0 SLOAD PUSH1 0x1 PUSH1 0x1 PUSH1 0xA0 SHL SUB AND CALLER SUB PUSH2 0x6DF JUMPI JUMP JUMPDEST PUSH1 0x40 MLOAD PUSH4 0x118CDAA7 PUSH1 0xE0 SHL DUP2 MSTORE CALLER PUSH1 0x4 DUP3 ADD MSTORE PUSH1 0x24 SWAP1 REVERT JUMPDEST ISZERO PUSH2 0x6FE JUMPI JUMP JUMPDEST PUSH1 0x64 PUSH1 0x40 MLOAD PUSH3 0x461BCD PUSH1 0xE5 SHL DUP2 MSTORE PUSH1 0x20 PUSH1 0x4 DUP3 ADD MSTORE PUSH1 0x20 PUSH1 0x24 DUP3 ADD MSTORE PUSH32 0x416D6F756E74206D7573742062652067726561746572207468616E207A65726F PUSH1 0x44 DUP3 ADD MSTORE REVERT JUMPDEST SWAP1 PUSH1 0x1F DUP1 NOT SWAP2 ADD AND DUP2 ADD SWAP1 DUP2 LT PUSH8 0xFFFFFFFFFFFFFFFF DUP3 GT OR PUSH2 0x764 JUMPI PUSH1 0x40 MSTORE JUMP JUMPDEST PUSH4 0x4E487B71 PUSH1 0xE0 SHL PUSH1 0x0 MSTORE PUSH1 0x41 PUSH1 0x4 MSTORE PUSH1 0x24 PUSH1 0x0 REVERT JUMPDEST SWAP1 DUP2 PUSH1 0x20 SWAP2 SUB SLT PUSH2 0x694 JUMPI MLOAD DUP1 ISZERO ISZERO DUP2 SUB PUSH2 0x694 JUMPI SWAP1 JUMP JUMPDEST ISZERO PUSH2 0x799 JUMPI JUMP JUMPDEST PUSH1 0x40 MLOAD PUSH3 0x461BCD PUSH1 0xE5 SHL DUP2 MSTORE PUSH1 0x20 PUSH1 0x4 DUP3 ADD MSTORE PUSH1 0xF PUSH1 0x24 DUP3 ADD MSTORE PUSH15 0x151C985B9CD9995C8819985A5B1959 PUSH1 0x8A SHL PUSH1 0x44 DUP3 ADD MSTORE PUSH1 0x64 SWAP1 REVERT INVALID LOG2 PUSH5 0x6970667358 0x22 SLT KECCAK256 SWAP8 PUSH20 0x60C255648A89B8A447B53BF73D1BE61B90988D20 CODECOPY 0xB8 SLOAD 0xD3 STOP CODESIZE 0xC7 0xBA 0xB6 0xFC PUSH5 0x736F6C6343 STOP ADDMOD EQ STOP CALLER "},"methodIdentifiers":{"borrow(uint256)":"c5ebeaec","fund(uint256)":"ca1d209d","owner()":"8da5cb5b","renounceOwnership()":"715018a6","repay(uint256)":"371fd8e6","token()":"fc0c546a","transferOwnership(address)":"f2fde38b","userLoans(address,uint256)":"d8bad5bd"}}}}}