{
  "_format": "hh-sol-artifact-1",
  "contractName": "MockDIKERegistry",
  "sourceName": "contracts/MockDIKERegistry.sol",
  "abi": [
    {
      "inputs": [],
      "stateMutability": "nonpayable",
      "type": "constructor"
    },
    {
      "anonymous": false,
      "inputs": [
        {
          "indexed": true,
          "internalType": "address",
          "name": "chain",
          "type": "address"
        }
      ],
      "name": "ChainAuthorized",
      "type": "event"
    },
    {
      "anonymous": false,
      "inputs": [
        {
          "indexed": true,
          "internalType": "address",
          "name": "user",
          "type": "address"
        },
        {
          "indexed": false,
          "internalType": "string",
          "name": "eventType",
          "type": "string"
        },
        {
          "indexed": false,
          "internalType": "uint256",
          "name": "amount",
          "type": "uint256"
        }
      ],
      "name": "CreditEventRecorded",
      "type": "event"
    },
    {
      "inputs": [
        {
          "internalType": "address",
          "name": "chainContract",
          "type": "address"
        }
      ],
      "name": "authorizeChain",
      "outputs": [],
      "stateMutability": "nonpayable",
      "type": "function"
    },
    {
      "inputs": [
        {
          "internalType": "address",
          "name": "",
          "type": "address"
        }
      ],
      "name": "authorizedChains",
      "outputs": [
        {
          "internalType": "bool",
          "name": "",
          "type": "bool"
        }
      ],
      "stateMutability": "view",
      "type": "function"
    },
    {
      "inputs": [
        {
          "internalType": "address",
          "name": "user",
          "type": "address"
        }
      ],
      "name": "getCreditSummary",
      "outputs": [
        {
          "internalType": "uint256",
          "name": "totalBorrowed",
          "type": "uint256"
        },
        {
          "internalType": "uint256",
          "name": "totalRepaid",
          "type": "uint256"
        },
        {
          "internalType": "uint256",
          "name": "defaultCount",
          "type": "uint256"
        },
        {
          "internalType": "uint256",
          "name": "onTimeCount",
          "type": "uint256"
        },
        {
          "internalType": "uint256",
          "name": "lateCount",
          "type": "uint256"
        },
        {
          "internalType": "uint256",
          "name": "activeObligations",
          "type": "uint256"
        },
        {
          "internalType": "uint256",
          "name": "lastUpdated",
          "type": "uint256"
        }
      ],
      "stateMutability": "view",
      "type": "function"
    },
    {
      "inputs": [],
      "name": "owner",
      "outputs": [
        {
          "internalType": "address",
          "name": "",
          "type": "address"
        }
      ],
      "stateMutability": "view",
      "type": "function"
    },
    {
      "inputs": [
        {
          "internalType": "address",
          "name": "user",
          "type": "address"
        },
        {
          "internalType": "uint256",
          "name": "amount",
          "type": "uint256"
        }
      ],
      "name": "recordBorrow",
      "outputs": [],
      "stateMutability": "nonpayable",
      "type": "function"
    },
    {
      "inputs": [
        {
          "internalType": "address",
          "name": "user",
          "type": "address"
        }
      ],
      "name": "recordDefault",
      "outputs": [],
      "stateMutability": "nonpayable",
      "type": "function"
    },
    {
      "inputs": [
        {
          "internalType": "address",
          "name": "user",
          "type": "address"
        },
        {
          "internalType": "uint256",
          "name": "amount",
          "type": "uint256"
        }
      ],
      "name": "recordOnTimeRepay",
      "outputs": [],
      "stateMutability": "nonpayable",
      "type": "function"
    },
    {
      "inputs": [
        {
          "internalType": "address",
          "name": "user",
          "type": "address"
        },
        {
          "internalType": "uint256",
          "name": "totalBorrowed",
          "type": "uint256"
        },
        {
          "internalType": "uint256",
          "name": "totalRepaid",
          "type": "uint256"
        },
        {
          "internalType": "uint256",
          "name": "defaultCount",
          "type": "uint256"
        },
        {
          "internalType": "uint256",
          "name": "onTimeCount",
          "type": "uint256"
        },
        {
          "internalType": "uint256",
          "name": "lateCount",
          "type": "uint256"
        }
      ],
      "name": "setProfile",
      "outputs": [],
      "stateMutability": "nonpayable",
      "type": "function"
    }
  ],
  "bytecode": "0x608060405234801561001057600080fd5b50600080546001600160a01b0319163317905561065f806100326000396000f3fe608060405234801561001057600080fd5b50600436106100885760003560e01c80639bc034a61161005b5780639bc034a614610118578063a016120b1461012b578063baae45e1146101ad578063d4050d32146101c057600080fd5b806346bad8a81461008d5780638001d8e2146100c55780638da5cb5b146100da5780638df7352c14610105575b600080fd5b6100b061009b36600461056c565b60026020526000908152604090205460ff1681565b60405190151581526020015b60405180910390f35b6100d86100d336600461058e565b6101d3565b005b6000546100ed906001600160a01b031681565b6040516001600160a01b0390911681526020016100bc565b6100d861011336600461056c565b6102b4565b6100d861012636600461056c565b610362565b61017861013936600461056c565b6001600160a01b031660009081526001602081905260408220805491810154600282015460038301546004840154600590940154949692959194909392565b604080519788526020880196909652948601939093526060850191909152608084015260a083015260c082015260e0016100bc565b6100d86101bb36600461058e565b6103f9565b6100d86101ce3660046105b8565b610495565b6001600160a01b038216600090815260016020819052604082200180548392906101fe908490610602565b90915550506001600160a01b03821660009081526001602081905260408220600301805491929091610231908490610602565b90915550506001600160a01b038216600081815260016020908152604091829020426005909101558151828152600d928101929092526c52455041595f4f4e5f54494d4560981b606083015281018390527f4ef874213e31910e989cdcb392dc5859352aea806c65cadd19167d1093767616906080015b60405180910390a25050565b6001600160a01b038116600090815260016020819052604082206002018054919290916102e2908490610602565b90915550506001600160a01b03811660008181526001602052604080822042600590910155517f4ef874213e31910e989cdcb392dc5859352aea806c65cadd19167d109376761691610357916040808252600790820152661111519055531560ca1b6060820152602081019190915260800190565b60405180910390a250565b6000546001600160a01b031633146103ad5760405162461bcd60e51b81526020600482015260096024820152682737ba1037bbb732b960b91b60448201526064015b60405180910390fd5b6001600160a01b038116600081815260026020526040808220805460ff19166001179055517f0a0971a4e497ce8823d77567feffd9624bfbf4159c1bb00b897290974b311bc19190a250565b6001600160a01b03821660009081526001602052604081208054839290610421908490610602565b90915550506001600160a01b03821660008181526001602090815260409182902042600590910155815182815260069281019290925265424f52524f5760d01b606083015281018390527f4ef874213e31910e989cdcb392dc5859352aea806c65cadd19167d1093767616906080016102a8565b6000546001600160a01b031633146104db5760405162461bcd60e51b81526020600482015260096024820152682737ba1037bbb732b960b91b60448201526064016103a4565b6040805160c081018252958652602080870195865286820194855260608701938452608087019283524260a088019081526001600160a01b0390981660009081526001918290529190912095518655935193850193909355905160028401555160038301555160048201559051600590910155565b80356001600160a01b038116811461056757600080fd5b919050565b60006020828403121561057e57600080fd5b61058782610550565b9392505050565b600080604083850312156105a157600080fd5b6105aa83610550565b946020939093013593505050565b60008060008060008060c087890312156105d157600080fd5b6105da87610550565b9860208801359850604088013597606081013597506080810135965060a00135945092505050565b8082018082111561062357634e487b7160e01b600052601160045260246000fd5b9291505056fea26469706673582212208b82cdb643d2010547c570d321030c7b273a377b2cb0013581c8b037a63f018664736f6c63430008140033",
  "linkReferences": {},
  "deployedLinkReferences": {}
}