{
  "_format": "hh-sol-artifact-1",
  "contractName": "DIKERegistry",
  "sourceName": "contracts/DIKERegistry.sol",
  "abi": [
    {
      "inputs": [
        {
          "internalType": "address",
          "name": "initialOwner",
          "type": "address"
        }
      ],
      "stateMutability": "nonpayable",
      "type": "constructor"
    },
    {
      "inputs": [
        {
          "internalType": "address",
          "name": "sender",
          "type": "address"
        },
        {
          "internalType": "uint256",
          "name": "tokenId",
          "type": "uint256"
        },
        {
          "internalType": "address",
          "name": "owner",
          "type": "address"
        }
      ],
      "name": "ERC721IncorrectOwner",
      "type": "error"
    },
    {
      "inputs": [
        {
          "internalType": "address",
          "name": "operator",
          "type": "address"
        },
        {
          "internalType": "uint256",
          "name": "tokenId",
          "type": "uint256"
        }
      ],
      "name": "ERC721InsufficientApproval",
      "type": "error"
    },
    {
      "inputs": [
        {
          "internalType": "address",
          "name": "approver",
          "type": "address"
        }
      ],
      "name": "ERC721InvalidApprover",
      "type": "error"
    },
    {
      "inputs": [
        {
          "internalType": "address",
          "name": "operator",
          "type": "address"
        }
      ],
      "name": "ERC721InvalidOperator",
      "type": "error"
    },
    {
      "inputs": [
        {
          "internalType": "address",
          "name": "owner",
          "type": "address"
        }
      ],
      "name": "ERC721InvalidOwner",
      "type": "error"
    },
    {
      "inputs": [
        {
          "internalType": "address",
          "name": "receiver",
          "type": "address"
        }
      ],
      "name": "ERC721InvalidReceiver",
      "type": "error"
    },
    {
      "inputs": [
        {
          "internalType": "address",
          "name": "sender",
          "type": "address"
        }
      ],
      "name": "ERC721InvalidSender",
      "type": "error"
    },
    {
      "inputs": [
        {
          "internalType": "uint256",
          "name": "tokenId",
          "type": "uint256"
        }
      ],
      "name": "ERC721NonexistentToken",
      "type": "error"
    },
    {
      "inputs": [
        {
          "internalType": "address",
          "name": "owner",
          "type": "address"
        }
      ],
      "name": "OwnableInvalidOwner",
      "type": "error"
    },
    {
      "inputs": [
        {
          "internalType": "address",
          "name": "account",
          "type": "address"
        }
      ],
      "name": "OwnableUnauthorizedAccount",
      "type": "error"
    },
    {
      "inputs": [
        {
          "internalType": "uint256",
          "name": "value",
          "type": "uint256"
        },
        {
          "internalType": "uint256",
          "name": "length",
          "type": "uint256"
        }
      ],
      "name": "StringsInsufficientHexLength",
      "type": "error"
    },
    {
      "anonymous": false,
      "inputs": [
        {
          "indexed": true,
          "internalType": "address",
          "name": "owner",
          "type": "address"
        },
        {
          "indexed": true,
          "internalType": "address",
          "name": "approved",
          "type": "address"
        },
        {
          "indexed": true,
          "internalType": "uint256",
          "name": "tokenId",
          "type": "uint256"
        }
      ],
      "name": "Approval",
      "type": "event"
    },
    {
      "anonymous": false,
      "inputs": [
        {
          "indexed": true,
          "internalType": "address",
          "name": "owner",
          "type": "address"
        },
        {
          "indexed": true,
          "internalType": "address",
          "name": "operator",
          "type": "address"
        },
        {
          "indexed": false,
          "internalType": "bool",
          "name": "approved",
          "type": "bool"
        }
      ],
      "name": "ApprovalForAll",
      "type": "event"
    },
    {
      "anonymous": false,
      "inputs": [
        {
          "indexed": true,
          "internalType": "uint256",
          "name": "eventId",
          "type": "uint256"
        },
        {
          "indexed": true,
          "internalType": "address",
          "name": "subject",
          "type": "address"
        },
        {
          "indexed": false,
          "internalType": "enum DIKERegistry.EventType",
          "name": "eventType",
          "type": "uint8"
        },
        {
          "indexed": false,
          "internalType": "uint256",
          "name": "amount",
          "type": "uint256"
        }
      ],
      "name": "CreditEventRecorded",
      "type": "event"
    },
    {
      "anonymous": false,
      "inputs": [
        {
          "indexed": true,
          "internalType": "address",
          "name": "previousOwner",
          "type": "address"
        },
        {
          "indexed": true,
          "internalType": "address",
          "name": "newOwner",
          "type": "address"
        }
      ],
      "name": "OwnershipTransferred",
      "type": "event"
    },
    {
      "anonymous": false,
      "inputs": [
        {
          "indexed": true,
          "internalType": "address",
          "name": "from",
          "type": "address"
        },
        {
          "indexed": true,
          "internalType": "address",
          "name": "to",
          "type": "address"
        },
        {
          "indexed": true,
          "internalType": "uint256",
          "name": "tokenId",
          "type": "uint256"
        }
      ],
      "name": "Transfer",
      "type": "event"
    },
    {
      "inputs": [
        {
          "internalType": "address",
          "name": "to",
          "type": "address"
        },
        {
          "internalType": "uint256",
          "name": "tokenId",
          "type": "uint256"
        }
      ],
      "name": "approve",
      "outputs": [],
      "stateMutability": "nonpayable",
      "type": "function"
    },
    {
      "inputs": [
        {
          "internalType": "address",
          "name": "owner",
          "type": "address"
        }
      ],
      "name": "balanceOf",
      "outputs": [
        {
          "internalType": "uint256",
          "name": "",
          "type": "uint256"
        }
      ],
      "stateMutability": "view",
      "type": "function"
    },
    {
      "inputs": [
        {
          "internalType": "uint256",
          "name": "",
          "type": "uint256"
        }
      ],
      "name": "creditEvents",
      "outputs": [
        {
          "internalType": "address",
          "name": "subject",
          "type": "address"
        },
        {
          "internalType": "uint256",
          "name": "amount",
          "type": "uint256"
        },
        {
          "internalType": "uint256",
          "name": "timestamp",
          "type": "uint256"
        },
        {
          "internalType": "enum DIKERegistry.EventType",
          "name": "eventType",
          "type": "uint8"
        },
        {
          "internalType": "bytes32",
          "name": "referenceHash",
          "type": "bytes32"
        }
      ],
      "stateMutability": "view",
      "type": "function"
    },
    {
      "inputs": [
        {
          "internalType": "uint256",
          "name": "tokenId",
          "type": "uint256"
        }
      ],
      "name": "getApproved",
      "outputs": [
        {
          "internalType": "address",
          "name": "",
          "type": "address"
        }
      ],
      "stateMutability": "view",
      "type": "function"
    },
    {
      "inputs": [
        {
          "internalType": "uint256",
          "name": "eventId",
          "type": "uint256"
        }
      ],
      "name": "getCreditEvent",
      "outputs": [
        {
          "components": [
            {
              "internalType": "address",
              "name": "subject",
              "type": "address"
            },
            {
              "internalType": "uint256",
              "name": "amount",
              "type": "uint256"
            },
            {
              "internalType": "uint256",
              "name": "timestamp",
              "type": "uint256"
            },
            {
              "internalType": "enum DIKERegistry.EventType",
              "name": "eventType",
              "type": "uint8"
            },
            {
              "internalType": "bytes32",
              "name": "referenceHash",
              "type": "bytes32"
            }
          ],
          "internalType": "struct DIKERegistry.CreditEvent",
          "name": "",
          "type": "tuple"
        }
      ],
      "stateMutability": "view",
      "type": "function"
    },
    {
      "inputs": [
        {
          "internalType": "address",
          "name": "user",
          "type": "address"
        }
      ],
      "name": "getCreditSummary",
      "outputs": [
        {
          "internalType": "uint256",
          "name": "totalBorrowed",
          "type": "uint256"
        },
        {
          "internalType": "uint256",
          "name": "totalRepaid",
          "type": "uint256"
        },
        {
          "internalType": "uint256",
          "name": "defaults",
          "type": "uint256"
        },
        {
          "internalType": "uint256",
          "name": "onTimeRepayments",
          "type": "uint256"
        },
        {
          "internalType": "uint256",
          "name": "lateRepayments",
          "type": "uint256"
        },
        {
          "internalType": "uint256",
          "name": "totalEvents",
          "type": "uint256"
        },
        {
          "internalType": "uint256",
          "name": "onTimeRatio",
          "type": "uint256"
        },
        {
          "internalType": "uint256",
          "name": "defaultRate",
          "type": "uint256"
        }
      ],
      "stateMutability": "view",
      "type": "function"
    },
    {
      "inputs": [
        {
          "internalType": "address",
          "name": "user",
          "type": "address"
        }
      ],
      "name": "getOutstandingDebt",
      "outputs": [
        {
          "internalType": "uint256",
          "name": "",
          "type": "uint256"
        }
      ],
      "stateMutability": "view",
      "type": "function"
    },
    {
      "inputs": [],
      "name": "getSystemMetrics",
      "outputs": [
        {
          "internalType": "uint256",
          "name": "borrowed",
          "type": "uint256"
        },
        {
          "internalType": "uint256",
          "name": "repaid",
          "type": "uint256"
        },
        {
          "internalType": "uint256",
          "name": "defaults",
          "type": "uint256"
        }
      ],
      "stateMutability": "view",
      "type": "function"
    },
    {
      "inputs": [
        {
          "internalType": "address",
          "name": "user",
          "type": "address"
        }
      ],
      "name": "getUserEvents",
      "outputs": [
        {
          "internalType": "uint256[]",
          "name": "",
          "type": "uint256[]"
        }
      ],
      "stateMutability": "view",
      "type": "function"
    },
    {
      "inputs": [
        {
          "internalType": "address",
          "name": "owner",
          "type": "address"
        },
        {
          "internalType": "address",
          "name": "operator",
          "type": "address"
        }
      ],
      "name": "isApprovedForAll",
      "outputs": [
        {
          "internalType": "bool",
          "name": "",
          "type": "bool"
        }
      ],
      "stateMutability": "view",
      "type": "function"
    },
    {
      "inputs": [],
      "name": "name",
      "outputs": [
        {
          "internalType": "string",
          "name": "",
          "type": "string"
        }
      ],
      "stateMutability": "view",
      "type": "function"
    },
    {
      "inputs": [],
      "name": "nextEventId",
      "outputs": [
        {
          "internalType": "uint256",
          "name": "",
          "type": "uint256"
        }
      ],
      "stateMutability": "view",
      "type": "function"
    },
    {
      "inputs": [],
      "name": "owner",
      "outputs": [
        {
          "internalType": "address",
          "name": "",
          "type": "address"
        }
      ],
      "stateMutability": "view",
      "type": "function"
    },
    {
      "inputs": [
        {
          "internalType": "uint256",
          "name": "tokenId",
          "type": "uint256"
        }
      ],
      "name": "ownerOf",
      "outputs": [
        {
          "internalType": "address",
          "name": "",
          "type": "address"
        }
      ],
      "stateMutability": "view",
      "type": "function"
    },
    {
      "inputs": [
        {
          "internalType": "address",
          "name": "subject",
          "type": "address"
        },
        {
          "internalType": "uint256",
          "name": "amount",
          "type": "uint256"
        },
        {
          "internalType": "enum DIKERegistry.EventType",
          "name": "eventType",
          "type": "uint8"
        },
        {
          "internalType": "bytes32",
          "name": "referenceHash",
          "type": "bytes32"
        }
      ],
      "name": "recordEvent",
      "outputs": [],
      "stateMutability": "nonpayable",
      "type": "function"
    },
    {
      "inputs": [],
      "name": "renounceOwnership",
      "outputs": [],
      "stateMutability": "nonpayable",
      "type": "function"
    },
    {
      "inputs": [
        {
          "internalType": "address",
          "name": "from",
          "type": "address"
        },
        {
          "internalType": "address",
          "name": "to",
          "type": "address"
        },
        {
          "internalType": "uint256",
          "name": "tokenId",
          "type": "uint256"
        }
      ],
      "name": "safeTransferFrom",
      "outputs": [],
      "stateMutability": "nonpayable",
      "type": "function"
    },
    {
      "inputs": [
        {
          "internalType": "address",
          "name": "from",
          "type": "address"
        },
        {
          "internalType": "address",
          "name": "to",
          "type": "address"
        },
        {
          "internalType": "uint256",
          "name": "tokenId",
          "type": "uint256"
        },
        {
          "internalType": "bytes",
          "name": "data",
          "type": "bytes"
        }
      ],
      "name": "safeTransferFrom",
      "outputs": [],
      "stateMutability": "nonpayable",
      "type": "function"
    },
    {
      "inputs": [
        {
          "internalType": "address",
          "name": "operator",
          "type": "address"
        },
        {
          "internalType": "bool",
          "name": "approved",
          "type": "bool"
        }
      ],
      "name": "setApprovalForAll",
      "outputs": [],
      "stateMutability": "nonpayable",
      "type": "function"
    },
    {
      "inputs": [
        {
          "internalType": "bytes4",
          "name": "interfaceId",
          "type": "bytes4"
        }
      ],
      "name": "supportsInterface",
      "outputs": [
        {
          "internalType": "bool",
          "name": "",
          "type": "bool"
        }
      ],
      "stateMutability": "view",
      "type": "function"
    },
    {
      "inputs": [],
      "name": "symbol",
      "outputs": [
        {
          "internalType": "string",
          "name": "",
          "type": "string"
        }
      ],
      "stateMutability": "view",
      "type": "function"
    },
    {
      "inputs": [
        {
          "internalType": "uint256",
          "name": "tokenId",
          "type": "uint256"
        }
      ],
      "name": "tokenURI",
      "outputs": [
        {
          "internalType": "string",
          "name": "",
          "type": "string"
        }
      ],
      "stateMutability": "view",
      "type": "function"
    },
    {
      "inputs": [],
      "name": "totalSystemBorrowed",
      "outputs": [
        {
          "internalType": "uint256",
          "name": "",
          "type": "uint256"
        }
      ],
      "stateMutability": "view",
      "type": "function"
    },
    {
      "inputs": [],
      "name": "totalSystemDefaults",
      "outputs": [
        {
          "internalType": "uint256",
          "name": "",
          "type": "uint256"
        }
      ],
      "stateMutability": "view",
      "type": "function"
    },
    {
      "inputs": [],
      "name": "totalSystemRepaid",
      "outputs": [
        {
          "internalType": "uint256",
          "name": "",
          "type": "uint256"
        }
      ],
      "stateMutability": "view",
      "type": "function"
    },
    {
      "inputs": [
        {
          "internalType": "address",
          "name": "from",
          "type": "address"
        },
        {
          "internalType": "address",
          "name": "to",
          "type": "address"
        },
        {
          "internalType": "uint256",
          "name": "tokenId",
          "type": "uint256"
        }
      ],
      "name": "transferFrom",
      "outputs": [],
      "stateMutability": "nonpayable",
      "type": "function"
    },
    {
      "inputs": [
        {
          "internalType": "address",
          "name": "newOwner",
          "type": "address"
        }
      ],
      "name": "transferOwnership",
      "outputs": [],
      "stateMutability": "nonpayable",
      "type": "function"
    },
    {
      "inputs": [
        {
          "internalType": "bytes32",
          "name": "",
          "type": "bytes32"
        }
      ],
      "name": "usedReferences",
      "outputs": [
        {
          "internalType": "bool",
          "name": "",
          "type": "bool"
        }
      ],
      "stateMutability": "view",
      "type": "function"
    },
    {
      "inputs": [
        {
          "internalType": "address",
          "name": "",
          "type": "address"
        }
      ],
      "name": "userTotals",
      "outputs": [
        {
          "internalType": "uint256",
          "name": "totalBorrowed",
          "type": "uint256"
        },
        {
          "internalType": "uint256",
          "name": "totalRepaid",
          "type": "uint256"
        },
        {
          "internalType": "uint256",
          "name": "defaults",
          "type": "uint256"
        },
        {
          "internalType": "uint256",
          "name": "onTimeRepayments",
          "type": "uint256"
        },
        {
          "internalType": "uint256",
          "name": "lateRepayments",
          "type": "uint256"
        },
        {
          "internalType": "uint256",
          "name": "totalEvents",
          "type": "uint256"
        }
      ],
      "stateMutability": "view",
      "type": "function"
    }
  ],
  "bytecode": "0x608034620003b9576001600160401b0390601f90601f19906200245c388190038481018416830186811184821017620003be57839282916040528339602092839181010312620003b957516001600160a01b03948582169491859003620003b9576200006a620003d4565b916011835270111252d14810dc99591a5d08115d995b9d607a1b8484015262000092620003d4565b6004948582526344494b4560e01b81830152845196848811620003a4576000978854966001978881811c9116801562000399575b85821014620003865790818784931162000333575b508490878311600114620002d2578b92620002c6575b5050600019600383901b1c191690871b1788555b8251948511620002b35785548681811c91168015620002a8575b8382101462000295579081858796959493116200023c575b5081938511600114620001d75750508692620001cb575b5050600019600383901b1c191690821b1790555b8215620001b55750600680546001600160a01b0319811684179091556040519316907f8be0079c531659141344cd1fd0a4f28419497f9722a3daafe3b4186f6b6457e09080a36120679081620003f58239f35b60249160405191631e4fbdf760e01b8352820152fd5b0151905038806200014e565b869593929193168589528389209389905b82821062000222575050841162000208575b505050811b01905562000162565b015160001960f88460031b161c19169055388080620001fa565b8484015186558897909501949384019390810190620001e8565b9091929394508689528289208580880160051c8201928589106200028b575b9188978a9297969594930160051c01915b8281106200027c57505062000137565b8b81558897508991016200026c565b925081926200025b565b634e487b7160e01b895260228852602489fd5b90607f16906200011f565b634e487b7160e01b885260418752602488fd5b015190503880620000f1565b90848a9416918c8052868d20928d5b888282106200031c575050841162000302575b505050811b01885562000105565b015160001960f88460031b161c19169055388080620002f4565b8385015186558d97909501949384019301620002e1565b9091508a8052848b208780850160051c8201928786106200037c575b918b91869594930160051c01915b8281106200036d575050620000db565b8d81558594508b91016200035d565b925081926200034f565b634e487b7160e01b8b5260228a5260248bfd5b90607f1690620000c6565b604187634e487b7160e01b6000525260246000fd5b600080fd5b634e487b7160e01b600052604160045260246000fd5b60408051919082016001600160401b03811183821017620003be5760405256fe608080604052600436101561001357600080fd5b60003560e01c9081627450fd146115d75750806301ffc9a71461156957806306fdde03146114aa578063081812fc1461146c578063095ea7b3146113855780630bab0dcf14611367578063171e5ba2146112b35780631ea6cabc1461128857806323b872dd14611271578063385c9e7d1461120057806342842e0e146111d85780636352211e146111a85780636cfccc2f146111795780636d8407831461114857806370a08231146110ef578063715018a6146110925780637bb0da56146110745780638da5cb5b1461104b57806395d89b4114610f545780639f9d903a14610f36578063a016120b14610ea7578063a22cb46514610e02578063b88d4fde14610d77578063c4092912146108f0578063c87b56dd146102ce578063d6d1c37914610264578063e36521af14610246578063e985e9c5146101f05763f2fde38b1461015d57600080fd5b346101eb5760203660031901126101eb57610176611739565b61017e61182c565b6001600160a01b039081169081156101d257600654826bffffffffffffffffffffffff60a01b821617600655167f8be0079c531659141344cd1fd0a4f28419497f9722a3daafe3b4186f6b6457e0600080a3005b604051631e4fbdf760e01b815260006004820152602490fd5b600080fd5b346101eb5760403660031901126101eb57610209611739565b61021161174f565b9060018060a01b03809116600052600560205260406000209116600052602052602060ff604060002054166040519015158152f35b346101eb5760003660031901126101eb576020600c54604051908152f35b346101eb5760203660031901126101eb57600435600052600860205260a06040600020600180831b03815416906102c76001820154916002810154600460ff600384015416920154936040519586526020860152604085015260608401906116e4565b6080820152f35b346101eb576020806003193601126101eb5760043560008181526002835260409020546001600160a01b0391908216156108b75780600052600883526040600020906040519161031d8361179a565b838154168352600191828201549186850192835260028101549560408601968752610369600460ff6003850154169361035a60608a019586611b96565b01549360808801948552611cf9565b955116958660405194606086019867ffffffffffffffff998781108b82111761079c57604052602a87528a870192604036853787511561082a5760308453875189101561082a576078602189015360295b898111610875575061085657506103d19051611cf9565b92516004811015610840576103e86103ef91611e4d565b9251611cf9565b9351948560405196608088018881108c82111761079c57604052604288528b8801986060368b3788511561082a5760308a53885181101561082a57607860218a01536041905b8082116107d05750506107b2575061049a97946106c397948b946101659894611f4b60f21b94610544603d6040519e8f809d7f7b226e616d65223a202244494b4520437265646974204576656e7420230000008d8301528c81519485930191016116f1565b61088b60f21b603d918d01918201527f226465736372697074696f6e223a20224f6e2d636861696e2076657269666961603f82015271189b194818dc99591a5d08195d995b9d088b60721b605f8201526e2261747472696275746573223a205b60881b60718201527f7b2274726169745f74797065223a20225375626a656374222c202276616c7565608082015263111d101160e11b60a0820152915192839060a48401906116f1565b019162089f4b60ea1b928360a48201527f7b2274726169745f74797065223a2022416d6f756e74222c202276616c75652260a7820152621d101160e91b60c7820152610599825180938a60ca850191016116f1565b018260ca8201527f7b2274726169745f74797065223a20224576656e742054797065222c2022766160cd82015266363ab2911d101160c91b60ed8201526105e9825180938960f4850191016116f1565b019060f48201527f7b2274726169745f74797065223a202254696d657374616d70222c202264697360f78201527f706c61795f74797065223a202264617465222c202276616c7565223a20000000610117820152610652825180936101349788850191016116f1565b01928301527f7b2274726169745f74797065223a20225265666572656e63652048617368222c6101368301526a10113b30b63ab2911d101160a91b61015683015251906106a68261016194858401906116f1565b019063227d5d7d60e01b90820152036101458101845201826117ee565b6040519060608201928284109084111761079c5761073292604052604082527f4142434445464748494a4b4c4d4e4f505152535455565758595a616263646566848301527f6768696a6b6c6d6e6f707172737475767778797a303132333435363738392b2f6040830152611c01565b90610784603d60405180947f646174613a6170706c69636174696f6e2f6a736f6e3b6261736536342c00000085830152610774815180928786860191016116f1565b810103601d8101855201836117ee565b610798604051928284938452830190611714565b0390f35b634e487b7160e01b600052604160045260246000fd5b6044908b6040519163e22e27eb60e01b835260048301526024820152fd5b9091600f8116601081101561082a576f181899199a1a9b1b9c1cb0b131b232b360811b901a6107ff848c611e3c565b5360041c918015610814576000190190610435565b634e487b7160e01b600052601160045260246000fd5b634e487b7160e01b600052603260045260246000fd5b634e487b7160e01b600052602160045260246000fd5b6044906040519063e22e27eb60e01b8252600482015260146024820152fd5b90600f8116601081101561082a576f181899199a1a9b1b9c1cb0b131b232b360811b901a6108a3838b611e3c565b5360041c90801561081457600019016103ba565b60405162461bcd60e51b81526004810184905260116024820152702737b732bc34b9ba32b73a103a37b5b2b760791b6044820152606490fd5b346101eb5760803660031901126101eb57610909611739565b600460443510156101eb5760643561091f61182c565b6001600160a01b03821615610d325760243515610cee5780600052600960205260ff60406000205416610cb3578060005260096020526040600020600160ff198254161790556007549061097282611b87565b6007556040516109818161179a565b60018060a01b0384168152602081019160243583526040820142815260608301916109ae60443584611b96565b60808401526000858152600860205260409020835181546001600160a01b0319166001600160a01b03919091161781559351600185015551600284015551600481101561084057600491608091600385019060ff80198354169116179055015191015560018060a01b038216600052600a602052604060002080546801000000000000000081101561079c576001810180835581101561082a5782916000526020600020015560018060a01b038216600052600b602052604060002060058101610a788154611b87565b90556000604435159182600014610c3157610a966024358254611ba2565b90555b6108405715610bd657610ab0602435600c54611ba2565b600c555b6000818152600260205260409020546001600160a01b031680151590829082610b9f575b6001600160a01b0385166000818152600360209081526040808320805460010190558583526002909152812080546001600160a01b031916831790559091907fddf252ad1be2c89b69c2b068fc378daa952ba7f163c4a11628f55a4df523b3ef9080a4610b86577f12a91909a67c92cc45d4bbdef832b9966d2736cf5b0a088ae1c81f58ad26c3096040805193610b71856044356116e4565b60243560208601526001600160a01b031693a3005b6040516339e3563760e11b815260006004820152602490fd5b600082815260046020526040902080546001600160a01b031916905580600052600360205260406000206000198154019055610ad8565b60006001604435148015610c22575b15610c015750610bf9602435600d54611ba2565b600d55610ab4565b61084057600360443503610ab457610c1a600e54611b87565b600e55610ab4565b50506000600260443514610be5565b60009150604435600103610c675780600160039201610c536024358254611ba2565b905501610c608154611b87565b9055610a99565b60009150604435600203610c895780600160049201610c536024358254611ba2565b60009150604435600314610c9e575b50610a99565b600201610cab8154611b87565b905584610c98565b60405162461bcd60e51b81526020600482015260136024820152724475706c6963617465207265666572656e636560681b6044820152606490fd5b606460405162461bcd60e51b815260206004820152602060248201527f416d6f756e74206d757374206265207374726963746c7920706f7369746976656044820152fd5b60405162461bcd60e51b815260206004820152601d60248201527f496e76616c6964207375626a6563743a207a65726f20616464726573730000006044820152606490fd5b346101eb5760803660031901126101eb57610d90611739565b610d9861174f565b6064359167ffffffffffffffff83116101eb57366023840112156101eb57826004013591610dc583611810565b92610dd360405194856117ee565b80845236602482870101116101eb576020816000926024610e0098018388013785010152604435916119f7565b005b346101eb5760403660031901126101eb57610e1b611739565b602435908115158092036101eb576001600160a01b0316908115610e8e57336000526005602052604060002082600052602052604060002060ff1981541660ff83161790556040519081527f17307eab39ab6107e8899845ad3d59bd9653f200f220920489ca2b5937696c3160203392a3005b604051630b61174360e31b815260048101839052602490fd5b346101eb5760203660031901126101eb57610100610ec3611739565b60018060a01b038116600052600b602052604060002080549160018201549160028101549060038101546005600483015492015492610f0a610f0486611f2d565b95611fad565b95604051978852602088015260408701526060860152608085015260a084015260c083015260e0820152f35b346101eb5760003660031901126101eb576020600754604051908152f35b346101eb5760003660031901126101eb57604051600060019081549182811c91818416918215611041575b602094858510841461102b57858794868652918260001461100b575050600114610fb1575b50610784925003836117ee565b6000818152859250907fb10e2d527612073b26eecdfd717e6a320cf44b4afac2b0732d9fcbe2b7fa0cf65b858310610ff3575050610784935082010185610fa4565b80548389018501528794508693909201918101610fdc565b60ff19168582015261078495151560051b8501019250879150610fa49050565b634e487b7160e01b600052602260045260246000fd5b92607f1692610f7f565b346101eb5760003660031901126101eb576006546040516001600160a01b039091168152602090f35b346101eb5760003660031901126101eb576020600d54604051908152f35b346101eb5760003660031901126101eb576110ab61182c565b600680546001600160a01b031981169091556000906001600160a01b03167f8be0079c531659141344cd1fd0a4f28419497f9722a3daafe3b4186f6b6457e08280a3005b346101eb5760203660031901126101eb576001600160a01b03611110611739565b16801561112f5760005260036020526020604060002054604051908152f35b6040516322718ad960e21b815260006004820152602490fd5b346101eb5760203660031901126101eb576004356000526009602052602060ff604060002054166040519015158152f35b346101eb5760003660031901126101eb576060600c54600d54600e549060405192835260208301526040820152f35b346101eb5760203660031901126101eb5760206111c6600435611b4c565b6040516001600160a01b039091168152f35b346101eb57610e006111e936611765565b90604051926111f7846117b6565b600084526119f7565b346101eb5760203660031901126101eb576001600160a01b03611221611739565b16600052600b60205260c0604060002080549060018101549060028101546003820154906005600484015493015493604051958652602086015260408501526060840152608083015260a0820152f35b346101eb57610e0061128236611765565b91611858565b346101eb5760203660031901126101eb5760206112ab6112a6611739565b611fff565b604051908152f35b346101eb576020806003193601126101eb576001600160a01b036112d5611739565b16600052600a8152604060002060405190818382549182815201908192600052846000209060005b86828210611353578686611313828803836117ee565b604051928392818401908285525180915260408401929160005b82811061133c57505050500390f35b83518552869550938101939281019260010161132d565b8354855290930192600192830192016112fd565b346101eb5760003660031901126101eb576020600e54604051908152f35b346101eb5760403660031901126101eb5761139e611739565b6024356113aa81611b4c565b33151580611459575b8061142c575b611414576001600160a01b039283169282918491167f8c5be1e5ebec7d5bd14f71427d1e84f3dd0314c0f7b2291e5b200ac8c7c3b925600080a4600090815260046020526040902080546001600160a01b0319169091179055005b60405163a9fbf51f60e01b8152336004820152602490fd5b5060018060a01b038116600052600560205260406000203360005260205260ff60406000205416156113b9565b506001600160a01b0381163314156113b3565b346101eb5760203660031901126101eb5760043561148981611b4c565b506000526004602052602060018060a01b0360406000205416604051908152f35b346101eb5760003660031901126101eb576040516000805490600182811c9181841691821561155f575b602094858510841461102b57858794868652918260001461100b5750506001146115055750610784925003836117ee565b6000808052859250907f290decd9548b62a8d60345a988386fc84ba6bc95484008f6362f93160ef3e5635b858310611547575050610784935082010185610fa4565b80548389018501528794508693909201918101611530565b92607f16926114d4565b346101eb5760203660031901126101eb5760043563ffffffff60e01b81168091036101eb576020906380ac58cd60e01b81149081156115c6575b81156115b5575b506040519015158152f35b6301ffc9a760e01b149050826115aa565b635b5e139f60e01b811491506115a3565b346101eb576020806003193601126101eb5760006080600435936115fa8161179a565b828152828482015282604082015282606082015201526007548210156116a95760a091600052600881526040600020906116a16040519261163a8461179a565b600180861b039283825416855260018201549080860191825260028301549160408701928352600460ff6003860154169461167960608a019687611b96565b01549560808801968752604051975116875251908601525160408501525160608401906116e4565b516080820152f35b6064906040519062461bcd60e51b825260048201526014602482015273115d995b9d08191bd95cc81b9bdd08195e1a5cdd60621b6044820152fd5b9060048210156108405752565b60005b8381106117045750506000910152565b81810151838201526020016116f4565b9060209161172d815180928185528580860191016116f1565b601f01601f1916010190565b600435906001600160a01b03821682036101eb57565b602435906001600160a01b03821682036101eb57565b60609060031901126101eb576001600160a01b039060043582811681036101eb579160243590811681036101eb579060443590565b60a0810190811067ffffffffffffffff82111761079c57604052565b6020810190811067ffffffffffffffff82111761079c57604052565b6040810190811067ffffffffffffffff82111761079c57604052565b90601f8019910116810190811067ffffffffffffffff82111761079c57604052565b67ffffffffffffffff811161079c57601f01601f191660200190565b6006546001600160a01b0316330361184057565b60405163118cdaa760e01b8152336004820152602490fd5b6001600160a01b0391821692909183156119de57600092828452826020956002875260409684888820541696879133151580611948575b509060027fddf252ad1be2c89b69c2b068fc378daa952ba7f163c4a11628f55a4df523b3ef9284611915575b858352600381528b8320805460010190558683525289812080546001600160a01b0319168517905580a416928383036118f45750505050565b6064945051926364283d7b60e01b8452600484015260248301526044820152fd5b600087815260046020526040902080546001600160a01b0319169055848352600381528b832080546000190190556118bb565b9193945091508061199d575b156119645785929187913861188f565b878688611981576024915190637e27328960e01b82526004820152fd5b604491519063177e802f60e01b82523360048301526024820152fd5b5033871480156119c2575b806119545750858252600481523385898420541614611954565b5086825260058152878220338352815260ff88832054166119a8565b604051633250574960e11b815260006004820152602490fd5b929092611a05838583611858565b833b611a12575b50505050565b604051630a85bd0160e11b8082523360048301526001600160a01b0392831660248301526044820194909452608060648201529493169260209290918590611a5e906084830190611714565b039483816000978189895af1869181611b08575b50611ad3575050503d600014611aca573d611a8c81611810565b90611a9a60405192836117ee565b81528093823d92013e5b82519283611ac557604051633250574960e11b815260048101849052602490fd5b019050fd5b60609250611aa4565b919450915063ffffffff60e01b1603611af0575038808080611a0c565b60249060405190633250574960e11b82526004820152fd5b9091508481813d8311611b45575b611b2081836117ee565b81010312611b4157516001600160e01b031981168103611b41579038611a72565b8680fd5b503d611b16565b6000818152600260205260409020546001600160a01b0316908115611b6f575090565b60249060405190637e27328960e01b82526004820152fd5b60001981146108145760010190565b60048210156108405752565b9190820180921161081457565b8115611bb9570490565b634e487b7160e01b600052601260045260246000fd5b90611bd982611810565b611be660405191826117ee565b8281528092611bf7601f1991611810565b0190602036910137565b805115611ce4578051600291828201809211610814576003918290046001600160fe1b038116810361081457611c3a908495941b611bcf565b936020850193829183518401906020820192835194600085525b838110611c93575050505052510680600114611c8057600214611c75575090565b603d90600019015390565b50603d9081600019820153600119015390565b87600491999293949901918251600190603f9082828260121c16880101518453828282600c1c16880101518385015382828260061c1688010151888501531685010151898201530197929190611c54565b5050604051611cf2816117b6565b6000815290565b806000917a184f03e93ff9f4daa797ed6e38ed64bf6a1f01000000000000000080821015611e2e575b506d04ee2d6d415b85acef810000000080831015611e1f575b50662386f26fc1000080831015611e10575b506305f5e10080831015611e01575b5061271080831015611df2575b506064821015611de2575b600a80921015611dd8575b600190816021611d90828701611bcf565b95860101905b611da2575b5050505090565b600019019083906f181899199a1a9b1b9c1cb0b131b232b360811b8282061a835304918215611dd357919082611d96565b611d9b565b9160010191611d7f565b9190606460029104910191611d74565b60049193920491019138611d69565b60089193920491019138611d5c565b60109193920491019138611d4d565b60209193920491019138611d3b565b604093508104915038611d22565b90815181101561082a570160200190565b6004811015610840578015611f0a5760018114611ee05760028114611eb957600314611e9657604051611e7f816117d2565b60078152662aa725a727aba760c91b602082015290565b604051611ea2816117d2565b60078152661111519055531560ca1b602082015290565b50604051611ec6816117d2565b600a81526952455041595f4c41544560b01b602082015290565b50604051611eed816117d2565b600d81526c52455041595f4f4e5f54494d4560981b602082015290565b50604051611f17816117d2565b6006815265424f52524f5760d01b602082015290565b6001600160a01b03166000908152600b60205260408120600181015491929115611faa57611f646004600383015492015482611ba2565b9081611f6e575050565b670de0b6b3a764000090818102918183041490151715611f9657611f93929350611baf565b90565b634e487b7160e01b84526011600452602484fd5b50565b6001600160a01b03166000908152600b602052604090206005810154908115611ff8576002015490670de0b6b3a76400009182810292818404149015171561081457611f9391611baf565b5050600090565b6001600160a01b03166000908152600b602052604090206001810154905490818111611ff8578103908111610814579056fea2646970667358221220bd3e142ce88500b280106a0e69fab48bf5563ab8e94fc96105a20e5376c7895d64736f6c63430008140033",
  "linkReferences": {},
  "deployedLinkReferences": {}
}