{
  "_format": "hh-sol-artifact-1",
  "contractName": "DIKERegistry",
  "sourceName": "contracts/DIKERegistry.sol",
  "abi": [
    {
      "inputs": [
        {
          "internalType": "address",
          "name": "initialOwner",
          "type": "address"
        }
      ],
      "stateMutability": "nonpayable",
      "type": "constructor"
    },
    {
      "inputs": [
        {
          "internalType": "address",
          "name": "sender",
          "type": "address"
        },
        {
          "internalType": "uint256",
          "name": "tokenId",
          "type": "uint256"
        },
        {
          "internalType": "address",
          "name": "owner",
          "type": "address"
        }
      ],
      "name": "ERC721IncorrectOwner",
      "type": "error"
    },
    {
      "inputs": [
        {
          "internalType": "address",
          "name": "operator",
          "type": "address"
        },
        {
          "internalType": "uint256",
          "name": "tokenId",
          "type": "uint256"
        }
      ],
      "name": "ERC721InsufficientApproval",
      "type": "error"
    },
    {
      "inputs": [
        {
          "internalType": "address",
          "name": "approver",
          "type": "address"
        }
      ],
      "name": "ERC721InvalidApprover",
      "type": "error"
    },
    {
      "inputs": [
        {
          "internalType": "address",
          "name": "operator",
          "type": "address"
        }
      ],
      "name": "ERC721InvalidOperator",
      "type": "error"
    },
    {
      "inputs": [
        {
          "internalType": "address",
          "name": "owner",
          "type": "address"
        }
      ],
      "name": "ERC721InvalidOwner",
      "type": "error"
    },
    {
      "inputs": [
        {
          "internalType": "address",
          "name": "receiver",
          "type": "address"
        }
      ],
      "name": "ERC721InvalidReceiver",
      "type": "error"
    },
    {
      "inputs": [
        {
          "internalType": "address",
          "name": "sender",
          "type": "address"
        }
      ],
      "name": "ERC721InvalidSender",
      "type": "error"
    },
    {
      "inputs": [
        {
          "internalType": "uint256",
          "name": "tokenId",
          "type": "uint256"
        }
      ],
      "name": "ERC721NonexistentToken",
      "type": "error"
    },
    {
      "inputs": [
        {
          "internalType": "address",
          "name": "owner",
          "type": "address"
        }
      ],
      "name": "OwnableInvalidOwner",
      "type": "error"
    },
    {
      "inputs": [
        {
          "internalType": "address",
          "name": "account",
          "type": "address"
        }
      ],
      "name": "OwnableUnauthorizedAccount",
      "type": "error"
    },
    {
      "inputs": [
        {
          "internalType": "uint256",
          "name": "value",
          "type": "uint256"
        },
        {
          "internalType": "uint256",
          "name": "length",
          "type": "uint256"
        }
      ],
      "name": "StringsInsufficientHexLength",
      "type": "error"
    },
    {
      "anonymous": false,
      "inputs": [
        {
          "indexed": true,
          "internalType": "address",
          "name": "owner",
          "type": "address"
        },
        {
          "indexed": true,
          "internalType": "address",
          "name": "approved",
          "type": "address"
        },
        {
          "indexed": true,
          "internalType": "uint256",
          "name": "tokenId",
          "type": "uint256"
        }
      ],
      "name": "Approval",
      "type": "event"
    },
    {
      "anonymous": false,
      "inputs": [
        {
          "indexed": true,
          "internalType": "address",
          "name": "owner",
          "type": "address"
        },
        {
          "indexed": true,
          "internalType": "address",
          "name": "operator",
          "type": "address"
        },
        {
          "indexed": false,
          "internalType": "bool",
          "name": "approved",
          "type": "bool"
        }
      ],
      "name": "ApprovalForAll",
      "type": "event"
    },
    {
      "anonymous": false,
      "inputs": [
        {
          "indexed": true,
          "internalType": "uint256",
          "name": "eventId",
          "type": "uint256"
        },
        {
          "indexed": true,
          "internalType": "address",
          "name": "subject",
          "type": "address"
        },
        {
          "indexed": false,
          "internalType": "enum DIKERegistry.EventType",
          "name": "eventType",
          "type": "uint8"
        },
        {
          "indexed": false,
          "internalType": "uint256",
          "name": "amount",
          "type": "uint256"
        }
      ],
      "name": "CreditEventRecorded",
      "type": "event"
    },
    {
      "anonymous": false,
      "inputs": [
        {
          "indexed": true,
          "internalType": "address",
          "name": "previousOwner",
          "type": "address"
        },
        {
          "indexed": true,
          "internalType": "address",
          "name": "newOwner",
          "type": "address"
        }
      ],
      "name": "OwnershipTransferred",
      "type": "event"
    },
    {
      "anonymous": false,
      "inputs": [
        {
          "indexed": true,
          "internalType": "address",
          "name": "from",
          "type": "address"
        },
        {
          "indexed": true,
          "internalType": "address",
          "name": "to",
          "type": "address"
        },
        {
          "indexed": true,
          "internalType": "uint256",
          "name": "tokenId",
          "type": "uint256"
        }
      ],
      "name": "Transfer",
      "type": "event"
    },
    {
      "inputs": [
        {
          "internalType": "address",
          "name": "to",
          "type": "address"
        },
        {
          "internalType": "uint256",
          "name": "tokenId",
          "type": "uint256"
        }
      ],
      "name": "approve",
      "outputs": [],
      "stateMutability": "nonpayable",
      "type": "function"
    },
    {
      "inputs": [
        {
          "internalType": "address",
          "name": "owner",
          "type": "address"
        }
      ],
      "name": "balanceOf",
      "outputs": [
        {
          "internalType": "uint256",
          "name": "",
          "type": "uint256"
        }
      ],
      "stateMutability": "view",
      "type": "function"
    },
    {
      "inputs": [
        {
          "internalType": "uint256",
          "name": "",
          "type": "uint256"
        }
      ],
      "name": "creditEvents",
      "outputs": [
        {
          "internalType": "address",
          "name": "subject",
          "type": "address"
        },
        {
          "internalType": "uint256",
          "name": "amount",
          "type": "uint256"
        },
        {
          "internalType": "uint256",
          "name": "timestamp",
          "type": "uint256"
        },
        {
          "internalType": "enum DIKERegistry.EventType",
          "name": "eventType",
          "type": "uint8"
        },
        {
          "internalType": "bytes32",
          "name": "referenceHash",
          "type": "bytes32"
        }
      ],
      "stateMutability": "view",
      "type": "function"
    },
    {
      "inputs": [
        {
          "internalType": "uint256",
          "name": "tokenId",
          "type": "uint256"
        }
      ],
      "name": "getApproved",
      "outputs": [
        {
          "internalType": "address",
          "name": "",
          "type": "address"
        }
      ],
      "stateMutability": "view",
      "type": "function"
    },
    {
      "inputs": [
        {
          "internalType": "uint256",
          "name": "eventId",
          "type": "uint256"
        }
      ],
      "name": "getCreditEvent",
      "outputs": [
        {
          "components": [
            {
              "internalType": "address",
              "name": "subject",
              "type": "address"
            },
            {
              "internalType": "uint256",
              "name": "amount",
              "type": "uint256"
            },
            {
              "internalType": "uint256",
              "name": "timestamp",
              "type": "uint256"
            },
            {
              "internalType": "enum DIKERegistry.EventType",
              "name": "eventType",
              "type": "uint8"
            },
            {
              "internalType": "bytes32",
              "name": "referenceHash",
              "type": "bytes32"
            }
          ],
          "internalType": "struct DIKERegistry.CreditEvent",
          "name": "",
          "type": "tuple"
        }
      ],
      "stateMutability": "view",
      "type": "function"
    },
    {
      "inputs": [
        {
          "internalType": "address",
          "name": "user",
          "type": "address"
        }
      ],
      "name": "getCreditSummary",
      "outputs": [
        {
          "internalType": "uint256",
          "name": "totalBorrowed",
          "type": "uint256"
        },
        {
          "internalType": "uint256",
          "name": "totalRepaid",
          "type": "uint256"
        },
        {
          "internalType": "uint256",
          "name": "defaults",
          "type": "uint256"
        },
        {
          "internalType": "uint256",
          "name": "onTimeRepayments",
          "type": "uint256"
        },
        {
          "internalType": "uint256",
          "name": "lateRepayments",
          "type": "uint256"
        },
        {
          "internalType": "uint256",
          "name": "totalEvents",
          "type": "uint256"
        },
        {
          "internalType": "uint256",
          "name": "onTimeRatio",
          "type": "uint256"
        },
        {
          "internalType": "uint256",
          "name": "defaultRate",
          "type": "uint256"
        }
      ],
      "stateMutability": "view",
      "type": "function"
    },
    {
      "inputs": [
        {
          "internalType": "address",
          "name": "user",
          "type": "address"
        }
      ],
      "name": "getOutstandingDebt",
      "outputs": [
        {
          "internalType": "uint256",
          "name": "",
          "type": "uint256"
        }
      ],
      "stateMutability": "view",
      "type": "function"
    },
    {
      "inputs": [],
      "name": "getSystemMetrics",
      "outputs": [
        {
          "internalType": "uint256",
          "name": "borrowed",
          "type": "uint256"
        },
        {
          "internalType": "uint256",
          "name": "repaid",
          "type": "uint256"
        },
        {
          "internalType": "uint256",
          "name": "defaults",
          "type": "uint256"
        }
      ],
      "stateMutability": "view",
      "type": "function"
    },
    {
      "inputs": [
        {
          "internalType": "address",
          "name": "user",
          "type": "address"
        }
      ],
      "name": "getUserEvents",
      "outputs": [
        {
          "internalType": "uint256[]",
          "name": "",
          "type": "uint256[]"
        }
      ],
      "stateMutability": "view",
      "type": "function"
    },
    {
      "inputs": [
        {
          "internalType": "address",
          "name": "owner",
          "type": "address"
        },
        {
          "internalType": "address",
          "name": "operator",
          "type": "address"
        }
      ],
      "name": "isApprovedForAll",
      "outputs": [
        {
          "internalType": "bool",
          "name": "",
          "type": "bool"
        }
      ],
      "stateMutability": "view",
      "type": "function"
    },
    {
      "inputs": [],
      "name": "name",
      "outputs": [
        {
          "internalType": "string",
          "name": "",
          "type": "string"
        }
      ],
      "stateMutability": "view",
      "type": "function"
    },
    {
      "inputs": [],
      "name": "nextEventId",
      "outputs": [
        {
          "internalType": "uint256",
          "name": "",
          "type": "uint256"
        }
      ],
      "stateMutability": "view",
      "type": "function"
    },
    {
      "inputs": [],
      "name": "owner",
      "outputs": [
        {
          "internalType": "address",
          "name": "",
          "type": "address"
        }
      ],
      "stateMutability": "view",
      "type": "function"
    },
    {
      "inputs": [
        {
          "internalType": "uint256",
          "name": "tokenId",
          "type": "uint256"
        }
      ],
      "name": "ownerOf",
      "outputs": [
        {
          "internalType": "address",
          "name": "",
          "type": "address"
        }
      ],
      "stateMutability": "view",
      "type": "function"
    },
    {
      "inputs": [
        {
          "internalType": "address",
          "name": "subject",
          "type": "address"
        },
        {
          "internalType": "uint256",
          "name": "amount",
          "type": "uint256"
        },
        {
          "internalType": "enum DIKERegistry.EventType",
          "name": "eventType",
          "type": "uint8"
        },
        {
          "internalType": "bytes32",
          "name": "referenceHash",
          "type": "bytes32"
        }
      ],
      "name": "recordEvent",
      "outputs": [],
      "stateMutability": "nonpayable",
      "type": "function"
    },
    {
      "inputs": [],
      "name": "renounceOwnership",
      "outputs": [],
      "stateMutability": "nonpayable",
      "type": "function"
    },
    {
      "inputs": [
        {
          "internalType": "address",
          "name": "from",
          "type": "address"
        },
        {
          "internalType": "address",
          "name": "to",
          "type": "address"
        },
        {
          "internalType": "uint256",
          "name": "tokenId",
          "type": "uint256"
        }
      ],
      "name": "safeTransferFrom",
      "outputs": [],
      "stateMutability": "nonpayable",
      "type": "function"
    },
    {
      "inputs": [
        {
          "internalType": "address",
          "name": "from",
          "type": "address"
        },
        {
          "internalType": "address",
          "name": "to",
          "type": "address"
        },
        {
          "internalType": "uint256",
          "name": "tokenId",
          "type": "uint256"
        },
        {
          "internalType": "bytes",
          "name": "data",
          "type": "bytes"
        }
      ],
      "name": "safeTransferFrom",
      "outputs": [],
      "stateMutability": "nonpayable",
      "type": "function"
    },
    {
      "inputs": [
        {
          "internalType": "address",
          "name": "operator",
          "type": "address"
        },
        {
          "internalType": "bool",
          "name": "approved",
          "type": "bool"
        }
      ],
      "name": "setApprovalForAll",
      "outputs": [],
      "stateMutability": "nonpayable",
      "type": "function"
    },
    {
      "inputs": [
        {
          "internalType": "bytes4",
          "name": "interfaceId",
          "type": "bytes4"
        }
      ],
      "name": "supportsInterface",
      "outputs": [
        {
          "internalType": "bool",
          "name": "",
          "type": "bool"
        }
      ],
      "stateMutability": "view",
      "type": "function"
    },
    {
      "inputs": [],
      "name": "symbol",
      "outputs": [
        {
          "internalType": "string",
          "name": "",
          "type": "string"
        }
      ],
      "stateMutability": "view",
      "type": "function"
    },
    {
      "inputs": [
        {
          "internalType": "uint256",
          "name": "tokenId",
          "type": "uint256"
        }
      ],
      "name": "tokenURI",
      "outputs": [
        {
          "internalType": "string",
          "name": "",
          "type": "string"
        }
      ],
      "stateMutability": "view",
      "type": "function"
    },
    {
      "inputs": [],
      "name": "totalSystemBorrowed",
      "outputs": [
        {
          "internalType": "uint256",
          "name": "",
          "type": "uint256"
        }
      ],
      "stateMutability": "view",
      "type": "function"
    },
    {
      "inputs": [],
      "name": "totalSystemDefaults",
      "outputs": [
        {
          "internalType": "uint256",
          "name": "",
          "type": "uint256"
        }
      ],
      "stateMutability": "view",
      "type": "function"
    },
    {
      "inputs": [],
      "name": "totalSystemRepaid",
      "outputs": [
        {
          "internalType": "uint256",
          "name": "",
          "type": "uint256"
        }
      ],
      "stateMutability": "view",
      "type": "function"
    },
    {
      "inputs": [
        {
          "internalType": "address",
          "name": "from",
          "type": "address"
        },
        {
          "internalType": "address",
          "name": "to",
          "type": "address"
        },
        {
          "internalType": "uint256",
          "name": "tokenId",
          "type": "uint256"
        }
      ],
      "name": "transferFrom",
      "outputs": [],
      "stateMutability": "nonpayable",
      "type": "function"
    },
    {
      "inputs": [
        {
          "internalType": "address",
          "name": "newOwner",
          "type": "address"
        }
      ],
      "name": "transferOwnership",
      "outputs": [],
      "stateMutability": "nonpayable",
      "type": "function"
    },
    {
      "inputs": [
        {
          "internalType": "address",
          "name": "",
          "type": "address"
        }
      ],
      "name": "userTotals",
      "outputs": [
        {
          "internalType": "uint256",
          "name": "totalBorrowed",
          "type": "uint256"
        },
        {
          "internalType": "uint256",
          "name": "totalRepaid",
          "type": "uint256"
        },
        {
          "internalType": "uint256",
          "name": "defaults",
          "type": "uint256"
        },
        {
          "internalType": "uint256",
          "name": "onTimeRepayments",
          "type": "uint256"
        },
        {
          "internalType": "uint256",
          "name": "lateRepayments",
          "type": "uint256"
        },
        {
          "internalType": "uint256",
          "name": "totalEvents",
          "type": "uint256"
        }
      ],
      "stateMutability": "view",
      "type": "function"
    }
  ],
  "bytecode": "0x608034620003b9576001600160401b0390601f90601f199062002327388190038481018416830186811184821017620003be57839282916040528339602092839181010312620003b957516001600160a01b03948582169491859003620003b9576200006a620003d4565b916011835270111252d14810dc99591a5d08115d995b9d607a1b8484015262000092620003d4565b6004948582526344494b4560e01b81830152845196848811620003a4576000978854966001978881811c9116801562000399575b85821014620003865790818784931162000333575b508490878311600114620002d2578b92620002c6575b5050600019600383901b1c191690871b1788555b8251948511620002b35785548681811c91168015620002a8575b8382101462000295579081858796959493116200023c575b5081938511600114620001d75750508692620001cb575b5050600019600383901b1c191690821b1790555b8215620001b55750600680546001600160a01b0319811684179091556040519316907f8be0079c531659141344cd1fd0a4f28419497f9722a3daafe3b4186f6b6457e09080a3611f329081620003f58239f35b60249160405191631e4fbdf760e01b8352820152fd5b0151905038806200014e565b869593929193168589528389209389905b82821062000222575050841162000208575b505050811b01905562000162565b015160001960f88460031b161c19169055388080620001fa565b8484015186558897909501949384019390810190620001e8565b9091929394508689528289208580880160051c8201928589106200028b575b9188978a9297969594930160051c01915b8281106200027c57505062000137565b8b81558897508991016200026c565b925081926200025b565b634e487b7160e01b895260228852602489fd5b90607f16906200011f565b634e487b7160e01b885260418752602488fd5b015190503880620000f1565b90848a9416918c8052868d20928d5b888282106200031c575050841162000302575b505050811b01885562000105565b015160001960f88460031b161c19169055388080620002f4565b8385015186558d97909501949384019301620002e1565b9091508a8052848b208780850160051c8201928786106200037c575b918b91869594930160051c01915b8281106200036d575050620000db565b8d81558594508b91016200035d565b925081926200034f565b634e487b7160e01b8b5260228a5260248bfd5b90607f1690620000c6565b604187634e487b7160e01b6000525260246000fd5b600080fd5b634e487b7160e01b600052604160045260246000fd5b60408051919082016001600160401b03811183821017620003be5760405256fe6080604081815260048036101561001557600080fd5b600092833560e01c9081627450fd1461153b5750806301ffc9a7146114ce57806306fdde0314611403578063081812fc146113c8578063095ea7b3146112ec5780630bab0dcf146112cd578063171e5ba2146112205780631ea6cabc146111f357806323b872dd146111db578063385c9e7d1461116e57806342842e0e146111455780636352211e146111145780636cfccc2f146110e457806370a082311461108f578063715018a6146110325780637bb0da56146110135780638da5cb5b14610fea57806395d89b4114610ee35780639f9d903a14610ec4578063a016120b14610e3a578063a22cb46514610d9d578063b88d4fde14610d14578063c409291214610902578063c87b56dd146102bd578063d6d1c37914610259578063e36521af1461023a578063e985e9c5146101e85763f2fde38b1461015657600080fd5b346101e45760203660031901126101e45761016f611676565b90610178611768565b6001600160a01b039182169283156101ce575050600654826bffffffffffffffffffffffff60a01b821617600655167f8be0079c531659141344cd1fd0a4f28419497f9722a3daafe3b4186f6b6457e08380a380f35b51631e4fbdf760e01b8152908101849052602490fd5b8280fd5b50503461023657806003193601126102365760ff81602093610208611676565b610210611691565b6001600160a01b0391821683526005875283832091168252855220549151911615158152f35b5080fd5b505034610236578160031936011261023657602090600b549051908152f35b5090346101e45760203660031901126101e4576102b68160a09484358152600860205220600180861b038154169360018201549360028301549160ff6003850154169301549481519687526020870152850152606084019061160b565b6080820152f35b5082903461023657602091826003193601126108ff5781356102e26007548210611af4565b808252600884528482209185516102f8816116dc565b60018060a01b039283855416825260019081860154958884019687526002810154958a850196875261034a8960ff6003850154169361033b606089019586611ae8565b01549360808701948552611c8e565b9451169586978b519860608a019867ffffffffffffffff998b81108b8211176108ec578e52602a8b528c8b0194939291908e3687378b51156108d957603086538b518810156108d957607860218d015360295b888111610871575061085457506103b49051611c8e565b91518a811015610841576103ca6103d191611c8e565b9151611c8e565b935192838d5194608086018681108c82111761082d578f52604286528d8601976060368a378651156108195760308953865181101561081957607860218801536041905b8082116107ae57505061079157508b908d519a8b98838a017f7b226e616d65223a202244494b4520437265646974204576656e74202300000090528051908185603d8d019201916104659261162e565b61088b60f21b603d918b01918201527f226465736372697074696f6e223a20224f6e2d636861696e2076657269666961603f82015271189b194818dc99591a5d08195d995b9d088b60721b605f8201526e2261747472696275746573223a205b60881b60718201527f7b2274726169745f74797065223a20225375626a656374222c202276616c7565608082015263111d101160e11b60a082015290519161051390839060a484019061162e565b0162089f4b60ea1b938460a483015260a782017f7b2274726169745f74797065223a2022416d6f756e74222c202276616c7565229052621d101160e91b60c78301528051809360ca84019201916105699261162e565b018260ca82015260cd81017f7b2274726169745f74797065223a20224576656e742054797065222c20227661905266363ab2911d101160c91b60ed820152815191828d60f484019201916105bc9261162e565b019060f482015260f781017f7b2274726169745f74797065223a202254696d657374616d70222c2022646973905261011781017f706c61795f74797065223a202264617465222c202276616c7565223a20000000905282519061013493828c86840192019161062a9261162e565b01918201611f4b60f21b905261013682017f7b2274726169745f74797065223a20225265666572656e63652048617368222c90526a10113b30b63ab2911d101160a91b610156830152519061016192828483016106869261162e565b019063227d5d7d60e01b908201520361014581018452610165016106aa908461172a565b855193606085019283118584101761077e57505084528382527f4142434445464748494a4b4c4d4e4f505152535455565758595a616263646566838301527f6768696a6b6c6d6e6f707172737475767778797a303132333435363738392b2f8483015261077a9161071a91611b96565b9261076b603d825180967f646174613a6170706c69636174696f6e2f6a736f6e3b6261736536342c0000008783015261075b8151809289868601910161162e565b810103601d81018752018561172a565b51928284938452830190611651565b0390f35b634e487b7160e01b825260419052602490fd5b8b8d8f92604493519263e22e27eb60e01b84528301526024820152fd5b9091600f81166010811015610805578f906f181899199a1a9b1b9c1cb0b131b232b360811b901a6107df858b611dd1565b531c9180156107f2576000190190610415565b634e487b7160e01b8c5260118f5260248cfd5b8f8d6032602492634e487b7160e01b835252fd5b50634e487b7160e01b8a5260328d5260248afd5b50634e487b7160e01b8a5260418d5260248afd5b634e487b7160e01b885260218b52602488fd5b8b6044918f519163e22e27eb60e01b835282015260146024820152fd5b90600f811660108110156108c6576f181899199a1a9b1b9c1cb0b131b232b360811b901a61089f838f611dd1565b538d1c9080156108b2576000190161039d565b50634e487b7160e01b8a5260118d5260248afd5b634e487b7160e01b8c5260328f5260248cfd5b634e487b7160e01b8a5260328d5260248afd5b634e487b7160e01b8a5260418d5260248afd5b80fd5b50346101e45760803660031901126101e45761091c611676565b9160443582811015610d1057610930611768565b6001600160a01b03938416938415610ccd576024908135918215610c8c576007549561095b87611ac3565b60075588865161096a816116dc565b898152602094858201918783528a89838c80850197428952610990606087019485611ae8565b60808601946064358652815260088c5220935116946bffffffffffffffffffffffff60a01b95868554161784555195600196878501555160028401555186811015610c7a57908691600384019060ff80198354169116179055519101558a8c5260098652888c2080549068010000000000000000821015610c6857848201808255821015610c565790878e8d9381522001558a8c52600a86528b89812060058101610a3b8154611ac3565b905589159190818315610be25750610a548a8254611b37565b90555b610bd0578a928c8b8f93948295600014610b5a57610a778c600b54611b37565b600b555b86855260028b528185205416938415159788610b27575b83825260038c5282822090815401905586815260028b5220918254161790557fddf252ad1be2c89b69c2b068fc378daa952ba7f163c4a11628f55a4df523b3ef8d80a4610b1357505090839291610b0c7f12a91909a67c92cc45d4bbdef832b9966d2736cf5b0a088ae1c81f58ad26c3099551809461160b565b820152a380f35b85516339e3563760e11b8152908101899052fd5b600088815260046020526040902080546001600160a01b031916905585825260038c528282208054600019019055610a92565b90915083878d148015610bc4575b15610b855750908491610b7d8c600c54611b37565b600c55610a7b565b93509350509250610bb2578b8a928c8b819460038d03610a7b57610baa600d54611ac3565b600d55610a7b565b634e487b7160e01b8c5260218452848cfd5b50508360028d14610b68565b634e487b7160e01b8d5260218552858dfd5b915086828c8803610c14575050808660039201610c008c8254611b37565b905501610c0d8154611ac3565b9055610a57565b92509060028c03610c2d57868101610c008c8254611b37565b9150508d9060038b14610c41575b50610a57565b600201610c4e8154611ac3565b905538610c3b565b634e487b7160e01b8e5260328652868efd5b634e487b7160e01b8e5260418652868efd5b634e487b7160e01b8f5260218752878ffd5b8560206064928188519362461bcd60e51b85528401528201527f416d6f756e74206d757374206265207374726963746c7920706f7369746976656044820152fd5b825162461bcd60e51b8152602081860152601d60248201527f496e76616c6964207375626a6563743a207a65726f20616464726573730000006044820152606490fd5b8480fd5b5090346101e45760803660031901126101e457610d2f611676565b610d37611691565b846064359467ffffffffffffffff861161023657366023870112156102365785013594610d6f610d668761174c565b9551958661172a565b85855236602487830101116102365785610d9a96602460209301838801378501015260443591611933565b80f35b5090346101e457806003193601126101e457610db7611676565b9060243591821515809303610d10576001600160a01b0316928315610e255750338452600560205280842083855260205280842060ff1981541660ff8416179055519081527f17307eab39ab6107e8899845ad3d59bd9653f200f220920489ca2b5937696c3160203392a380f35b836024925191630b61174360e31b8352820152fd5b50346101e45760203660031901126101e4576101009282610e59611676565b9160018060a01b0383168152600a60205220928354936001810154936002820154600560038401549284015493015493610e9b610e9587611df8565b96611e78565b96815198895260208901528701526060860152608085015260a084015260c083015260e0820152f35b5050346102365781600319360112610236576020906007549051908152f35b5091346108ff57806003193601126108ff578151918160019283549384811c91818616958615610fe0575b6020968785108114610fcd578899509688969785829a529182600014610fa6575050600114610f4b575b50505061077a929161076b91038561172a565b91908693508083527fb10e2d527612073b26eecdfd717e6a320cf44b4afac2b0732d9fcbe2b7fa0cf65b828410610f8e575050508201018161076b61077a610f38565b8054848a018601528895508794909301928101610f75565b60ff19168782015293151560051b8601909301935084925061076b915061077a9050610f38565b634e487b7160e01b835260228a52602483fd5b92607f1692610f0e565b50503461023657816003193601126102365760065490516001600160a01b039091168152602090f35b505034610236578160031936011261023657602090600c549051908152f35b83346108ff57806003193601126108ff5761104b611768565b600680546001600160a01b0319811690915581906001600160a01b03167f8be0079c531659141344cd1fd0a4f28419497f9722a3daafe3b4186f6b6457e08280a380f35b5091346108ff5760203660031901126108ff576001600160a01b036110b2611676565b169283156110cf5750806020938392526003845220549051908152f35b91516322718ad960e21b815291820152602490fd5b505034610236578160031936011261023657606090600b5490600c5490600d549181519384526020840152820152f35b5091346108ff5760203660031901126108ff575061113460209235611a88565b90516001600160a01b039091168152f35b50503461023657610d9a90611159366116a7565b919251926111668461170e565b858452611933565b5090346101e45760203660031901126101e45760c09281906001600160a01b03611196611676565b168152600a60205220805492600182015492600283015490600560038501549385015494015494815196875260208701528501526060840152608083015260a0820152f35b83346108ff57610d9a6111ed366116a7565b91611794565b50503461023657602036600319011261023657602090611219611214611676565b611eca565b9051908152f35b8284346108ff57602090816003193601126108ff5782906001600160a01b03611247611676565b16815260098352818120908251808584549182815201908194845286842090845b8181106112b9575050508161127e91038261172a565b83519485948186019282875251809352850193925b8281106112a257505050500390f35b835185528695509381019392810192600101611293565b825484529288019260019283019201611268565b505034610236578160031936011261023657602090600d549051908152f35b5090346101e457806003193601126101e457611306611676565b9160243561131381611a88565b331515806113b5575b8061138c575b611376576001600160a01b039485169482918691167f8c5be1e5ebec7d5bd14f71427d1e84f3dd0314c0f7b2291e5b200ac8c7c3b9258880a48452602052822080546001600160a01b031916909117905580f35b835163a9fbf51f60e01b81523381850152602490fd5b506001600160a01b03811686526005602090815284872033885290528386205460ff1615611322565b506001600160a01b03811633141561131c565b50346101e45760203660031901126101e4579182602093356113e981611a88565b50825283528190205490516001600160a01b039091168152f35b5091346108ff57806003193601126108ff5781519181825492600184811c918186169586156114c4575b6020968785108114610fcd578899509688969785829a529182600014610fa65750506001146114695750505061077a929161076b91038561172a565b91908693508280527f290decd9548b62a8d60345a988386fc84ba6bc95484008f6362f93160ef3e5635b8284106114ac575050508201018161076b61077a610f38565b8054848a018601528895508794909301928101611493565b92607f169261142d565b50346101e45760203660031901126101e457359063ffffffff60e01b82168092036101e457602092506380ac58cd60e01b821491821561152a575b8215611519575b50519015158152f35b6301ffc9a760e01b14915038611510565b635b5e139f60e01b81149250611509565b9050346116075760203660031901126116075782846115ff9260a0966080863592611565816116dc565b828152826020820152828682015282606082015201526115886007548210611af4565b815260086020522083519361159c856116dc565b600180871b039384835416865260018301546020870190815260028401549183880192835260ff600386015416946115d860608a019687611ae8565b0154956080880196875283519751168752516020870152519085015251606084019061160b565b516080820152f35b8380fd5b9060048210156116185752565b634e487b7160e01b600052602160045260246000fd5b60005b8381106116415750506000910152565b8181015183820152602001611631565b9060209161166a8151809281855285808601910161162e565b601f01601f1916010190565b600435906001600160a01b038216820361168c57565b600080fd5b602435906001600160a01b038216820361168c57565b606090600319011261168c576001600160a01b0390600435828116810361168c5791602435908116810361168c579060443590565b60a0810190811067ffffffffffffffff8211176116f857604052565b634e487b7160e01b600052604160045260246000fd5b6020810190811067ffffffffffffffff8211176116f857604052565b90601f8019910116810190811067ffffffffffffffff8211176116f857604052565b67ffffffffffffffff81116116f857601f01601f191660200190565b6006546001600160a01b0316330361177c57565b60405163118cdaa760e01b8152336004820152602490fd5b6001600160a01b03918216929091831561191a57600092828452826020956002875260409684888820541696879133151580611884575b509060027fddf252ad1be2c89b69c2b068fc378daa952ba7f163c4a11628f55a4df523b3ef9284611851575b858352600381528b8320805460010190558683525289812080546001600160a01b0319168517905580a416928383036118305750505050565b6064945051926364283d7b60e01b8452600484015260248301526044820152fd5b600087815260046020526040902080546001600160a01b0319169055848352600381528b832080546000190190556117f7565b919394509150806118d9575b156118a0578592918791386117cb565b8786886118bd576024915190637e27328960e01b82526004820152fd5b604491519063177e802f60e01b82523360048301526024820152fd5b5033871480156118fe575b806118905750858252600481523385898420541614611890565b5086825260058152878220338352815260ff88832054166118e4565b604051633250574960e11b815260006004820152602490fd5b929092611941838583611794565b833b61194e575b50505050565b604051630a85bd0160e11b8082523360048301526001600160a01b039283166024830152604482019490945260806064820152949316926020929091859061199a906084830190611651565b039483816000978189895af1869181611a44575b50611a0f575050503d600014611a06573d6119c88161174c565b906119d6604051928361172a565b81528093823d92013e5b82519283611a0157604051633250574960e11b815260048101849052602490fd5b019050fd5b606092506119e0565b919450915063ffffffff60e01b1603611a2c575038808080611948565b60249060405190633250574960e11b82526004820152fd5b9091508481813d8311611a81575b611a5c818361172a565b81010312611a7d57516001600160e01b031981168103611a7d5790386119ae565b8680fd5b503d611a52565b6000818152600260205260409020546001600160a01b0316908115611aab575090565b60249060405190637e27328960e01b82526004820152fd5b6000198114611ad25760010190565b634e487b7160e01b600052601160045260246000fd5b60048210156116185752565b15611afb57565b60405162461bcd60e51b8152602060048201526014602482015273115d995b9d08191bd95cc81b9bdd08195e1a5cdd60621b6044820152606490fd5b91908201809211611ad257565b8115611b4e570490565b634e487b7160e01b600052601260045260246000fd5b90611b6e8261174c565b611b7b604051918261172a565b8281528092611b8c601f199161174c565b0190602036910137565b805115611c79578051600291828201809211611ad2576003918290046001600160fe1b0381168103611ad257611bcf908495941b611b64565b936020850193829183518401906020820192835194600085525b838110611c28575050505052510680600114611c1557600214611c0a575090565b603d90600019015390565b50603d9081600019820153600119015390565b87600491999293949901918251600190603f9082828260121c16880101518453828282600c1c16880101518385015382828260061c1688010151888501531685010151898201530197929190611be9565b5050604051611c878161170e565b6000815290565b806000917a184f03e93ff9f4daa797ed6e38ed64bf6a1f01000000000000000080821015611dc3575b506d04ee2d6d415b85acef810000000080831015611db4575b50662386f26fc1000080831015611da5575b506305f5e10080831015611d96575b5061271080831015611d87575b506064821015611d77575b600a80921015611d6d575b600190816021611d25828701611b64565b95860101905b611d37575b5050505090565b600019019083906f181899199a1a9b1b9c1cb0b131b232b360811b8282061a835304918215611d6857919082611d2b565b611d30565b9160010191611d14565b9190606460029104910191611d09565b60049193920491019138611cfe565b60089193920491019138611cf1565b60109193920491019138611ce2565b60209193920491019138611cd0565b604093508104915038611cb7565b908151811015611de2570160200190565b634e487b7160e01b600052603260045260246000fd5b6001600160a01b03166000908152600a60205260408120600181015491929115611e7557611e2f6004600383015492015482611b37565b9081611e39575050565b670de0b6b3a764000090818102918183041490151715611e6157611e5e929350611b44565b90565b634e487b7160e01b84526011600452602484fd5b50565b6001600160a01b03166000908152600a602052604090206005810154908115611ec3576002015490670de0b6b3a764000091828102928184041490151715611ad257611e5e91611b44565b5050600090565b6001600160a01b03166000908152600a602052604090206001810154905490818111611ec3578103908111611ad2579056fea264697066735822122038ffb7f3da03fcd8b22d3f951ba734720390bfcb9014a0fe2291b708214d807b64736f6c63430008140033",
  "linkReferences": {},
  "deployedLinkReferences": {}
}