{
  "_format": "hh-sol-artifact-1",
  "contractName": "MockAaveLending",
  "sourceName": "contracts/MockAaveLending.sol",
  "abi": [
    {
      "inputs": [
        {
          "internalType": "address",
          "name": "_dikeAddress",
          "type": "address"
        }
      ],
      "stateMutability": "nonpayable",
      "type": "constructor"
    },
    {
      "anonymous": false,
      "inputs": [
        {
          "indexed": true,
          "internalType": "address",
          "name": "user",
          "type": "address"
        },
        {
          "indexed": false,
          "internalType": "uint256",
          "name": "amount",
          "type": "uint256"
        },
        {
          "indexed": false,
          "internalType": "uint256",
          "name": "collateralRatioApplied",
          "type": "uint256"
        }
      ],
      "name": "Borrow",
      "type": "event"
    },
    {
      "anonymous": false,
      "inputs": [
        {
          "indexed": true,
          "internalType": "address",
          "name": "user",
          "type": "address"
        },
        {
          "indexed": false,
          "internalType": "uint256",
          "name": "amount",
          "type": "uint256"
        }
      ],
      "name": "CollateralDeposited",
      "type": "event"
    },
    {
      "anonymous": false,
      "inputs": [
        {
          "indexed": false,
          "internalType": "bool",
          "name": "enabled",
          "type": "bool"
        }
      ],
      "name": "DIKEToggled",
      "type": "event"
    },
    {
      "anonymous": false,
      "inputs": [
        {
          "indexed": true,
          "internalType": "address",
          "name": "user",
          "type": "address"
        },
        {
          "indexed": false,
          "internalType": "uint256",
          "name": "amount",
          "type": "uint256"
        }
      ],
      "name": "Repay",
      "type": "event"
    },
    {
      "inputs": [],
      "name": "baseCollateralRatio",
      "outputs": [
        {
          "internalType": "uint256",
          "name": "",
          "type": "uint256"
        }
      ],
      "stateMutability": "view",
      "type": "function"
    },
    {
      "inputs": [
        {
          "internalType": "uint256",
          "name": "amount",
          "type": "uint256"
        }
      ],
      "name": "borrow",
      "outputs": [],
      "stateMutability": "nonpayable",
      "type": "function"
    },
    {
      "inputs": [
        {
          "internalType": "address",
          "name": "",
          "type": "address"
        }
      ],
      "name": "borrowedAmount",
      "outputs": [
        {
          "internalType": "uint256",
          "name": "",
          "type": "uint256"
        }
      ],
      "stateMutability": "view",
      "type": "function"
    },
    {
      "inputs": [
        {
          "internalType": "address",
          "name": "",
          "type": "address"
        }
      ],
      "name": "collateralDeposited",
      "outputs": [
        {
          "internalType": "uint256",
          "name": "",
          "type": "uint256"
        }
      ],
      "stateMutability": "view",
      "type": "function"
    },
    {
      "inputs": [],
      "name": "depositCollateral",
      "outputs": [],
      "stateMutability": "payable",
      "type": "function"
    },
    {
      "inputs": [],
      "name": "dike",
      "outputs": [
        {
          "internalType": "contract IDIKE",
          "name": "",
          "type": "address"
        }
      ],
      "stateMutability": "view",
      "type": "function"
    },
    {
      "inputs": [
        {
          "internalType": "address",
          "name": "user",
          "type": "address"
        },
        {
          "internalType": "uint256",
          "name": "amount",
          "type": "uint256"
        }
      ],
      "name": "getRequiredCollateral",
      "outputs": [
        {
          "internalType": "uint256",
          "name": "",
          "type": "uint256"
        }
      ],
      "stateMutability": "view",
      "type": "function"
    },
    {
      "inputs": [
        {
          "internalType": "address",
          "name": "user",
          "type": "address"
        }
      ],
      "name": "getRequiredRatioFor",
      "outputs": [
        {
          "internalType": "uint256",
          "name": "",
          "type": "uint256"
        }
      ],
      "stateMutability": "view",
      "type": "function"
    },
    {
      "inputs": [],
      "name": "owner",
      "outputs": [
        {
          "internalType": "address",
          "name": "",
          "type": "address"
        }
      ],
      "stateMutability": "view",
      "type": "function"
    },
    {
      "inputs": [],
      "name": "preferredCollateralRatio",
      "outputs": [
        {
          "internalType": "uint256",
          "name": "",
          "type": "uint256"
        }
      ],
      "stateMutability": "view",
      "type": "function"
    },
    {
      "inputs": [],
      "name": "repay",
      "outputs": [],
      "stateMutability": "payable",
      "type": "function"
    },
    {
      "inputs": [
        {
          "internalType": "bool",
          "name": "enabled",
          "type": "bool"
        }
      ],
      "name": "toggleDIKE",
      "outputs": [],
      "stateMutability": "nonpayable",
      "type": "function"
    },
    {
      "inputs": [],
      "name": "useDIKE",
      "outputs": [
        {
          "internalType": "bool",
          "name": "",
          "type": "bool"
        }
      ],
      "stateMutability": "view",
      "type": "function"
    },
    {
      "stateMutability": "payable",
      "type": "receive"
    }
  ],
  "bytecode": "0x60806040526096600455606e6005556006805460ff1916905534801561002457600080fd5b50604051610b43380380610b4383398101604081905261004391610086565b600080546001600160a01b031916331790556001600160a01b0381161561008057600180546001600160a01b0319166001600160a01b0383161790555b506100b6565b60006020828403121561009857600080fd5b81516001600160a01b03811681146100af57600080fd5b9392505050565b610a7e806100c56000396000f3fe6080604052600436106100c65760003560e01c80638e0272cb1161007f578063c5ebeaec11610059578063c5ebeaec14610209578063cb14c88514610229578063ed81cf3214610249578063fcad8ff31461026957600080fd5b80638e0272cb14610192578063948adb8f146101b2578063bf141742146101df57600080fd5b80630a4b9ec2146100d2578063179b6934146101125780631bc4c1f614610132578063402d8883146101485780636f758140146101525780638da5cb5b1461015a57600080fd5b366100cd57005b600080fd5b3480156100de57600080fd5b506100ff6100ed3660046108f8565b60026020526000908152604090205481565b6040519081526020015b60405180910390f35b34801561011e57600080fd5b506100ff61012d366004610913565b61027f565b34801561013e57600080fd5b506100ff60055481565b6101506102a9565b005b610150610426565b34801561016657600080fd5b5060005461017a906001600160a01b031681565b6040516001600160a01b039091168152602001610109565b34801561019e57600080fd5b506100ff6101ad3660046108f8565b6104c4565b3480156101be57600080fd5b506100ff6101cd3660046108f8565b60036020526000908152604090205481565b3480156101eb57600080fd5b506006546101f99060ff1681565b6040519015158152602001610109565b34801561021557600080fd5b5061015061022436600461093d565b6104cf565b34801561023557600080fd5b5060015461017a906001600160a01b031681565b34801561025557600080fd5b50610150610264366004610956565b610731565b34801561027557600080fd5b506100ff60045481565b6000606461028c8461080c565b6102969084610995565b6102a091906109ac565b90505b92915050565b33600090815260036020526040902054806102fc5760405162461bcd60e51b815260206004820152600e60248201526d27379030b1ba34bb32903637b0b760911b60448201526064015b60405180910390fd5b803410156103455760405162461bcd60e51b8152602060048201526016602482015275135d5cdd081c995c185e48199d5b1b08185b5bdd5b9d60521b60448201526064016102f3565b33600090815260036020526040812055348110156103ee5760003361036a83346109ce565b604051600081818185875af1925050503d80600081146103a6576040519150601f19603f3d011682016040523d82523d6000602084013e6103ab565b606091505b50509050806103ec5760405162461bcd60e51b815260206004820152600d60248201526c1499599d5b990819985a5b1959609a1b60448201526064016102f3565b505b60405181815233907f5c16de4f8b59bd9caf0f49a545f25819a895ed223294290b408242e72a5942319060200160405180910390a250565b600034116104695760405162461bcd60e51b815260206004820152601060248201526f09aeae6e840c8cae0dee6d2e8408aa8960831b60448201526064016102f3565b33600090815260026020526040812080543492906104889084906109e1565b909155505060405134815233907fd7243f6f8212d5188fd054141cf6ea89cfc0d91facb8c3afe2f88a13584801429060200160405180910390a2565b60006102a38261080c565b6000811161051f5760405162461bcd60e51b815260206004820152601960248201527f426f72726f7720616d6f756e74206d757374206265203e20300000000000000060448201526064016102f3565b336000908152600360205260409020541561057c5760405162461bcd60e51b815260206004820152601960248201527f5265706179206578697374696e67206c6f616e2066697273740000000000000060448201526064016102f3565b804710156105cc5760405162461bcd60e51b815260206004820152601d60248201527f50726f746f636f6c2068617320696e73756666696369656e742045544800000060448201526064016102f3565b60006105d73361080c565b9050600060646105e78385610995565b6105f191906109ac565b336000908152600260205260409020549091508111156106535760405162461bcd60e51b815260206004820152601760248201527f496e73756666696369656e7420636f6c6c61746572616c00000000000000000060448201526064016102f3565b336000818152600360205260408082208690555190919085908381818185875af1925050503d80600081146106a4576040519150601f19603f3d011682016040523d82523d6000602084013e6106a9565b606091505b50509050806106f05760405162461bcd60e51b8152602060048201526013602482015272115512081d1c985b9cd9995c8819985a5b1959606a1b60448201526064016102f3565b604080518581526020810185905233917fe1979fe4c35e0cef342fef5668e2c8e7a7e9f5d5d1ca8fee0ac6c427fa4153af910160405180910390a250505050565b6000546001600160a01b031633146107775760405162461bcd60e51b81526020600482015260096024820152682737ba1037bbb732b960b91b60448201526064016102f3565b6001546001600160a01b03166107c55760405162461bcd60e51b8152602060048201526013602482015272111252d1481b9bdd0818dbdb999a59dd5c9959606a1b60448201526064016102f3565b6006805460ff19168215159081179091556040519081527f12336b38416013ae6287c5c4daf50cfe48ca34607c50a4f20e96e9b3b6e7c8889060200160405180910390a150565b60065460009060ff16158061082a57506001546001600160a01b0316155b1561083757505060045490565b60015460405163a016120b60e01b81526001600160a01b038481166004830152600092839291169063a016120b9060240160e060405180830381865afa158015610885573d6000803e3d6000fd5b505050506040513d601f19601f820116820180604052508101906108a991906109f4565b505050935093505050600581101580156108c1575081155b156108d157505060055492915050565b505060045492915050565b80356001600160a01b03811681146108f357600080fd5b919050565b60006020828403121561090a57600080fd5b6102a0826108dc565b6000806040838503121561092657600080fd5b61092f836108dc565b946020939093013593505050565b60006020828403121561094f57600080fd5b5035919050565b60006020828403121561096857600080fd5b8135801515811461097857600080fd5b9392505050565b634e487b7160e01b600052601160045260246000fd5b80820281158282048414176102a3576102a361097f565b6000826109c957634e487b7160e01b600052601260045260246000fd5b500490565b818103818111156102a3576102a361097f565b808201808211156102a3576102a361097f565b600080600080600080600060e0888a031215610a0f57600080fd5b5050855160208701516040880151606089015160808a015160a08b015160c0909b0151949c939b5091999098509096509450909250905056fea2646970667358221220cdadba5bcb19491efb683559b15bbb9e4a9aff4b8eb31140819c6acf186a334b64736f6c63430008140033",
  "linkReferences": {},
  "deployedLinkReferences": {}
}