{
  "_format": "hh-sol-artifact-1",
  "contractName": "MockLendingProtocol",
  "sourceName": "contracts/MockLendingProtocol.sol",
  "abi": [
    {
      "inputs": [
        {
          "internalType": "address",
          "name": "_token",
          "type": "address"
        }
      ],
      "stateMutability": "nonpayable",
      "type": "constructor"
    },
    {
      "inputs": [
        {
          "internalType": "address",
          "name": "owner",
          "type": "address"
        }
      ],
      "name": "OwnableInvalidOwner",
      "type": "error"
    },
    {
      "inputs": [
        {
          "internalType": "address",
          "name": "account",
          "type": "address"
        }
      ],
      "name": "OwnableUnauthorizedAccount",
      "type": "error"
    },
    {
      "anonymous": false,
      "inputs": [
        {
          "indexed": true,
          "internalType": "address",
          "name": "borrower",
          "type": "address"
        },
        {
          "indexed": false,
          "internalType": "uint256",
          "name": "loanId",
          "type": "uint256"
        },
        {
          "indexed": false,
          "internalType": "uint256",
          "name": "amount",
          "type": "uint256"
        }
      ],
      "name": "LoanBorrowed",
      "type": "event"
    },
    {
      "anonymous": false,
      "inputs": [
        {
          "indexed": true,
          "internalType": "address",
          "name": "borrower",
          "type": "address"
        },
        {
          "indexed": false,
          "internalType": "uint256",
          "name": "loanId",
          "type": "uint256"
        },
        {
          "indexed": false,
          "internalType": "uint256",
          "name": "amount",
          "type": "uint256"
        },
        {
          "indexed": false,
          "internalType": "uint256",
          "name": "timestamp",
          "type": "uint256"
        }
      ],
      "name": "LoanRepaid",
      "type": "event"
    },
    {
      "anonymous": false,
      "inputs": [
        {
          "indexed": true,
          "internalType": "address",
          "name": "previousOwner",
          "type": "address"
        },
        {
          "indexed": true,
          "internalType": "address",
          "name": "newOwner",
          "type": "address"
        }
      ],
      "name": "OwnershipTransferred",
      "type": "event"
    },
    {
      "inputs": [
        {
          "internalType": "uint256",
          "name": "amount",
          "type": "uint256"
        }
      ],
      "name": "borrow",
      "outputs": [],
      "stateMutability": "nonpayable",
      "type": "function"
    },
    {
      "inputs": [
        {
          "internalType": "uint256",
          "name": "amount",
          "type": "uint256"
        }
      ],
      "name": "fund",
      "outputs": [],
      "stateMutability": "nonpayable",
      "type": "function"
    },
    {
      "inputs": [],
      "name": "owner",
      "outputs": [
        {
          "internalType": "address",
          "name": "",
          "type": "address"
        }
      ],
      "stateMutability": "view",
      "type": "function"
    },
    {
      "inputs": [],
      "name": "renounceOwnership",
      "outputs": [],
      "stateMutability": "nonpayable",
      "type": "function"
    },
    {
      "inputs": [
        {
          "internalType": "uint256",
          "name": "loanId",
          "type": "uint256"
        }
      ],
      "name": "repay",
      "outputs": [],
      "stateMutability": "nonpayable",
      "type": "function"
    },
    {
      "inputs": [],
      "name": "token",
      "outputs": [
        {
          "internalType": "contract IERC20",
          "name": "",
          "type": "address"
        }
      ],
      "stateMutability": "view",
      "type": "function"
    },
    {
      "inputs": [
        {
          "internalType": "address",
          "name": "newOwner",
          "type": "address"
        }
      ],
      "name": "transferOwnership",
      "outputs": [],
      "stateMutability": "nonpayable",
      "type": "function"
    },
    {
      "inputs": [
        {
          "internalType": "address",
          "name": "",
          "type": "address"
        },
        {
          "internalType": "uint256",
          "name": "",
          "type": "uint256"
        }
      ],
      "name": "userLoans",
      "outputs": [
        {
          "internalType": "uint256",
          "name": "principal",
          "type": "uint256"
        },
        {
          "internalType": "uint256",
          "name": "borrowedAt",
          "type": "uint256"
        },
        {
          "internalType": "bool",
          "name": "repaid",
          "type": "bool"
        }
      ],
      "stateMutability": "view",
      "type": "function"
    }
  ],
  "bytecode": "0x60a0346100dc57601f6108fe38819003918201601f19168301916001600160401b038311848410176100e1578084926020946040528339810103126100dc57516001600160a01b0390818116908190036100dc5733156100c3576000543360018060a01b0319821617600055604051923391167f8be0079c531659141344cd1fd0a4f28419497f9722a3daafe3b4186f6b6457e0600080a360805261080690816100f8823960805181818160900152818161021f0152818161039701526105710152f35b604051631e4fbdf760e01b815260006004820152602490fd5b600080fd5b634e487b7160e01b600052604160045260246000fdfe608060408181526004918236101561001657600080fd5b600092833560e01c918263371fd8e6146104e757508163715018a61461048d5781638da5cb5b14610465578163c5ebeaec146102cd578163ca1d209d146101be578163d8bad5bd1461014e578163f2fde38b146100c3575063fc0c546a1461007d57600080fd5b346100bf57816003193601126100bf57517f00000000000000000000000000000000000000000000000000000000000000006001600160a01b03168152602090f35b5080fd5b90503461014a57602036600319011261014a576100de61067e565b906100e76106cb565b6001600160a01b0391821692831561013457505082546001600160a01b0319811683178455167f8be0079c531659141344cd1fd0a4f28419497f9722a3daafe3b4186f6b6457e08380a380f35b51631e4fbdf760e01b8152908101849052602490fd5b8280fd5b5050346100bf57806003193601126100bf5761016861067e565b6001600160a01b031682526001602052808220805460243593908410156101bb575060609261019691610699565b509081549160ff60026001830154920154169082519384526020840152151590820152f35b80fd5b9190503461014a57602036600319011261014a5761021a602083356101e16106cb565b6101ec8115156106f7565b83516323b872dd60e01b81523386820190815230602082015260408101929092529283918291606090910190565b0381877f00000000000000000000000000000000000000000000000000000000000000006001600160a01b03165af19081156102c3578491610295575b5015610261578280f35b906020606492519162461bcd60e51b8352820152600e60248201526d119d5b991a5b99c819985a5b195960921b6044820152fd5b6102b6915060203d81116102bc575b6102ae8183610742565b81019061077a565b38610257565b503d6102a4565b82513d86823e3d90fd5b9190503461014a57602090816003193601126104615782356102f08115156106f7565b338552600183528185209283549383516060810181811067ffffffffffffffff82111761044e578552838152828101428152858201928984526801000000000000000088101561043b578761034a91600182018155610699565b929092610429579060029291518255516001820155019051151560ff8019835416911617905582519463a9059cbb60e01b8652339086015281602486015280856044818960018060a01b037f0000000000000000000000000000000000000000000000000000000000000000165af194851561041f577f85d2ace8876663584e65ae889b8c3984c9a31b5b594750252e6bda129da8283d94956103f4918891610402575b50610792565b82519485528401523392a280f35b6104199150833d85116102bc576102ae8183610742565b386103ee565b83513d88823e3d90fd5b634e487b7160e01b8a5289895260248afd5b634e487b7160e01b8a526041895260248afd5b634e487b7160e01b895260418852602489fd5b8380fd5b5050346100bf57816003193601126100bf57905490516001600160a01b039091168152602090f35b83346101bb57806003193601126101bb576104a66106cb565b80546001600160a01b03198116825581906001600160a01b03167f8be0079c531659141344cd1fd0a4f28419497f9722a3daafe3b4186f6b6457e08280a380f35b92915034610461576020908160031936011261067a57803593338652600183528386205485101561064557503385526001825261052684848720610699565b509060028201805460ff811661060c5760ff19166001179055815484516323b872dd60e01b8152339281019283523060208401526040830191909152908390829081906060010381897f00000000000000000000000000000000000000000000000000000000000000006001600160a01b03165af190811561060257906105b39187916105eb5750610792565b5490825193845283015242908201527f2cebe3c4a7e8e81ca2035a6cb3ee450bb6401d9b6636652e183583f04704957260603392a280f35b6104199150843d86116102bc576102ae8183610742565b84513d88823e3d90fd5b855162461bcd60e51b81528084018690526013602482015272131bd85b88185b1c9958591e481c995c185a59606a1b6044820152606490fd5b8260649262461bcd60e51b83528201526013602482015272131bd85b88191bd95cc81b9bdd08195e1a5cdd606a1b6044820152fd5b8480fd5b600435906001600160a01b038216820361069457565b600080fd5b80548210156106b5576000526003602060002091020190600090565b634e487b7160e01b600052603260045260246000fd5b6000546001600160a01b031633036106df57565b60405163118cdaa760e01b8152336004820152602490fd5b156106fe57565b606460405162461bcd60e51b815260206004820152602060248201527f416d6f756e74206d7573742062652067726561746572207468616e207a65726f6044820152fd5b90601f8019910116810190811067ffffffffffffffff82111761076457604052565b634e487b7160e01b600052604160045260246000fd5b90816020910312610694575180151581036106945790565b1561079957565b60405162461bcd60e51b815260206004820152600f60248201526e151c985b9cd9995c8819985a5b1959608a1b6044820152606490fdfea2646970667358221220977360c255648a89b8a447b53bf73d1be61b90988d2039b854d30038c7bab6fc64736f6c63430008140033",
  "linkReferences": {},
  "deployedLinkReferences": {}
}