{"contracts/MockAaveLending.sol":{"MockAaveLending":{"abi":[{"inputs":[{"internalType":"address","name":"_dikeAddress","type":"address"}],"stateMutability":"nonpayable","type":"constructor"},{"anonymous":false,"inputs":[{"indexed":true,"internalType":"address","name":"user","type":"address"},{"indexed":false,"internalType":"uint256","name":"amount","type":"uint256"},{"indexed":false,"internalType":"uint256","name":"collateralRatioApplied","type":"uint256"}],"name":"Borrow","type":"event"},{"anonymous":false,"inputs":[{"indexed":true,"internalType":"address","name":"user","type":"address"},{"indexed":false,"internalType":"uint256","name":"amount","type":"uint256"}],"name":"CollateralDeposited","type":"event"},{"anonymous":false,"inputs":[{"indexed":false,"internalType":"bool","name":"enabled","type":"bool"}],"name":"DIKEToggled","type":"event"},{"anonymous":false,"inputs":[{"indexed":true,"internalType":"address","name":"user","type":"address"},{"indexed":false,"internalType":"uint256","name":"amount","type":"uint256"}],"name":"Repay","type":"event"},{"inputs":[],"name":"baseCollateralRatio","outputs":[{"internalType":"uint256","name":"","type":"uint256"}],"stateMutability":"view","type":"function"},{"inputs":[{"internalType":"uint256","name":"amount","type":"uint256"}],"name":"borrow","outputs":[],"stateMutability":"nonpayable","type":"function"},{"inputs":[{"internalType":"address","name":"","type":"address"}],"name":"borrowedAmount","outputs":[{"internalType":"uint256","name":"","type":"uint256"}],"stateMutability":"view","type":"function"},{"inputs":[{"internalType":"address","name":"","type":"address"}],"name":"collateralDeposited","outputs":[{"internalType":"uint256","name":"","type":"uint256"}],"stateMutability":"view","type":"function"},{"inputs":[],"name":"depositCollateral","outputs":[],"stateMutability":"payable","type":"function"},{"inputs":[],"name":"dike","outputs":[{"internalType":"contract IDIKE","name":"","type":"address"}],"stateMutability":"view","type":"function"},{"inputs":[{"internalType":"address","name":"user","type":"address"},{"internalType":"uint256","name":"amount","type":"uint256"}],"name":"getRequiredCollateral","outputs":[{"internalType":"uint256","name":"","type":"uint256"}],"stateMutability":"view","type":"function"},{"inputs":[{"internalType":"address","name":"user","type":"address"}],"name":"getRequiredRatioFor","outputs":[{"internalType":"uint256","name":"","type":"uint256"}],"stateMutability":"view","type":"function"},{"inputs":[],"name":"owner","outputs":[{"internalType":"address","name":"","type":"address"}],"stateMutability":"view","type":"function"},{"inputs":[],"name":"preferredCollateralRatio","outputs":[{"internalType":"uint256","name":"","type":"uint256"}],"stateMutability":"view","type":"function"},{"inputs":[],"name":"repay","outputs":[],"stateMutability":"payable","type":"function"},{"inputs":[{"internalType":"bool","name":"enabled","type":"bool"}],"name":"toggleDIKE","outputs":[],"stateMutability":"nonpayable","type":"function"},{"inputs":[],"name":"useDIKE","outputs":[{"internalType":"bool","name":"","type":"bool"}],"stateMutability":"view","type":"function"},{"stateMutability":"payable","type":"receive"}],"evm":{"bytecode":{"linkReferences":{},"object":"60806040526096600455606e6005556006805460ff1916905534801561002457600080fd5b50604051610b43380380610b4383398101604081905261004391610086565b600080546001600160a01b031916331790556001600160a01b0381161561008057600180546001600160a01b0319166001600160a01b0383161790555b506100b6565b60006020828403121561009857600080fd5b81516001600160a01b03811681146100af57600080fd5b9392505050565b610a7e806100c56000396000f3fe6080604052600436106100c65760003560e01c80638e0272cb1161007f578063c5ebeaec11610059578063c5ebeaec14610209578063cb14c88514610229578063ed81cf3214610249578063fcad8ff31461026957600080fd5b80638e0272cb14610192578063948adb8f146101b2578063bf141742146101df57600080fd5b80630a4b9ec2146100d2578063179b6934146101125780631bc4c1f614610132578063402d8883146101485780636f758140146101525780638da5cb5b1461015a57600080fd5b366100cd57005b600080fd5b3480156100de57600080fd5b506100ff6100ed3660046108f8565b60026020526000908152604090205481565b6040519081526020015b60405180910390f35b34801561011e57600080fd5b506100ff61012d366004610913565b61027f565b34801561013e57600080fd5b506100ff60055481565b6101506102a9565b005b610150610426565b34801561016657600080fd5b5060005461017a906001600160a01b031681565b6040516001600160a01b039091168152602001610109565b34801561019e57600080fd5b506100ff6101ad3660046108f8565b6104c4565b3480156101be57600080fd5b506100ff6101cd3660046108f8565b60036020526000908152604090205481565b3480156101eb57600080fd5b506006546101f99060ff1681565b6040519015158152602001610109565b34801561021557600080fd5b5061015061022436600461093d565b6104cf565b34801561023557600080fd5b5060015461017a906001600160a01b031681565b34801561025557600080fd5b50610150610264366004610956565b610731565b34801561027557600080fd5b506100ff60045481565b6000606461028c8461080c565b6102969084610995565b6102a091906109ac565b90505b92915050565b33600090815260036020526040902054806102fc5760405162461bcd60e51b815260206004820152600e60248201526d27379030b1ba34bb32903637b0b760911b60448201526064015b60405180910390fd5b803410156103455760405162461bcd60e51b8152602060048201526016602482015275135d5cdd081c995c185e48199d5b1b08185b5bdd5b9d60521b60448201526064016102f3565b33600090815260036020526040812055348110156103ee5760003361036a83346109ce565b604051600081818185875af1925050503d80600081146103a6576040519150601f19603f3d011682016040523d82523d6000602084013e6103ab565b606091505b50509050806103ec5760405162461bcd60e51b815260206004820152600d60248201526c1499599d5b990819985a5b1959609a1b60448201526064016102f3565b505b60405181815233907f5c16de4f8b59bd9caf0f49a545f25819a895ed223294290b408242e72a5942319060200160405180910390a250565b600034116104695760405162461bcd60e51b815260206004820152601060248201526f09aeae6e840c8cae0dee6d2e8408aa8960831b60448201526064016102f3565b33600090815260026020526040812080543492906104889084906109e1565b909155505060405134815233907fd7243f6f8212d5188fd054141cf6ea89cfc0d91facb8c3afe2f88a13584801429060200160405180910390a2565b60006102a38261080c565b6000811161051f5760405162461bcd60e51b815260206004820152601960248201527f426f72726f7720616d6f756e74206d757374206265203e20300000000000000060448201526064016102f3565b336000908152600360205260409020541561057c5760405162461bcd60e51b815260206004820152601960248201527f5265706179206578697374696e67206c6f616e2066697273740000000000000060448201526064016102f3565b804710156105cc5760405162461bcd60e51b815260206004820152601d60248201527f50726f746f636f6c2068617320696e73756666696369656e742045544800000060448201526064016102f3565b60006105d73361080c565b9050600060646105e78385610995565b6105f191906109ac565b336000908152600260205260409020549091508111156106535760405162461bcd60e51b815260206004820152601760248201527f496e73756666696369656e7420636f6c6c61746572616c00000000000000000060448201526064016102f3565b336000818152600360205260408082208690555190919085908381818185875af1925050503d80600081146106a4576040519150601f19603f3d011682016040523d82523d6000602084013e6106a9565b606091505b50509050806106f05760405162461bcd60e51b8152602060048201526013602482015272115512081d1c985b9cd9995c8819985a5b1959606a1b60448201526064016102f3565b604080518581526020810185905233917fe1979fe4c35e0cef342fef5668e2c8e7a7e9f5d5d1ca8fee0ac6c427fa4153af910160405180910390a250505050565b6000546001600160a01b031633146107775760405162461bcd60e51b81526020600482015260096024820152682737ba1037bbb732b960b91b60448201526064016102f3565b6001546001600160a01b03166107c55760405162461bcd60e51b8152602060048201526013602482015272111252d1481b9bdd0818dbdb999a59dd5c9959606a1b60448201526064016102f3565b6006805460ff19168215159081179091556040519081527f12336b38416013ae6287c5c4daf50cfe48ca34607c50a4f20e96e9b3b6e7c8889060200160405180910390a150565b60065460009060ff16158061082a57506001546001600160a01b0316155b1561083757505060045490565b60015460405163a016120b60e01b81526001600160a01b038481166004830152600092839291169063a016120b9060240160e060405180830381865afa158015610885573d6000803e3d6000fd5b505050506040513d601f19601f820116820180604052508101906108a991906109f4565b505050935093505050600581101580156108c1575081155b156108d157505060055492915050565b505060045492915050565b80356001600160a01b03811681146108f357600080fd5b919050565b60006020828403121561090a57600080fd5b6102a0826108dc565b6000806040838503121561092657600080fd5b61092f836108dc565b946020939093013593505050565b60006020828403121561094f57600080fd5b5035919050565b60006020828403121561096857600080fd5b8135801515811461097857600080fd5b9392505050565b634e487b7160e01b600052601160045260246000fd5b80820281158282048414176102a3576102a361097f565b6000826109c957634e487b7160e01b600052601260045260246000fd5b500490565b818103818111156102a3576102a361097f565b808201808211156102a3576102a361097f565b600080600080600080600060e0888a031215610a0f57600080fd5b5050855160208701516040880151606089015160808a015160a08b015160c0909b0151949c939b5091999098509096509450909250905056fea2646970667358221220cdadba5bcb19491efb683559b15bbb9e4a9aff4b8eb31140819c6acf186a334b64736f6c63430008140033","opcodes":"PUSH1 0x80 PUSH1 0x40 MSTORE PUSH1 0x96 PUSH1 0x4 SSTORE PUSH1 0x6E PUSH1 0x5 SSTORE PUSH1 0x6 DUP1 SLOAD PUSH1 0xFF NOT AND SWAP1 SSTORE CALLVALUE DUP1 ISZERO PUSH2 0x24 JUMPI PUSH1 0x0 DUP1 REVERT JUMPDEST POP PUSH1 0x40 MLOAD PUSH2 0xB43 CODESIZE SUB DUP1 PUSH2 0xB43 DUP4 CODECOPY DUP2 ADD PUSH1 0x40 DUP2 SWAP1 MSTORE PUSH2 0x43 SWAP2 PUSH2 0x86 JUMP JUMPDEST PUSH1 0x0 DUP1 SLOAD PUSH1 0x1 PUSH1 0x1 PUSH1 0xA0 SHL SUB NOT AND CALLER OR SWAP1 SSTORE PUSH1 0x1 PUSH1 0x1 PUSH1 0xA0 SHL SUB DUP2 AND ISZERO PUSH2 0x80 JUMPI PUSH1 0x1 DUP1 SLOAD PUSH1 0x1 PUSH1 0x1 PUSH1 0xA0 SHL SUB NOT AND PUSH1 0x1 PUSH1 0x1 PUSH1 0xA0 SHL SUB DUP4 AND OR SWAP1 SSTORE JUMPDEST POP PUSH2 0xB6 JUMP JUMPDEST PUSH1 0x0 PUSH1 0x20 DUP3 DUP5 SUB SLT ISZERO PUSH2 0x98 JUMPI PUSH1 0x0 DUP1 REVERT JUMPDEST DUP2 MLOAD PUSH1 0x1 PUSH1 0x1 PUSH1 0xA0 SHL SUB DUP2 AND DUP2 EQ PUSH2 0xAF JUMPI PUSH1 0x0 DUP1 REVERT JUMPDEST SWAP4 SWAP3 POP POP POP JUMP JUMPDEST PUSH2 0xA7E DUP1 PUSH2 0xC5 PUSH1 0x0 CODECOPY PUSH1 0x0 RETURN INVALID PUSH1 0x80 PUSH1 0x40 MSTORE PUSH1 0x4 CALLDATASIZE LT PUSH2 0xC6 JUMPI PUSH1 0x0 CALLDATALOAD PUSH1 0xE0 SHR DUP1 PUSH4 0x8E0272CB GT PUSH2 0x7F JUMPI DUP1 PUSH4 0xC5EBEAEC GT PUSH2 0x59 JUMPI DUP1 PUSH4 0xC5EBEAEC EQ PUSH2 0x209 JUMPI DUP1 PUSH4 0xCB14C885 EQ PUSH2 0x229 JUMPI DUP1 PUSH4 0xED81CF32 EQ PUSH2 0x249 JUMPI DUP1 PUSH4 0xFCAD8FF3 EQ PUSH2 0x269 JUMPI PUSH1 0x0 DUP1 REVERT JUMPDEST DUP1 PUSH4 0x8E0272CB EQ PUSH2 0x192 JUMPI DUP1 PUSH4 0x948ADB8F EQ PUSH2 0x1B2 JUMPI DUP1 PUSH4 0xBF141742 EQ PUSH2 0x1DF JUMPI PUSH1 0x0 DUP1 REVERT JUMPDEST DUP1 PUSH4 0xA4B9EC2 EQ PUSH2 0xD2 JUMPI DUP1 PUSH4 0x179B6934 EQ PUSH2 0x112 JUMPI DUP1 PUSH4 0x1BC4C1F6 EQ PUSH2 0x132 JUMPI DUP1 PUSH4 0x402D8883 EQ PUSH2 0x148 JUMPI DUP1 PUSH4 0x6F758140 EQ PUSH2 0x152 JUMPI DUP1 PUSH4 0x8DA5CB5B EQ PUSH2 0x15A JUMPI PUSH1 0x0 DUP1 REVERT JUMPDEST CALLDATASIZE PUSH2 0xCD JUMPI STOP JUMPDEST PUSH1 0x0 DUP1 REVERT JUMPDEST CALLVALUE DUP1 ISZERO PUSH2 0xDE JUMPI PUSH1 0x0 DUP1 REVERT JUMPDEST POP PUSH2 0xFF PUSH2 0xED CALLDATASIZE PUSH1 0x4 PUSH2 0x8F8 JUMP JUMPDEST PUSH1 0x2 PUSH1 0x20 MSTORE PUSH1 0x0 SWAP1 DUP2 MSTORE PUSH1 0x40 SWAP1 KECCAK256 SLOAD DUP2 JUMP JUMPDEST PUSH1 0x40 MLOAD SWAP1 DUP2 MSTORE PUSH1 0x20 ADD JUMPDEST PUSH1 0x40 MLOAD DUP1 SWAP2 SUB SWAP1 RETURN JUMPDEST CALLVALUE DUP1 ISZERO PUSH2 0x11E JUMPI PUSH1 0x0 DUP1 REVERT JUMPDEST POP PUSH2 0xFF PUSH2 0x12D CALLDATASIZE PUSH1 0x4 PUSH2 0x913 JUMP JUMPDEST PUSH2 0x27F JUMP JUMPDEST CALLVALUE DUP1 ISZERO PUSH2 0x13E JUMPI PUSH1 0x0 DUP1 REVERT JUMPDEST POP PUSH2 0xFF PUSH1 0x5 SLOAD DUP2 JUMP JUMPDEST PUSH2 0x150 PUSH2 0x2A9 JUMP JUMPDEST STOP JUMPDEST PUSH2 0x150 PUSH2 0x426 JUMP JUMPDEST CALLVALUE DUP1 ISZERO PUSH2 0x166 JUMPI PUSH1 0x0 DUP1 REVERT JUMPDEST POP PUSH1 0x0 SLOAD PUSH2 0x17A SWAP1 PUSH1 0x1 PUSH1 0x1 PUSH1 0xA0 SHL SUB AND DUP2 JUMP JUMPDEST PUSH1 0x40 MLOAD PUSH1 0x1 PUSH1 0x1 PUSH1 0xA0 SHL SUB SWAP1 SWAP2 AND DUP2 MSTORE PUSH1 0x20 ADD PUSH2 0x109 JUMP JUMPDEST CALLVALUE DUP1 ISZERO PUSH2 0x19E JUMPI PUSH1 0x0 DUP1 REVERT JUMPDEST POP PUSH2 0xFF PUSH2 0x1AD CALLDATASIZE PUSH1 0x4 PUSH2 0x8F8 JUMP JUMPDEST PUSH2 0x4C4 JUMP JUMPDEST CALLVALUE DUP1 ISZERO PUSH2 0x1BE JUMPI PUSH1 0x0 DUP1 REVERT JUMPDEST POP PUSH2 0xFF PUSH2 0x1CD CALLDATASIZE PUSH1 0x4 PUSH2 0x8F8 JUMP JUMPDEST PUSH1 0x3 PUSH1 0x20 MSTORE PUSH1 0x0 SWAP1 DUP2 MSTORE PUSH1 0x40 SWAP1 KECCAK256 SLOAD DUP2 JUMP JUMPDEST CALLVALUE DUP1 ISZERO PUSH2 0x1EB JUMPI PUSH1 0x0 DUP1 REVERT JUMPDEST POP PUSH1 0x6 SLOAD PUSH2 0x1F9 SWAP1 PUSH1 0xFF AND DUP2 JUMP JUMPDEST PUSH1 0x40 MLOAD SWAP1 ISZERO ISZERO DUP2 MSTORE PUSH1 0x20 ADD PUSH2 0x109 JUMP JUMPDEST CALLVALUE DUP1 ISZERO PUSH2 0x215 JUMPI PUSH1 0x0 DUP1 REVERT JUMPDEST POP PUSH2 0x150 PUSH2 0x224 CALLDATASIZE PUSH1 0x4 PUSH2 0x93D JUMP JUMPDEST PUSH2 0x4CF JUMP JUMPDEST CALLVALUE DUP1 ISZERO PUSH2 0x235 JUMPI PUSH1 0x0 DUP1 REVERT JUMPDEST POP PUSH1 0x1 SLOAD PUSH2 0x17A SWAP1 PUSH1 0x1 PUSH1 0x1 PUSH1 0xA0 SHL SUB AND DUP2 JUMP JUMPDEST CALLVALUE DUP1 ISZERO PUSH2 0x255 JUMPI PUSH1 0x0 DUP1 REVERT JUMPDEST POP PUSH2 0x150 PUSH2 0x264 CALLDATASIZE PUSH1 0x4 PUSH2 0x956 JUMP JUMPDEST PUSH2 0x731 JUMP JUMPDEST CALLVALUE DUP1 ISZERO PUSH2 0x275 JUMPI PUSH1 0x0 DUP1 REVERT JUMPDEST POP PUSH2 0xFF PUSH1 0x4 SLOAD DUP2 JUMP JUMPDEST PUSH1 0x0 PUSH1 0x64 PUSH2 0x28C DUP5 PUSH2 0x80C JUMP JUMPDEST PUSH2 0x296 SWAP1 DUP5 PUSH2 0x995 JUMP JUMPDEST PUSH2 0x2A0 SWAP2 SWAP1 PUSH2 0x9AC JUMP JUMPDEST SWAP1 POP JUMPDEST SWAP3 SWAP2 POP POP JUMP JUMPDEST CALLER PUSH1 0x0 SWAP1 DUP2 MSTORE PUSH1 0x3 PUSH1 0x20 MSTORE PUSH1 0x40 SWAP1 KECCAK256 SLOAD DUP1 PUSH2 0x2FC JUMPI PUSH1 0x40 MLOAD PUSH3 0x461BCD PUSH1 0xE5 SHL DUP2 MSTORE PUSH1 0x20 PUSH1 0x4 DUP3 ADD MSTORE PUSH1 0xE PUSH1 0x24 DUP3 ADD MSTORE PUSH14 0x27379030B1BA34BB32903637B0B7 PUSH1 0x91 SHL PUSH1 0x44 DUP3 ADD MSTORE PUSH1 0x64 ADD JUMPDEST PUSH1 0x40 MLOAD DUP1 SWAP2 SUB SWAP1 REVERT JUMPDEST DUP1 CALLVALUE LT ISZERO PUSH2 0x345 JUMPI PUSH1 0x40 MLOAD PUSH3 0x461BCD PUSH1 0xE5 SHL DUP2 MSTORE PUSH1 0x20 PUSH1 0x4 DUP3 ADD MSTORE PUSH1 0x16 PUSH1 0x24 DUP3 ADD MSTORE PUSH22 0x135D5CDD081C995C185E48199D5B1B08185B5BDD5B9D PUSH1 0x52 SHL PUSH1 0x44 DUP3 ADD MSTORE PUSH1 0x64 ADD PUSH2 0x2F3 JUMP JUMPDEST CALLER PUSH1 0x0 SWAP1 DUP2 MSTORE PUSH1 0x3 PUSH1 0x20 MSTORE PUSH1 0x40 DUP2 KECCAK256 SSTORE CALLVALUE DUP2 LT ISZERO PUSH2 0x3EE JUMPI PUSH1 0x0 CALLER PUSH2 0x36A DUP4 CALLVALUE PUSH2 0x9CE JUMP JUMPDEST PUSH1 0x40 MLOAD PUSH1 0x0 DUP2 DUP2 DUP2 DUP6 DUP8 GAS CALL SWAP3 POP POP POP RETURNDATASIZE DUP1 PUSH1 0x0 DUP2 EQ PUSH2 0x3A6 JUMPI PUSH1 0x40 MLOAD SWAP2 POP PUSH1 0x1F NOT PUSH1 0x3F RETURNDATASIZE ADD AND DUP3 ADD PUSH1 0x40 MSTORE RETURNDATASIZE DUP3 MSTORE RETURNDATASIZE PUSH1 0x0 PUSH1 0x20 DUP5 ADD RETURNDATACOPY PUSH2 0x3AB JUMP JUMPDEST PUSH1 0x60 SWAP2 POP JUMPDEST POP POP SWAP1 POP DUP1 PUSH2 0x3EC JUMPI PUSH1 0x40 MLOAD PUSH3 0x461BCD PUSH1 0xE5 SHL DUP2 MSTORE PUSH1 0x20 PUSH1 0x4 DUP3 ADD MSTORE PUSH1 0xD PUSH1 0x24 DUP3 ADD MSTORE PUSH13 0x1499599D5B990819985A5B1959 PUSH1 0x9A SHL PUSH1 0x44 DUP3 ADD MSTORE PUSH1 0x64 ADD PUSH2 0x2F3 JUMP JUMPDEST POP JUMPDEST PUSH1 0x40 MLOAD DUP2 DUP2 MSTORE CALLER SWAP1 PUSH32 0x5C16DE4F8B59BD9CAF0F49A545F25819A895ED223294290B408242E72A594231 SWAP1 PUSH1 0x20 ADD PUSH1 0x40 MLOAD DUP1 SWAP2 SUB SWAP1 LOG2 POP JUMP JUMPDEST PUSH1 0x0 CALLVALUE GT PUSH2 0x469 JUMPI PUSH1 0x40 MLOAD PUSH3 0x461BCD PUSH1 0xE5 SHL DUP2 MSTORE PUSH1 0x20 PUSH1 0x4 DUP3 ADD MSTORE PUSH1 0x10 PUSH1 0x24 DUP3 ADD MSTORE PUSH16 0x9AEAE6E840C8CAE0DEE6D2E8408AA89 PUSH1 0x83 SHL PUSH1 0x44 DUP3 ADD MSTORE PUSH1 0x64 ADD PUSH2 0x2F3 JUMP JUMPDEST CALLER PUSH1 0x0 SWAP1 DUP2 MSTORE PUSH1 0x2 PUSH1 0x20 MSTORE PUSH1 0x40 DUP2 KECCAK256 DUP1 SLOAD CALLVALUE SWAP3 SWAP1 PUSH2 0x488 SWAP1 DUP5 SWAP1 PUSH2 0x9E1 JUMP JUMPDEST SWAP1 SWAP2 SSTORE POP POP PUSH1 0x40 MLOAD CALLVALUE DUP2 MSTORE CALLER SWAP1 PUSH32 0xD7243F6F8212D5188FD054141CF6EA89CFC0D91FACB8C3AFE2F88A1358480142 SWAP1 PUSH1 0x20 ADD PUSH1 0x40 MLOAD DUP1 SWAP2 SUB SWAP1 LOG2 JUMP JUMPDEST PUSH1 0x0 PUSH2 0x2A3 DUP3 PUSH2 0x80C JUMP JUMPDEST PUSH1 0x0 DUP2 GT PUSH2 0x51F JUMPI PUSH1 0x40 MLOAD PUSH3 0x461BCD PUSH1 0xE5 SHL DUP2 MSTORE PUSH1 0x20 PUSH1 0x4 DUP3 ADD MSTORE PUSH1 0x19 PUSH1 0x24 DUP3 ADD MSTORE PUSH32 0x426F72726F7720616D6F756E74206D757374206265203E203000000000000000 PUSH1 0x44 DUP3 ADD MSTORE PUSH1 0x64 ADD PUSH2 0x2F3 JUMP JUMPDEST CALLER PUSH1 0x0 SWAP1 DUP2 MSTORE PUSH1 0x3 PUSH1 0x20 MSTORE PUSH1 0x40 SWAP1 KECCAK256 SLOAD ISZERO PUSH2 0x57C JUMPI PUSH1 0x40 MLOAD PUSH3 0x461BCD PUSH1 0xE5 SHL DUP2 MSTORE PUSH1 0x20 PUSH1 0x4 DUP3 ADD MSTORE PUSH1 0x19 PUSH1 0x24 DUP3 ADD MSTORE PUSH32 0x5265706179206578697374696E67206C6F616E20666972737400000000000000 PUSH1 0x44 DUP3 ADD MSTORE PUSH1 0x64 ADD PUSH2 0x2F3 JUMP JUMPDEST DUP1 SELFBALANCE LT ISZERO PUSH2 0x5CC JUMPI PUSH1 0x40 MLOAD PUSH3 0x461BCD PUSH1 0xE5 SHL DUP2 MSTORE PUSH1 0x20 PUSH1 0x4 DUP3 ADD MSTORE PUSH1 0x1D PUSH1 0x24 DUP3 ADD MSTORE PUSH32 0x50726F746F636F6C2068617320696E73756666696369656E7420455448000000 PUSH1 0x44 DUP3 ADD MSTORE PUSH1 0x64 ADD PUSH2 0x2F3 JUMP JUMPDEST PUSH1 0x0 PUSH2 0x5D7 CALLER PUSH2 0x80C JUMP JUMPDEST SWAP1 POP PUSH1 0x0 PUSH1 0x64 PUSH2 0x5E7 DUP4 DUP6 PUSH2 0x995 JUMP JUMPDEST PUSH2 0x5F1 SWAP2 SWAP1 PUSH2 0x9AC JUMP JUMPDEST CALLER PUSH1 0x0 SWAP1 DUP2 MSTORE PUSH1 0x2 PUSH1 0x20 MSTORE PUSH1 0x40 SWAP1 KECCAK256 SLOAD SWAP1 SWAP2 POP DUP2 GT ISZERO PUSH2 0x653 JUMPI PUSH1 0x40 MLOAD PUSH3 0x461BCD PUSH1 0xE5 SHL DUP2 MSTORE PUSH1 0x20 PUSH1 0x4 DUP3 ADD MSTORE PUSH1 0x17 PUSH1 0x24 DUP3 ADD MSTORE PUSH32 0x496E73756666696369656E7420636F6C6C61746572616C000000000000000000 PUSH1 0x44 DUP3 ADD MSTORE PUSH1 0x64 ADD PUSH2 0x2F3 JUMP JUMPDEST CALLER PUSH1 0x0 DUP2 DUP2 MSTORE PUSH1 0x3 PUSH1 0x20 MSTORE PUSH1 0x40 DUP1 DUP3 KECCAK256 DUP7 SWAP1 SSTORE MLOAD SWAP1 SWAP2 SWAP1 DUP6 SWAP1 DUP4 DUP2 DUP2 DUP2 DUP6 DUP8 GAS CALL SWAP3 POP POP POP RETURNDATASIZE DUP1 PUSH1 0x0 DUP2 EQ PUSH2 0x6A4 JUMPI PUSH1 0x40 MLOAD SWAP2 POP PUSH1 0x1F NOT PUSH1 0x3F RETURNDATASIZE ADD AND DUP3 ADD PUSH1 0x40 MSTORE RETURNDATASIZE DUP3 MSTORE RETURNDATASIZE PUSH1 0x0 PUSH1 0x20 DUP5 ADD RETURNDATACOPY PUSH2 0x6A9 JUMP JUMPDEST PUSH1 0x60 SWAP2 POP JUMPDEST POP POP SWAP1 POP DUP1 PUSH2 0x6F0 JUMPI PUSH1 0x40 MLOAD PUSH3 0x461BCD PUSH1 0xE5 SHL DUP2 MSTORE PUSH1 0x20 PUSH1 0x4 DUP3 ADD MSTORE PUSH1 0x13 PUSH1 0x24 DUP3 ADD MSTORE PUSH19 0x115512081D1C985B9CD9995C8819985A5B1959 PUSH1 0x6A SHL PUSH1 0x44 DUP3 ADD MSTORE PUSH1 0x64 ADD PUSH2 0x2F3 JUMP JUMPDEST PUSH1 0x40 DUP1 MLOAD DUP6 DUP2 MSTORE PUSH1 0x20 DUP2 ADD DUP6 SWAP1 MSTORE CALLER SWAP2 PUSH32 0xE1979FE4C35E0CEF342FEF5668E2C8E7A7E9F5D5D1CA8FEE0AC6C427FA4153AF SWAP2 ADD PUSH1 0x40 MLOAD DUP1 SWAP2 SUB SWAP1 LOG2 POP POP POP POP JUMP JUMPDEST PUSH1 0x0 SLOAD PUSH1 0x1 PUSH1 0x1 PUSH1 0xA0 SHL SUB AND CALLER EQ PUSH2 0x777 JUMPI PUSH1 0x40 MLOAD PUSH3 0x461BCD PUSH1 0xE5 SHL DUP2 MSTORE PUSH1 0x20 PUSH1 0x4 DUP3 ADD MSTORE PUSH1 0x9 PUSH1 0x24 DUP3 ADD MSTORE PUSH9 0x2737BA1037BBB732B9 PUSH1 0xB9 SHL PUSH1 0x44 DUP3 ADD MSTORE PUSH1 0x64 ADD PUSH2 0x2F3 JUMP JUMPDEST PUSH1 0x1 SLOAD PUSH1 0x1 PUSH1 0x1 PUSH1 0xA0 SHL SUB AND PUSH2 0x7C5 JUMPI PUSH1 0x40 MLOAD PUSH3 0x461BCD PUSH1 0xE5 SHL DUP2 MSTORE PUSH1 0x20 PUSH1 0x4 DUP3 ADD MSTORE PUSH1 0x13 PUSH1 0x24 DUP3 ADD MSTORE PUSH19 0x111252D1481B9BDD0818DBDB999A59DD5C9959 PUSH1 0x6A SHL PUSH1 0x44 DUP3 ADD MSTORE PUSH1 0x64 ADD PUSH2 0x2F3 JUMP JUMPDEST PUSH1 0x6 DUP1 SLOAD PUSH1 0xFF NOT AND DUP3 ISZERO ISZERO SWAP1 DUP2 OR SWAP1 SWAP2 SSTORE PUSH1 0x40 MLOAD SWAP1 DUP2 MSTORE PUSH32 0x12336B38416013AE6287C5C4DAF50CFE48CA34607C50A4F20E96E9B3B6E7C888 SWAP1 PUSH1 0x20 ADD PUSH1 0x40 MLOAD DUP1 SWAP2 SUB SWAP1 LOG1 POP JUMP JUMPDEST PUSH1 0x6 SLOAD PUSH1 0x0 SWAP1 PUSH1 0xFF AND ISZERO DUP1 PUSH2 0x82A JUMPI POP PUSH1 0x1 SLOAD PUSH1 0x1 PUSH1 0x1 PUSH1 0xA0 SHL SUB AND ISZERO JUMPDEST ISZERO PUSH2 0x837 JUMPI POP POP PUSH1 0x4 SLOAD SWAP1 JUMP JUMPDEST PUSH1 0x1 SLOAD PUSH1 0x40 MLOAD PUSH4 0xA016120B PUSH1 0xE0 SHL DUP2 MSTORE PUSH1 0x1 PUSH1 0x1 PUSH1 0xA0 SHL SUB DUP5 DUP2 AND PUSH1 0x4 DUP4 ADD MSTORE PUSH1 0x0 SWAP3 DUP4 SWAP3 SWAP2 AND SWAP1 PUSH4 0xA016120B SWAP1 PUSH1 0x24 ADD PUSH1 0xE0 PUSH1 0x40 MLOAD DUP1 DUP4 SUB DUP2 DUP7 GAS STATICCALL ISZERO DUP1 ISZERO PUSH2 0x885 JUMPI RETURNDATASIZE PUSH1 0x0 DUP1 RETURNDATACOPY RETURNDATASIZE PUSH1 0x0 REVERT JUMPDEST POP POP POP POP PUSH1 0x40 MLOAD RETURNDATASIZE PUSH1 0x1F NOT PUSH1 0x1F DUP3 ADD AND DUP3 ADD DUP1 PUSH1 0x40 MSTORE POP DUP2 ADD SWAP1 PUSH2 0x8A9 SWAP2 SWAP1 PUSH2 0x9F4 JUMP JUMPDEST POP POP POP SWAP4 POP SWAP4 POP POP POP PUSH1 0x5 DUP2 LT ISZERO DUP1 ISZERO PUSH2 0x8C1 JUMPI POP DUP2 ISZERO JUMPDEST ISZERO PUSH2 0x8D1 JUMPI POP POP PUSH1 0x5 SLOAD SWAP3 SWAP2 POP POP JUMP JUMPDEST POP POP PUSH1 0x4 SLOAD SWAP3 SWAP2 POP POP JUMP JUMPDEST DUP1 CALLDATALOAD PUSH1 0x1 PUSH1 0x1 PUSH1 0xA0 SHL SUB DUP2 AND DUP2 EQ PUSH2 0x8F3 JUMPI PUSH1 0x0 DUP1 REVERT JUMPDEST SWAP2 SWAP1 POP JUMP JUMPDEST PUSH1 0x0 PUSH1 0x20 DUP3 DUP5 SUB SLT ISZERO PUSH2 0x90A JUMPI PUSH1 0x0 DUP1 REVERT JUMPDEST PUSH2 0x2A0 DUP3 PUSH2 0x8DC JUMP JUMPDEST PUSH1 0x0 DUP1 PUSH1 0x40 DUP4 DUP6 SUB SLT ISZERO PUSH2 0x926 JUMPI PUSH1 0x0 DUP1 REVERT JUMPDEST PUSH2 0x92F DUP4 PUSH2 0x8DC JUMP JUMPDEST SWAP5 PUSH1 0x20 SWAP4 SWAP1 SWAP4 ADD CALLDATALOAD SWAP4 POP POP POP JUMP JUMPDEST PUSH1 0x0 PUSH1 0x20 DUP3 DUP5 SUB SLT ISZERO PUSH2 0x94F JUMPI PUSH1 0x0 DUP1 REVERT JUMPDEST POP CALLDATALOAD SWAP2 SWAP1 POP JUMP JUMPDEST PUSH1 0x0 PUSH1 0x20 DUP3 DUP5 SUB SLT ISZERO PUSH2 0x968 JUMPI PUSH1 0x0 DUP1 REVERT JUMPDEST DUP2 CALLDATALOAD DUP1 ISZERO ISZERO DUP2 EQ PUSH2 0x978 JUMPI PUSH1 0x0 DUP1 REVERT JUMPDEST SWAP4 SWAP3 POP POP POP JUMP JUMPDEST PUSH4 0x4E487B71 PUSH1 0xE0 SHL PUSH1 0x0 MSTORE PUSH1 0x11 PUSH1 0x4 MSTORE PUSH1 0x24 PUSH1 0x0 REVERT JUMPDEST DUP1 DUP3 MUL DUP2 ISZERO DUP3 DUP3 DIV DUP5 EQ OR PUSH2 0x2A3 JUMPI PUSH2 0x2A3 PUSH2 0x97F JUMP JUMPDEST PUSH1 0x0 DUP3 PUSH2 0x9C9 JUMPI PUSH4 0x4E487B71 PUSH1 0xE0 SHL PUSH1 0x0 MSTORE PUSH1 0x12 PUSH1 0x4 MSTORE PUSH1 0x24 PUSH1 0x0 REVERT JUMPDEST POP DIV SWAP1 JUMP JUMPDEST DUP2 DUP2 SUB DUP2 DUP2 GT ISZERO PUSH2 0x2A3 JUMPI PUSH2 0x2A3 PUSH2 0x97F JUMP JUMPDEST DUP1 DUP3 ADD DUP1 DUP3 GT ISZERO PUSH2 0x2A3 JUMPI PUSH2 0x2A3 PUSH2 0x97F JUMP JUMPDEST PUSH1 0x0 DUP1 PUSH1 0x0 DUP1 PUSH1 0x0 DUP1 PUSH1 0x0 PUSH1 0xE0 DUP9 DUP11 SUB SLT ISZERO PUSH2 0xA0F JUMPI PUSH1 0x0 DUP1 REVERT JUMPDEST POP POP DUP6 MLOAD PUSH1 0x20 DUP8 ADD MLOAD PUSH1 0x40 DUP9 ADD MLOAD PUSH1 0x60 DUP10 ADD MLOAD PUSH1 0x80 DUP11 ADD MLOAD PUSH1 0xA0 DUP12 ADD MLOAD PUSH1 0xC0 SWAP1 SWAP12 ADD MLOAD SWAP5 SWAP13 SWAP4 SWAP12 POP SWAP2 SWAP10 SWAP1 SWAP9 POP SWAP1 SWAP7 POP SWAP5 POP SWAP1 SWAP3 POP SWAP1 POP JUMP INVALID LOG2 PUSH5 0x6970667358 0x22 SLT KECCAK256 0xCD 0xAD 0xBA JUMPDEST 0xCB NOT 0x49 0x1E 0xFB PUSH9 0x3559B15BBB9E4A9AFF 0x4B DUP15 0xB3 GT BLOCKHASH DUP2 SWAP13 PUSH11 0xCF186A334B64736F6C6343 STOP ADDMOD EQ STOP CALLER "},"methodIdentifiers":{"baseCollateralRatio()":"fcad8ff3","borrow(uint256)":"c5ebeaec","borrowedAmount(address)":"948adb8f","collateralDeposited(address)":"0a4b9ec2","depositCollateral()":"6f758140","dike()":"cb14c885","getRequiredCollateral(address,uint256)":"179b6934","getRequiredRatioFor(address)":"8e0272cb","owner()":"8da5cb5b","preferredCollateralRatio()":"1bc4c1f6","repay()":"402d8883","toggleDIKE(bool)":"ed81cf32","useDIKE()":"bf141742"}}}}}