{
  "_format": "hh-sol-artifact-1",
  "contractName": "MockDIKE",
  "sourceName": "contracts/MockDIKE.sol",
  "abi": [
    {
      "inputs": [
        {
          "internalType": "address",
          "name": "_strongBorrower",
          "type": "address"
        },
        {
          "internalType": "address",
          "name": "_weakBorrower",
          "type": "address"
        }
      ],
      "stateMutability": "nonpayable",
      "type": "constructor"
    },
    {
      "inputs": [
        {
          "internalType": "address",
          "name": "user",
          "type": "address"
        }
      ],
      "name": "getCreditSummary",
      "outputs": [
        {
          "internalType": "uint256",
          "name": "totalBorrowed",
          "type": "uint256"
        },
        {
          "internalType": "uint256",
          "name": "totalRepaid",
          "type": "uint256"
        },
        {
          "internalType": "uint256",
          "name": "defaultCount",
          "type": "uint256"
        },
        {
          "internalType": "uint256",
          "name": "onTimeCount",
          "type": "uint256"
        },
        {
          "internalType": "uint256",
          "name": "lateCount",
          "type": "uint256"
        },
        {
          "internalType": "uint256",
          "name": "activeObligations",
          "type": "uint256"
        },
        {
          "internalType": "uint256",
          "name": "lastUpdated",
          "type": "uint256"
        }
      ],
      "stateMutability": "view",
      "type": "function"
    },
    {
      "inputs": [],
      "name": "owner",
      "outputs": [
        {
          "internalType": "address",
          "name": "",
          "type": "address"
        }
      ],
      "stateMutability": "view",
      "type": "function"
    },
    {
      "inputs": [
        {
          "internalType": "address",
          "name": "_strong",
          "type": "address"
        },
        {
          "internalType": "address",
          "name": "_weak",
          "type": "address"
        }
      ],
      "name": "setProfiles",
      "outputs": [],
      "stateMutability": "nonpayable",
      "type": "function"
    },
    {
      "inputs": [],
      "name": "strongBorrower",
      "outputs": [
        {
          "internalType": "address",
          "name": "",
          "type": "address"
        }
      ],
      "stateMutability": "view",
      "type": "function"
    },
    {
      "inputs": [],
      "name": "weakBorrower",
      "outputs": [
        {
          "internalType": "address",
          "name": "",
          "type": "address"
        }
      ],
      "stateMutability": "view",
      "type": "function"
    }
  ],
  "bytecode": "0x608060405234801561001057600080fd5b506040516103bd3803806103bd83398101604081905261002f91610087565b600080546001600160a01b03199081163317909155600180546001600160a01b03948516908316179055600280549290931691161790556100ba565b80516001600160a01b038116811461008257600080fd5b919050565b6000806040838503121561009a57600080fd5b6100a38361006b565b91506100b16020840161006b565b90509250929050565b6102f4806100c96000396000f3fe608060405234801561001057600080fd5b50600436106100575760003560e01c80631e63e1b21461005c5780638da5cb5b1461008c578063942c9c631461009f5780639edb9df3146100b4578063a016120b146100c7575b600080fd5b60025461006f906001600160a01b031681565b6040516001600160a01b0390911681526020015b60405180910390f35b60005461006f906001600160a01b031681565b6100b26100ad366004610269565b61010f565b005b60015461006f906001600160a01b031681565b6100da6100d536600461029c565b610187565b604080519788526020880196909652948601939093526060850191909152608084015260a083015260c082015260e001610083565b6000546001600160a01b031633146101595760405162461bcd60e51b81526020600482015260096024820152682737ba1037bbb732b960b91b604482015260640160405180910390fd5b600180546001600160a01b039384166001600160a01b03199182161790915560028054929093169116179055565b6000806000806000806000600160009054906101000a90046001600160a01b03166001600160a01b0316886001600160a01b0316036101e35750678ac7230489e80000955085945060009350600a925083915081905042610242565b6002546001600160a01b039081169089160361022c5750674563918244f400009550671bc16d674ec80000945060029350600192508291506729a2241af62c0000905042610242565b5060009550859450849350839250829150819050805b919395979092949650565b80356001600160a01b038116811461026457600080fd5b919050565b6000806040838503121561027c57600080fd5b6102858361024d565b91506102936020840161024d565b90509250929050565b6000602082840312156102ae57600080fd5b6102b78261024d565b939250505056fea26469706673582212209430a19c60a875479935917e556000f464c3f066439c452060924b87b0a84d0264736f6c63430008140033",
  "linkReferences": {},
  "deployedLinkReferences": {}
}