{"contracts/MockDIKE.sol":{"MockDIKE":{"abi":[{"inputs":[{"internalType":"address","name":"_strongBorrower","type":"address"},{"internalType":"address","name":"_weakBorrower","type":"address"}],"stateMutability":"nonpayable","type":"constructor"},{"inputs":[{"internalType":"address","name":"user","type":"address"}],"name":"getCreditSummary","outputs":[{"internalType":"uint256","name":"totalBorrowed","type":"uint256"},{"internalType":"uint256","name":"totalRepaid","type":"uint256"},{"internalType":"uint256","name":"defaultCount","type":"uint256"},{"internalType":"uint256","name":"onTimeCount","type":"uint256"},{"internalType":"uint256","name":"lateCount","type":"uint256"},{"internalType":"uint256","name":"activeObligations","type":"uint256"},{"internalType":"uint256","name":"lastUpdated","type":"uint256"}],"stateMutability":"view","type":"function"},{"inputs":[],"name":"owner","outputs":[{"internalType":"address","name":"","type":"address"}],"stateMutability":"view","type":"function"},{"inputs":[{"internalType":"address","name":"_strong","type":"address"},{"internalType":"address","name":"_weak","type":"address"}],"name":"setProfiles","outputs":[],"stateMutability":"nonpayable","type":"function"},{"inputs":[],"name":"strongBorrower","outputs":[{"internalType":"address","name":"","type":"address"}],"stateMutability":"view","type":"function"},{"inputs":[],"name":"weakBorrower","outputs":[{"internalType":"address","name":"","type":"address"}],"stateMutability":"view","type":"function"}],"evm":{"bytecode":{"linkReferences":{},"object":"608060405234801561001057600080fd5b506040516103bd3803806103bd83398101604081905261002f91610087565b600080546001600160a01b03199081163317909155600180546001600160a01b03948516908316179055600280549290931691161790556100ba565b80516001600160a01b038116811461008257600080fd5b919050565b6000806040838503121561009a57600080fd5b6100a38361006b565b91506100b16020840161006b565b90509250929050565b6102f4806100c96000396000f3fe608060405234801561001057600080fd5b50600436106100575760003560e01c80631e63e1b21461005c5780638da5cb5b1461008c578063942c9c631461009f5780639edb9df3146100b4578063a016120b146100c7575b600080fd5b60025461006f906001600160a01b031681565b6040516001600160a01b0390911681526020015b60405180910390f35b60005461006f906001600160a01b031681565b6100b26100ad366004610269565b61010f565b005b60015461006f906001600160a01b031681565b6100da6100d536600461029c565b610187565b604080519788526020880196909652948601939093526060850191909152608084015260a083015260c082015260e001610083565b6000546001600160a01b031633146101595760405162461bcd60e51b81526020600482015260096024820152682737ba1037bbb732b960b91b604482015260640160405180910390fd5b600180546001600160a01b039384166001600160a01b03199182161790915560028054929093169116179055565b6000806000806000806000600160009054906101000a90046001600160a01b03166001600160a01b0316886001600160a01b0316036101e35750678ac7230489e80000955085945060009350600a925083915081905042610242565b6002546001600160a01b039081169089160361022c5750674563918244f400009550671bc16d674ec80000945060029350600192508291506729a2241af62c0000905042610242565b5060009550859450849350839250829150819050805b919395979092949650565b80356001600160a01b038116811461026457600080fd5b919050565b6000806040838503121561027c57600080fd5b6102858361024d565b91506102936020840161024d565b90509250929050565b6000602082840312156102ae57600080fd5b6102b78261024d565b939250505056fea26469706673582212209430a19c60a875479935917e556000f464c3f066439c452060924b87b0a84d0264736f6c63430008140033","opcodes":"PUSH1 0x80 PUSH1 0x40 MSTORE CALLVALUE DUP1 ISZERO PUSH2 0x10 JUMPI PUSH1 0x0 DUP1 REVERT JUMPDEST POP PUSH1 0x40 MLOAD PUSH2 0x3BD CODESIZE SUB DUP1 PUSH2 0x3BD DUP4 CODECOPY DUP2 ADD PUSH1 0x40 DUP2 SWAP1 MSTORE PUSH2 0x2F SWAP2 PUSH2 0x87 JUMP JUMPDEST PUSH1 0x0 DUP1 SLOAD PUSH1 0x1 PUSH1 0x1 PUSH1 0xA0 SHL SUB NOT SWAP1 DUP2 AND CALLER OR SWAP1 SWAP2 SSTORE PUSH1 0x1 DUP1 SLOAD PUSH1 0x1 PUSH1 0x1 PUSH1 0xA0 SHL SUB SWAP5 DUP6 AND SWAP1 DUP4 AND OR SWAP1 SSTORE PUSH1 0x2 DUP1 SLOAD SWAP3 SWAP1 SWAP4 AND SWAP2 AND OR SWAP1 SSTORE PUSH2 0xBA JUMP JUMPDEST DUP1 MLOAD PUSH1 0x1 PUSH1 0x1 PUSH1 0xA0 SHL SUB DUP2 AND DUP2 EQ PUSH2 0x82 JUMPI PUSH1 0x0 DUP1 REVERT JUMPDEST SWAP2 SWAP1 POP JUMP JUMPDEST PUSH1 0x0 DUP1 PUSH1 0x40 DUP4 DUP6 SUB SLT ISZERO PUSH2 0x9A JUMPI PUSH1 0x0 DUP1 REVERT JUMPDEST PUSH2 0xA3 DUP4 PUSH2 0x6B JUMP JUMPDEST SWAP2 POP PUSH2 0xB1 PUSH1 0x20 DUP5 ADD PUSH2 0x6B JUMP JUMPDEST SWAP1 POP SWAP3 POP SWAP3 SWAP1 POP JUMP JUMPDEST PUSH2 0x2F4 DUP1 PUSH2 0xC9 PUSH1 0x0 CODECOPY PUSH1 0x0 RETURN INVALID PUSH1 0x80 PUSH1 0x40 MSTORE CALLVALUE DUP1 ISZERO PUSH2 0x10 JUMPI PUSH1 0x0 DUP1 REVERT JUMPDEST POP PUSH1 0x4 CALLDATASIZE LT PUSH2 0x57 JUMPI PUSH1 0x0 CALLDATALOAD PUSH1 0xE0 SHR DUP1 PUSH4 0x1E63E1B2 EQ PUSH2 0x5C JUMPI DUP1 PUSH4 0x8DA5CB5B EQ PUSH2 0x8C JUMPI DUP1 PUSH4 0x942C9C63 EQ PUSH2 0x9F JUMPI DUP1 PUSH4 0x9EDB9DF3 EQ PUSH2 0xB4 JUMPI DUP1 PUSH4 0xA016120B EQ PUSH2 0xC7 JUMPI JUMPDEST PUSH1 0x0 DUP1 REVERT JUMPDEST PUSH1 0x2 SLOAD PUSH2 0x6F SWAP1 PUSH1 0x1 PUSH1 0x1 PUSH1 0xA0 SHL SUB AND DUP2 JUMP JUMPDEST PUSH1 0x40 MLOAD PUSH1 0x1 PUSH1 0x1 PUSH1 0xA0 SHL SUB SWAP1 SWAP2 AND DUP2 MSTORE PUSH1 0x20 ADD JUMPDEST PUSH1 0x40 MLOAD DUP1 SWAP2 SUB SWAP1 RETURN JUMPDEST PUSH1 0x0 SLOAD PUSH2 0x6F SWAP1 PUSH1 0x1 PUSH1 0x1 PUSH1 0xA0 SHL SUB AND DUP2 JUMP JUMPDEST PUSH2 0xB2 PUSH2 0xAD CALLDATASIZE PUSH1 0x4 PUSH2 0x269 JUMP JUMPDEST PUSH2 0x10F JUMP JUMPDEST STOP JUMPDEST PUSH1 0x1 SLOAD PUSH2 0x6F SWAP1 PUSH1 0x1 PUSH1 0x1 PUSH1 0xA0 SHL SUB AND DUP2 JUMP JUMPDEST PUSH2 0xDA PUSH2 0xD5 CALLDATASIZE PUSH1 0x4 PUSH2 0x29C JUMP JUMPDEST PUSH2 0x187 JUMP JUMPDEST PUSH1 0x40 DUP1 MLOAD SWAP8 DUP9 MSTORE PUSH1 0x20 DUP9 ADD SWAP7 SWAP1 SWAP7 MSTORE SWAP5 DUP7 ADD SWAP4 SWAP1 SWAP4 MSTORE PUSH1 0x60 DUP6 ADD SWAP2 SWAP1 SWAP2 MSTORE PUSH1 0x80 DUP5 ADD MSTORE PUSH1 0xA0 DUP4 ADD MSTORE PUSH1 0xC0 DUP3 ADD MSTORE PUSH1 0xE0 ADD PUSH2 0x83 JUMP JUMPDEST PUSH1 0x0 SLOAD PUSH1 0x1 PUSH1 0x1 PUSH1 0xA0 SHL SUB AND CALLER EQ PUSH2 0x159 JUMPI PUSH1 0x40 MLOAD PUSH3 0x461BCD PUSH1 0xE5 SHL DUP2 MSTORE PUSH1 0x20 PUSH1 0x4 DUP3 ADD MSTORE PUSH1 0x9 PUSH1 0x24 DUP3 ADD MSTORE PUSH9 0x2737BA1037BBB732B9 PUSH1 0xB9 SHL PUSH1 0x44 DUP3 ADD MSTORE PUSH1 0x64 ADD PUSH1 0x40 MLOAD DUP1 SWAP2 SUB SWAP1 REVERT JUMPDEST PUSH1 0x1 DUP1 SLOAD PUSH1 0x1 PUSH1 0x1 PUSH1 0xA0 SHL SUB SWAP4 DUP5 AND PUSH1 0x1 PUSH1 0x1 PUSH1 0xA0 SHL SUB NOT SWAP2 DUP3 AND OR SWAP1 SWAP2 SSTORE PUSH1 0x2 DUP1 SLOAD SWAP3 SWAP1 SWAP4 AND SWAP2 AND OR SWAP1 SSTORE JUMP JUMPDEST PUSH1 0x0 DUP1 PUSH1 0x0 DUP1 PUSH1 0x0 DUP1 PUSH1 0x0 PUSH1 0x1 PUSH1 0x0 SWAP1 SLOAD SWAP1 PUSH2 0x100 EXP SWAP1 DIV PUSH1 0x1 PUSH1 0x1 PUSH1 0xA0 SHL SUB AND PUSH1 0x1 PUSH1 0x1 PUSH1 0xA0 SHL SUB AND DUP9 PUSH1 0x1 PUSH1 0x1 PUSH1 0xA0 SHL SUB AND SUB PUSH2 0x1E3 JUMPI POP PUSH8 0x8AC7230489E80000 SWAP6 POP DUP6 SWAP5 POP PUSH1 0x0 SWAP4 POP PUSH1 0xA SWAP3 POP DUP4 SWAP2 POP DUP2 SWAP1 POP TIMESTAMP PUSH2 0x242 JUMP JUMPDEST PUSH1 0x2 SLOAD PUSH1 0x1 PUSH1 0x1 PUSH1 0xA0 SHL SUB SWAP1 DUP2 AND SWAP1 DUP10 AND SUB PUSH2 0x22C JUMPI POP PUSH8 0x4563918244F40000 SWAP6 POP PUSH8 0x1BC16D674EC80000 SWAP5 POP PUSH1 0x2 SWAP4 POP PUSH1 0x1 SWAP3 POP DUP3 SWAP2 POP PUSH8 0x29A2241AF62C0000 SWAP1 POP TIMESTAMP PUSH2 0x242 JUMP JUMPDEST POP PUSH1 0x0 SWAP6 POP DUP6 SWAP5 POP DUP5 SWAP4 POP DUP4 SWAP3 POP DUP3 SWAP2 POP DUP2 SWAP1 POP DUP1 JUMPDEST SWAP2 SWAP4 SWAP6 SWAP8 SWAP1 SWAP3 SWAP5 SWAP7 POP JUMP JUMPDEST DUP1 CALLDATALOAD PUSH1 0x1 PUSH1 0x1 PUSH1 0xA0 SHL SUB DUP2 AND DUP2 EQ PUSH2 0x264 JUMPI PUSH1 0x0 DUP1 REVERT JUMPDEST SWAP2 SWAP1 POP JUMP JUMPDEST PUSH1 0x0 DUP1 PUSH1 0x40 DUP4 DUP6 SUB SLT ISZERO PUSH2 0x27C JUMPI PUSH1 0x0 DUP1 REVERT JUMPDEST PUSH2 0x285 DUP4 PUSH2 0x24D JUMP JUMPDEST SWAP2 POP PUSH2 0x293 PUSH1 0x20 DUP5 ADD PUSH2 0x24D JUMP JUMPDEST SWAP1 POP SWAP3 POP SWAP3 SWAP1 POP JUMP JUMPDEST PUSH1 0x0 PUSH1 0x20 DUP3 DUP5 SUB SLT ISZERO PUSH2 0x2AE JUMPI PUSH1 0x0 DUP1 REVERT JUMPDEST PUSH2 0x2B7 DUP3 PUSH2 0x24D JUMP JUMPDEST SWAP4 SWAP3 POP POP POP JUMP INVALID LOG2 PUSH5 0x6970667358 0x22 SLT KECCAK256 SWAP5 ADDRESS LOG1 SWAP13 PUSH1 0xA8 PUSH22 0x479935917E556000F464C3F066439C452060924B87B0 0xA8 0x4D MUL PUSH5 0x736F6C6343 STOP ADDMOD EQ STOP CALLER "},"methodIdentifiers":{"getCreditSummary(address)":"a016120b","owner()":"8da5cb5b","setProfiles(address,address)":"942c9c63","strongBorrower()":"9edb9df3","weakBorrower()":"1e63e1b2"}}}}}