{
  "_format": "hh-sol-artifact-1",
  "contractName": "MockRWAPool",
  "sourceName": "contracts/MockRWAPool.sol",
  "abi": [
    {
      "inputs": [
        {
          "internalType": "address",
          "name": "_dikeAddress",
          "type": "address"
        }
      ],
      "stateMutability": "nonpayable",
      "type": "constructor"
    },
    {
      "anonymous": false,
      "inputs": [
        {
          "indexed": false,
          "internalType": "bool",
          "name": "enabled",
          "type": "bool"
        }
      ],
      "name": "DIKEToggled",
      "type": "event"
    },
    {
      "anonymous": false,
      "inputs": [
        {
          "indexed": true,
          "internalType": "address",
          "name": "borrower",
          "type": "address"
        },
        {
          "indexed": false,
          "internalType": "uint256",
          "name": "paid",
          "type": "uint256"
        },
        {
          "indexed": false,
          "internalType": "uint256",
          "name": "remaining",
          "type": "uint256"
        }
      ],
      "name": "InstallmentRepaid",
      "type": "event"
    },
    {
      "anonymous": false,
      "inputs": [
        {
          "indexed": true,
          "internalType": "address",
          "name": "investor",
          "type": "address"
        },
        {
          "indexed": false,
          "internalType": "uint256",
          "name": "amount",
          "type": "uint256"
        }
      ],
      "name": "Invested",
      "type": "event"
    },
    {
      "anonymous": false,
      "inputs": [
        {
          "indexed": true,
          "internalType": "address",
          "name": "borrower",
          "type": "address"
        },
        {
          "indexed": false,
          "internalType": "uint256",
          "name": "repaymentDue",
          "type": "uint256"
        },
        {
          "indexed": false,
          "internalType": "bool",
          "name": "viaDAIKE",
          "type": "bool"
        }
      ],
      "name": "LoanApproved",
      "type": "event"
    },
    {
      "anonymous": false,
      "inputs": [
        {
          "indexed": true,
          "internalType": "address",
          "name": "borrower",
          "type": "address"
        }
      ],
      "name": "LoanFullyRepaid",
      "type": "event"
    },
    {
      "anonymous": false,
      "inputs": [
        {
          "indexed": true,
          "internalType": "address",
          "name": "borrower",
          "type": "address"
        },
        {
          "indexed": false,
          "internalType": "string",
          "name": "reason",
          "type": "string"
        }
      ],
      "name": "LoanRejected",
      "type": "event"
    },
    {
      "anonymous": false,
      "inputs": [
        {
          "indexed": true,
          "internalType": "address",
          "name": "borrower",
          "type": "address"
        },
        {
          "indexed": false,
          "internalType": "uint256",
          "name": "amount",
          "type": "uint256"
        }
      ],
      "name": "LoanRequested",
      "type": "event"
    },
    {
      "anonymous": false,
      "inputs": [
        {
          "indexed": true,
          "internalType": "address",
          "name": "borrower",
          "type": "address"
        },
        {
          "indexed": false,
          "internalType": "uint256",
          "name": "amount",
          "type": "uint256"
        }
      ],
      "name": "LoanWithdrawn",
      "type": "event"
    },
    {
      "inputs": [],
      "name": "approveLoan",
      "outputs": [],
      "stateMutability": "nonpayable",
      "type": "function"
    },
    {
      "inputs": [],
      "name": "borrowedAmount",
      "outputs": [
        {
          "internalType": "uint256",
          "name": "",
          "type": "uint256"
        }
      ],
      "stateMutability": "view",
      "type": "function"
    },
    {
      "inputs": [],
      "name": "borrower",
      "outputs": [
        {
          "internalType": "address",
          "name": "",
          "type": "address"
        }
      ],
      "stateMutability": "view",
      "type": "function"
    },
    {
      "inputs": [],
      "name": "dike",
      "outputs": [
        {
          "internalType": "contract IDIKE",
          "name": "",
          "type": "address"
        }
      ],
      "stateMutability": "view",
      "type": "function"
    },
    {
      "inputs": [
        {
          "internalType": "address",
          "name": "user",
          "type": "address"
        }
      ],
      "name": "dikeWouldApprove",
      "outputs": [
        {
          "internalType": "bool",
          "name": "",
          "type": "bool"
        }
      ],
      "stateMutability": "view",
      "type": "function"
    },
    {
      "inputs": [],
      "name": "invest",
      "outputs": [],
      "stateMutability": "payable",
      "type": "function"
    },
    {
      "inputs": [
        {
          "internalType": "address",
          "name": "",
          "type": "address"
        }
      ],
      "name": "investorDeposits",
      "outputs": [
        {
          "internalType": "uint256",
          "name": "",
          "type": "uint256"
        }
      ],
      "stateMutability": "view",
      "type": "function"
    },
    {
      "inputs": [],
      "name": "loanApproved",
      "outputs": [
        {
          "internalType": "bool",
          "name": "",
          "type": "bool"
        }
      ],
      "stateMutability": "view",
      "type": "function"
    },
    {
      "inputs": [],
      "name": "loanWithdrawn",
      "outputs": [
        {
          "internalType": "bool",
          "name": "",
          "type": "bool"
        }
      ],
      "stateMutability": "view",
      "type": "function"
    },
    {
      "inputs": [],
      "name": "owner",
      "outputs": [
        {
          "internalType": "address",
          "name": "",
          "type": "address"
        }
      ],
      "stateMutability": "view",
      "type": "function"
    },
    {
      "inputs": [],
      "name": "remainingRepayment",
      "outputs": [
        {
          "internalType": "uint256",
          "name": "",
          "type": "uint256"
        }
      ],
      "stateMutability": "view",
      "type": "function"
    },
    {
      "inputs": [],
      "name": "repayInstallment",
      "outputs": [],
      "stateMutability": "payable",
      "type": "function"
    },
    {
      "inputs": [],
      "name": "repaymentDue",
      "outputs": [
        {
          "internalType": "uint256",
          "name": "",
          "type": "uint256"
        }
      ],
      "stateMutability": "view",
      "type": "function"
    },
    {
      "inputs": [],
      "name": "repaymentsMade",
      "outputs": [
        {
          "internalType": "uint256",
          "name": "",
          "type": "uint256"
        }
      ],
      "stateMutability": "view",
      "type": "function"
    },
    {
      "inputs": [
        {
          "internalType": "uint256",
          "name": "amount",
          "type": "uint256"
        }
      ],
      "name": "requestLoan",
      "outputs": [],
      "stateMutability": "nonpayable",
      "type": "function"
    },
    {
      "inputs": [
        {
          "internalType": "bool",
          "name": "enabled",
          "type": "bool"
        }
      ],
      "name": "toggleDIKE",
      "outputs": [],
      "stateMutability": "nonpayable",
      "type": "function"
    },
    {
      "inputs": [],
      "name": "totalPoolLiquidity",
      "outputs": [
        {
          "internalType": "uint256",
          "name": "",
          "type": "uint256"
        }
      ],
      "stateMutability": "view",
      "type": "function"
    },
    {
      "inputs": [],
      "name": "useDIKE",
      "outputs": [
        {
          "internalType": "bool",
          "name": "",
          "type": "bool"
        }
      ],
      "stateMutability": "view",
      "type": "function"
    },
    {
      "inputs": [],
      "name": "withdrawLoan",
      "outputs": [],
      "stateMutability": "nonpayable",
      "type": "function"
    },
    {
      "stateMutability": "payable",
      "type": "receive"
    }
  ],
  "bytecode": "0x608060405234801561001057600080fd5b5060405161114338038061114383398101604081905261002f91610072565b600080546001600160a01b031916331790556001600160a01b0381161561006c57600180546001600160a01b0319166001600160a01b0383161790555b506100a2565b60006020828403121561008457600080fd5b81516001600160a01b038116811461009b57600080fd5b9392505050565b611092806100b16000396000f3fe6080604052600436106101185760003560e01c80638d5d3429116100a0578063cb14c88511610064578063cb14c885146102dc578063e8b5e51f146102fc578063e8f0033114610304578063ed81cf321461031a578063f284d07c1461033a57600080fd5b80638d5d3429146102395780638da5cb5b146102595780639df9010f14610279578063bf141742146102a6578063c4c77e25146102c757600080fd5b80635945f945116100e75780635945f945146101965780636d59f4c7146101b657806374d4ee39146101d55780637df1f1b9146101eb57806387aaee751461022357600080fd5b80630202aa2c146101245780631afbb7a41461014c57806320dfcae1146101625780633dc156fa1461016c57600080fd5b3661011f57005b600080fd5b34801561013057600080fd5b5061013961034f565b6040519081526020015b60405180910390f35b34801561015857600080fd5b5061013960055481565b61016a610377565b005b34801561017857600080fd5b506008546101869060ff1681565b6040519015158152602001610143565b3480156101a257600080fd5b506101866101b1366004610f22565b6105c1565b3480156101c257600080fd5b5060085461018690610100900460ff1681565b3480156101e157600080fd5b5061013960075481565b3480156101f757600080fd5b5060045461020b906001600160a01b031681565b6040516001600160a01b039091168152602001610143565b34801561022f57600080fd5b5061013960065481565b34801561024557600080fd5b5061016a610254366004610f52565b610685565b34801561026557600080fd5b5060005461020b906001600160a01b031681565b34801561028557600080fd5b50610139610294366004610f22565b60026020526000908152604090205481565b3480156102b257600080fd5b5060015461018690600160a01b900460ff1681565b3480156102d357600080fd5b5061016a6107ce565b3480156102e857600080fd5b5060015461020b906001600160a01b031681565b61016a6109ec565b34801561031057600080fd5b5061013960035481565b34801561032657600080fd5b5061016a610335366004610f6b565b610aa1565b34801561034657600080fd5b5061016a610b8d565b6000600654600754106103625750600090565b6007546006546103729190610fa3565b905090565b6004546001600160a01b031633146103c95760405162461bcd60e51b815260206004820152601060248201526f2737ba103a3432903137b93937bbb2b960811b60448201526064015b60405180910390fd5b60085460ff1661040c5760405162461bcd60e51b815260206004820152600e60248201526d27379030b1ba34bb32903637b0b760911b60448201526064016103c0565b600854610100900460ff1661045c5760405162461bcd60e51b81526020600482015260166024820152752637b0b7103737ba103cb2ba103bb4ba34323930bbb760511b60448201526064016103c0565b600034116104a05760405162461bcd60e51b815260206004820152601160248201527053656e642045544820746f20726570617960781b60448201526064016103c0565b34600760008282546104b29190610fbc565b9250508190555034600360008282546104cb9190610fbc565b90915550506006546007541061056d57604080513481526000602082015233917fd9f0e142e3e0d17c6668295044ab82a624912301602a6cb2b6d3b8badaba8e5b910160405180910390a260405133907f59bd56f70adeefb0cd83dca0f34f066bed6ee442068f3d07b5fc974b944d5aa690600090a2600480546001600160a01b03191690556000600581905560068190556007556008805461ffff19169055565b600060075460065461057f9190610fa3565b604080513481526020810183905291925033917fd9f0e142e3e0d17c6668295044ab82a624912301602a6cb2b6d3b8badaba8e5b91015b60405180910390a250565b600154600090600160a01b900460ff1615806105e657506001546001600160a01b0316155b156105f357506000919050565b60015460405163a016120b60e01b81526001600160a01b038481166004830152600092839291169063a016120b9060240160e060405180830381865afa158015610641573d6000803e3d6000fd5b505050506040513d601f19601f820116820180604052508101906106659190610fcf565b5050509350935050506005811015801561067d575081155b949350505050565b60085460ff16156106d85760405162461bcd60e51b815260206004820152601860248201527f41206c6f616e20697320616c726561647920616374697665000000000000000060448201526064016103c0565b6000811161071d5760405162461bcd60e51b81526020600482015260126024820152710416d6f756e74206d757374206265203e20360741b60448201526064016103c0565b60035481111561076f5760405162461bcd60e51b815260206004820152601b60248201527f496e73756666696369656e7420706f6f6c206c6971756964697479000000000060448201526064016103c0565b600480546001600160a01b031916339081179091556005829055600060068190556007556008805461ffff191690556040518281527f06c22e520074f676b380b03ffba06f2ccf61e51cbeee2a4e084b80a19d2fc237906020016105b6565b6004546001600160a01b0316331461081b5760405162461bcd60e51b815260206004820152601060248201526f2737ba103a3432903137b93937bbb2b960811b60448201526064016103c0565b60085460ff166108615760405162461bcd60e51b8152602060048201526011602482015270131bd85b881b9bdd08185c1c1c9bdd9959607a1b60448201526064016103c0565b600854610100900460ff16156108ad5760405162461bcd60e51b815260206004820152601160248201527020b63932b0b23c903bb4ba34323930bbb760791b60448201526064016103c0565b6005544710156108ff5760405162461bcd60e51b815260206004820152601860248201527f496e73756666696369656e742045544820696e20706f6f6c000000000000000060448201526064016103c0565b6008805461ff00191661010017905560055460038054600090610923908490610fa3565b909155505060055460405160009133918381818185875af1925050503d806000811461096b576040519150601f19603f3d011682016040523d82523d6000602084013e610970565b606091505b50509050806109b75760405162461bcd60e51b8152602060048201526013602482015272115512081d1c985b9cd9995c8819985a5b1959606a1b60448201526064016103c0565b60055460405190815233907fe88ee7c21260deb5d30d7c869f240c3400363e3163ba104176284cbd9d6a60bb906020016105b6565b60003411610a2c5760405162461bcd60e51b815260206004820152600d60248201526c09aeae6e840e6cadcc8408aa89609b1b60448201526064016103c0565b3360009081526002602052604081208054349290610a4b908490610fbc565b925050819055503460036000828254610a649190610fbc565b909155505060405134815233907fc3f75dfc78f6efac88ad5abb5e606276b903647d97b2a62a1ef89840a658bbc3906020015b60405180910390a2565b6000546001600160a01b03163314610ae75760405162461bcd60e51b81526020600482015260096024820152682737ba1037bbb732b960b91b60448201526064016103c0565b6001546001600160a01b0316610b355760405162461bcd60e51b8152602060048201526013602482015272111252d1481b9bdd0818dbdb999a59dd5c9959606a1b60448201526064016103c0565b60018054821515600160a01b0260ff60a01b199091161790556040517f12336b38416013ae6287c5c4daf50cfe48ca34607c50a4f20e96e9b3b6e7c88890610b8290831515815260200190565b60405180910390a150565b600060055411610bdf5760405162461bcd60e51b815260206004820152601760248201527f4e6f206c6f616e20726571756573742070656e64696e6700000000000000000060448201526064016103c0565b60085460ff1615610c255760405162461bcd60e51b815260206004820152601060248201526f105b1c9958591e48185c1c1c9bdd995960821b60448201526064016103c0565b600154600160a01b900460ff16610d0e576000546001600160a01b03163314610c9c5760405162461bcd60e51b815260206004820152602360248201527f4f6e6c79206f776e65722063616e20617070726f766520776974686f75742044604482015262494b4560e81b60648201526084016103c0565b6008805460ff19166001179055600554606490610cba90606e611023565b610cc4919061103a565b600681905560045460408051928352600060208401526001600160a01b03909116917f9911253f06efb1f7b034e29498404ccc63e5f995695122153a3e3b8a345f9f6f9101610a97565b6001546001600160a01b0316610d5c5760405162461bcd60e51b8152602060048201526013602482015272111252d1481b9bdd0818dbdb999a59dd5c9959606a1b60448201526064016103c0565b6001546004805460405163a016120b60e01b81526001600160a01b0391821692810192909252600092839291169063a016120b9060240160e060405180830381865afa158015610db0573d6000803e3d6000fd5b505050506040513d601f19601f82011682018060405250810190610dd49190610fcf565b50505093509350505060058110158015610dec575081155b15610e6a576008805460ff19166001179055600554606490610e0f90606e611023565b610e19919061103a565b600681905560045460408051928352600160208401526001600160a01b03909116917f9911253f06efb1f7b034e29498404ccc63e5f995695122153a3e3b8a345f9f6f910160405180910390a25050565b600480546001600160a01b0319811690915560006005556040516001600160a01b039091169081907f7f749083bfd2b10a89f5ed4e24ddb72ef6409b84e0d8f3f5d48e4f54aeb61f0190610f15906020808252603e908201527f44494b453a20696e73756666696369656e742063726564697420686973746f7260408201527f7920286f6e54696d65203c2035206f722064656661756c7473203e2030290000606082015260800190565b60405180910390a2505050565b600060208284031215610f3457600080fd5b81356001600160a01b0381168114610f4b57600080fd5b9392505050565b600060208284031215610f6457600080fd5b5035919050565b600060208284031215610f7d57600080fd5b81358015158114610f4b57600080fd5b634e487b7160e01b600052601160045260246000fd5b81810381811115610fb657610fb6610f8d565b92915050565b80820180821115610fb657610fb6610f8d565b600080600080600080600060e0888a031215610fea57600080fd5b5050855160208701516040880151606089015160808a015160a08b015160c0909b0151949c939b50919990985090965094509092509050565b8082028115828204841417610fb657610fb6610f8d565b60008261105757634e487b7160e01b600052601260045260246000fd5b50049056fea264697066735822122022d4533debe4e998419c760ba7fe1ae24991712631e07cbec0d37ffef8b374b164736f6c63430008140033",
  "linkReferences": {},
  "deployedLinkReferences": {}
}